
wizebox_Standart_2021.elf:     file format elf32-littlearm

Sections:
Idx Name          Size      VMA       LMA       File off  Algn
  0 .isr_vector   000000c0  08000000  08000000  00010000  2**0
                  CONTENTS, ALLOC, LOAD, READONLY, DATA
  1 .text         0001607c  080000c0  080000c0  000100c0  2**2
                  CONTENTS, ALLOC, LOAD, READONLY, CODE
  2 .rodata       000025a8  08016140  08016140  00026140  2**3
                  CONTENTS, ALLOC, LOAD, READONLY, DATA
  3 .ARM          00000008  080186e8  080186e8  000286e8  2**2
                  CONTENTS, ALLOC, LOAD, READONLY, DATA
  4 .init_array   00000004  080186f0  080186f0  000286f0  2**2
                  CONTENTS, ALLOC, LOAD, DATA
  5 .fini_array   00000004  080186f4  080186f4  000286f4  2**2
                  CONTENTS, ALLOC, LOAD, DATA
  6 .data         000001d8  20000000  080186f8  00030000  2**2
                  CONTENTS, ALLOC, LOAD, DATA
  7 .bss          0000168c  200001d8  080188d0  000301d8  2**3
                  ALLOC
  8 ._user_heap_stack 00000600  20001864  080188d0  00031864  2**0
                  ALLOC
  9 .ARM.attributes 00000028  00000000  00000000  000301d8  2**0
                  CONTENTS, READONLY
 10 .debug_info   00028704  00000000  00000000  00030200  2**0
                  CONTENTS, READONLY, DEBUGGING
 11 .debug_abbrev 000049e0  00000000  00000000  00058904  2**0
                  CONTENTS, READONLY, DEBUGGING
 12 .debug_aranges 00002188  00000000  00000000  0005d2e8  2**3
                  CONTENTS, READONLY, DEBUGGING
 13 .debug_ranges 00001fc0  00000000  00000000  0005f470  2**3
                  CONTENTS, READONLY, DEBUGGING
 14 .debug_line   00011730  00000000  00000000  00061430  2**0
                  CONTENTS, READONLY, DEBUGGING
 15 .debug_str    0000918b  00000000  00000000  00072b60  2**0
                  CONTENTS, READONLY, DEBUGGING
 16 .comment      0000007c  00000000  00000000  0007bceb  2**0
                  CONTENTS, READONLY
 17 .debug_frame  000088b4  00000000  00000000  0007bd68  2**2
                  CONTENTS, READONLY, DEBUGGING

Disassembly of section .text:

080000c0 <__do_global_dtors_aux>:
 80000c0:	b510      	push	{r4, lr}
 80000c2:	4c06      	ldr	r4, [pc, #24]	; (80000dc <__do_global_dtors_aux+0x1c>)
 80000c4:	7823      	ldrb	r3, [r4, #0]
 80000c6:	2b00      	cmp	r3, #0
 80000c8:	d107      	bne.n	80000da <__do_global_dtors_aux+0x1a>
 80000ca:	4b05      	ldr	r3, [pc, #20]	; (80000e0 <__do_global_dtors_aux+0x20>)
 80000cc:	2b00      	cmp	r3, #0
 80000ce:	d002      	beq.n	80000d6 <__do_global_dtors_aux+0x16>
 80000d0:	4804      	ldr	r0, [pc, #16]	; (80000e4 <__do_global_dtors_aux+0x24>)
 80000d2:	e000      	b.n	80000d6 <__do_global_dtors_aux+0x16>
 80000d4:	bf00      	nop
 80000d6:	2301      	movs	r3, #1
 80000d8:	7023      	strb	r3, [r4, #0]
 80000da:	bd10      	pop	{r4, pc}
 80000dc:	200001d8 	.word	0x200001d8
 80000e0:	00000000 	.word	0x00000000
 80000e4:	08016124 	.word	0x08016124

080000e8 <frame_dummy>:
 80000e8:	4b04      	ldr	r3, [pc, #16]	; (80000fc <frame_dummy+0x14>)
 80000ea:	b510      	push	{r4, lr}
 80000ec:	2b00      	cmp	r3, #0
 80000ee:	d003      	beq.n	80000f8 <frame_dummy+0x10>
 80000f0:	4903      	ldr	r1, [pc, #12]	; (8000100 <frame_dummy+0x18>)
 80000f2:	4804      	ldr	r0, [pc, #16]	; (8000104 <frame_dummy+0x1c>)
 80000f4:	e000      	b.n	80000f8 <frame_dummy+0x10>
 80000f6:	bf00      	nop
 80000f8:	bd10      	pop	{r4, pc}
 80000fa:	46c0      	nop			; (mov r8, r8)
 80000fc:	00000000 	.word	0x00000000
 8000100:	200001dc 	.word	0x200001dc
 8000104:	08016124 	.word	0x08016124

08000108 <strlen>:
 8000108:	2300      	movs	r3, #0
 800010a:	5cc2      	ldrb	r2, [r0, r3]
 800010c:	3301      	adds	r3, #1
 800010e:	2a00      	cmp	r2, #0
 8000110:	d1fb      	bne.n	800010a <strlen+0x2>
 8000112:	1e58      	subs	r0, r3, #1
 8000114:	4770      	bx	lr
	...

08000118 <__gnu_thumb1_case_uqi>:
 8000118:	b402      	push	{r1}
 800011a:	4671      	mov	r1, lr
 800011c:	0849      	lsrs	r1, r1, #1
 800011e:	0049      	lsls	r1, r1, #1
 8000120:	5c09      	ldrb	r1, [r1, r0]
 8000122:	0049      	lsls	r1, r1, #1
 8000124:	448e      	add	lr, r1
 8000126:	bc02      	pop	{r1}
 8000128:	4770      	bx	lr
 800012a:	46c0      	nop			; (mov r8, r8)

0800012c <__udivsi3>:
 800012c:	2200      	movs	r2, #0
 800012e:	0843      	lsrs	r3, r0, #1
 8000130:	428b      	cmp	r3, r1
 8000132:	d374      	bcc.n	800021e <__udivsi3+0xf2>
 8000134:	0903      	lsrs	r3, r0, #4
 8000136:	428b      	cmp	r3, r1
 8000138:	d35f      	bcc.n	80001fa <__udivsi3+0xce>
 800013a:	0a03      	lsrs	r3, r0, #8
 800013c:	428b      	cmp	r3, r1
 800013e:	d344      	bcc.n	80001ca <__udivsi3+0x9e>
 8000140:	0b03      	lsrs	r3, r0, #12
 8000142:	428b      	cmp	r3, r1
 8000144:	d328      	bcc.n	8000198 <__udivsi3+0x6c>
 8000146:	0c03      	lsrs	r3, r0, #16
 8000148:	428b      	cmp	r3, r1
 800014a:	d30d      	bcc.n	8000168 <__udivsi3+0x3c>
 800014c:	22ff      	movs	r2, #255	; 0xff
 800014e:	0209      	lsls	r1, r1, #8
 8000150:	ba12      	rev	r2, r2
 8000152:	0c03      	lsrs	r3, r0, #16
 8000154:	428b      	cmp	r3, r1
 8000156:	d302      	bcc.n	800015e <__udivsi3+0x32>
 8000158:	1212      	asrs	r2, r2, #8
 800015a:	0209      	lsls	r1, r1, #8
 800015c:	d065      	beq.n	800022a <__udivsi3+0xfe>
 800015e:	0b03      	lsrs	r3, r0, #12
 8000160:	428b      	cmp	r3, r1
 8000162:	d319      	bcc.n	8000198 <__udivsi3+0x6c>
 8000164:	e000      	b.n	8000168 <__udivsi3+0x3c>
 8000166:	0a09      	lsrs	r1, r1, #8
 8000168:	0bc3      	lsrs	r3, r0, #15
 800016a:	428b      	cmp	r3, r1
 800016c:	d301      	bcc.n	8000172 <__udivsi3+0x46>
 800016e:	03cb      	lsls	r3, r1, #15
 8000170:	1ac0      	subs	r0, r0, r3
 8000172:	4152      	adcs	r2, r2
 8000174:	0b83      	lsrs	r3, r0, #14
 8000176:	428b      	cmp	r3, r1
 8000178:	d301      	bcc.n	800017e <__udivsi3+0x52>
 800017a:	038b      	lsls	r3, r1, #14
 800017c:	1ac0      	subs	r0, r0, r3
 800017e:	4152      	adcs	r2, r2
 8000180:	0b43      	lsrs	r3, r0, #13
 8000182:	428b      	cmp	r3, r1
 8000184:	d301      	bcc.n	800018a <__udivsi3+0x5e>
 8000186:	034b      	lsls	r3, r1, #13
 8000188:	1ac0      	subs	r0, r0, r3
 800018a:	4152      	adcs	r2, r2
 800018c:	0b03      	lsrs	r3, r0, #12
 800018e:	428b      	cmp	r3, r1
 8000190:	d301      	bcc.n	8000196 <__udivsi3+0x6a>
 8000192:	030b      	lsls	r3, r1, #12
 8000194:	1ac0      	subs	r0, r0, r3
 8000196:	4152      	adcs	r2, r2
 8000198:	0ac3      	lsrs	r3, r0, #11
 800019a:	428b      	cmp	r3, r1
 800019c:	d301      	bcc.n	80001a2 <__udivsi3+0x76>
 800019e:	02cb      	lsls	r3, r1, #11
 80001a0:	1ac0      	subs	r0, r0, r3
 80001a2:	4152      	adcs	r2, r2
 80001a4:	0a83      	lsrs	r3, r0, #10
 80001a6:	428b      	cmp	r3, r1
 80001a8:	d301      	bcc.n	80001ae <__udivsi3+0x82>
 80001aa:	028b      	lsls	r3, r1, #10
 80001ac:	1ac0      	subs	r0, r0, r3
 80001ae:	4152      	adcs	r2, r2
 80001b0:	0a43      	lsrs	r3, r0, #9
 80001b2:	428b      	cmp	r3, r1
 80001b4:	d301      	bcc.n	80001ba <__udivsi3+0x8e>
 80001b6:	024b      	lsls	r3, r1, #9
 80001b8:	1ac0      	subs	r0, r0, r3
 80001ba:	4152      	adcs	r2, r2
 80001bc:	0a03      	lsrs	r3, r0, #8
 80001be:	428b      	cmp	r3, r1
 80001c0:	d301      	bcc.n	80001c6 <__udivsi3+0x9a>
 80001c2:	020b      	lsls	r3, r1, #8
 80001c4:	1ac0      	subs	r0, r0, r3
 80001c6:	4152      	adcs	r2, r2
 80001c8:	d2cd      	bcs.n	8000166 <__udivsi3+0x3a>
 80001ca:	09c3      	lsrs	r3, r0, #7
 80001cc:	428b      	cmp	r3, r1
 80001ce:	d301      	bcc.n	80001d4 <__udivsi3+0xa8>
 80001d0:	01cb      	lsls	r3, r1, #7
 80001d2:	1ac0      	subs	r0, r0, r3
 80001d4:	4152      	adcs	r2, r2
 80001d6:	0983      	lsrs	r3, r0, #6
 80001d8:	428b      	cmp	r3, r1
 80001da:	d301      	bcc.n	80001e0 <__udivsi3+0xb4>
 80001dc:	018b      	lsls	r3, r1, #6
 80001de:	1ac0      	subs	r0, r0, r3
 80001e0:	4152      	adcs	r2, r2
 80001e2:	0943      	lsrs	r3, r0, #5
 80001e4:	428b      	cmp	r3, r1
 80001e6:	d301      	bcc.n	80001ec <__udivsi3+0xc0>
 80001e8:	014b      	lsls	r3, r1, #5
 80001ea:	1ac0      	subs	r0, r0, r3
 80001ec:	4152      	adcs	r2, r2
 80001ee:	0903      	lsrs	r3, r0, #4
 80001f0:	428b      	cmp	r3, r1
 80001f2:	d301      	bcc.n	80001f8 <__udivsi3+0xcc>
 80001f4:	010b      	lsls	r3, r1, #4
 80001f6:	1ac0      	subs	r0, r0, r3
 80001f8:	4152      	adcs	r2, r2
 80001fa:	08c3      	lsrs	r3, r0, #3
 80001fc:	428b      	cmp	r3, r1
 80001fe:	d301      	bcc.n	8000204 <__udivsi3+0xd8>
 8000200:	00cb      	lsls	r3, r1, #3
 8000202:	1ac0      	subs	r0, r0, r3
 8000204:	4152      	adcs	r2, r2
 8000206:	0883      	lsrs	r3, r0, #2
 8000208:	428b      	cmp	r3, r1
 800020a:	d301      	bcc.n	8000210 <__udivsi3+0xe4>
 800020c:	008b      	lsls	r3, r1, #2
 800020e:	1ac0      	subs	r0, r0, r3
 8000210:	4152      	adcs	r2, r2
 8000212:	0843      	lsrs	r3, r0, #1
 8000214:	428b      	cmp	r3, r1
 8000216:	d301      	bcc.n	800021c <__udivsi3+0xf0>
 8000218:	004b      	lsls	r3, r1, #1
 800021a:	1ac0      	subs	r0, r0, r3
 800021c:	4152      	adcs	r2, r2
 800021e:	1a41      	subs	r1, r0, r1
 8000220:	d200      	bcs.n	8000224 <__udivsi3+0xf8>
 8000222:	4601      	mov	r1, r0
 8000224:	4152      	adcs	r2, r2
 8000226:	4610      	mov	r0, r2
 8000228:	4770      	bx	lr
 800022a:	e7ff      	b.n	800022c <__udivsi3+0x100>
 800022c:	b501      	push	{r0, lr}
 800022e:	2000      	movs	r0, #0
 8000230:	f000 f8f0 	bl	8000414 <__aeabi_idiv0>
 8000234:	bd02      	pop	{r1, pc}
 8000236:	46c0      	nop			; (mov r8, r8)

08000238 <__aeabi_uidivmod>:
 8000238:	2900      	cmp	r1, #0
 800023a:	d0f7      	beq.n	800022c <__udivsi3+0x100>
 800023c:	e776      	b.n	800012c <__udivsi3>
 800023e:	4770      	bx	lr

08000240 <__divsi3>:
 8000240:	4603      	mov	r3, r0
 8000242:	430b      	orrs	r3, r1
 8000244:	d47f      	bmi.n	8000346 <__divsi3+0x106>
 8000246:	2200      	movs	r2, #0
 8000248:	0843      	lsrs	r3, r0, #1
 800024a:	428b      	cmp	r3, r1
 800024c:	d374      	bcc.n	8000338 <__divsi3+0xf8>
 800024e:	0903      	lsrs	r3, r0, #4
 8000250:	428b      	cmp	r3, r1
 8000252:	d35f      	bcc.n	8000314 <__divsi3+0xd4>
 8000254:	0a03      	lsrs	r3, r0, #8
 8000256:	428b      	cmp	r3, r1
 8000258:	d344      	bcc.n	80002e4 <__divsi3+0xa4>
 800025a:	0b03      	lsrs	r3, r0, #12
 800025c:	428b      	cmp	r3, r1
 800025e:	d328      	bcc.n	80002b2 <__divsi3+0x72>
 8000260:	0c03      	lsrs	r3, r0, #16
 8000262:	428b      	cmp	r3, r1
 8000264:	d30d      	bcc.n	8000282 <__divsi3+0x42>
 8000266:	22ff      	movs	r2, #255	; 0xff
 8000268:	0209      	lsls	r1, r1, #8
 800026a:	ba12      	rev	r2, r2
 800026c:	0c03      	lsrs	r3, r0, #16
 800026e:	428b      	cmp	r3, r1
 8000270:	d302      	bcc.n	8000278 <__divsi3+0x38>
 8000272:	1212      	asrs	r2, r2, #8
 8000274:	0209      	lsls	r1, r1, #8
 8000276:	d065      	beq.n	8000344 <__divsi3+0x104>
 8000278:	0b03      	lsrs	r3, r0, #12
 800027a:	428b      	cmp	r3, r1
 800027c:	d319      	bcc.n	80002b2 <__divsi3+0x72>
 800027e:	e000      	b.n	8000282 <__divsi3+0x42>
 8000280:	0a09      	lsrs	r1, r1, #8
 8000282:	0bc3      	lsrs	r3, r0, #15
 8000284:	428b      	cmp	r3, r1
 8000286:	d301      	bcc.n	800028c <__divsi3+0x4c>
 8000288:	03cb      	lsls	r3, r1, #15
 800028a:	1ac0      	subs	r0, r0, r3
 800028c:	4152      	adcs	r2, r2
 800028e:	0b83      	lsrs	r3, r0, #14
 8000290:	428b      	cmp	r3, r1
 8000292:	d301      	bcc.n	8000298 <__divsi3+0x58>
 8000294:	038b      	lsls	r3, r1, #14
 8000296:	1ac0      	subs	r0, r0, r3
 8000298:	4152      	adcs	r2, r2
 800029a:	0b43      	lsrs	r3, r0, #13
 800029c:	428b      	cmp	r3, r1
 800029e:	d301      	bcc.n	80002a4 <__divsi3+0x64>
 80002a0:	034b      	lsls	r3, r1, #13
 80002a2:	1ac0      	subs	r0, r0, r3
 80002a4:	4152      	adcs	r2, r2
 80002a6:	0b03      	lsrs	r3, r0, #12
 80002a8:	428b      	cmp	r3, r1
 80002aa:	d301      	bcc.n	80002b0 <__divsi3+0x70>
 80002ac:	030b      	lsls	r3, r1, #12
 80002ae:	1ac0      	subs	r0, r0, r3
 80002b0:	4152      	adcs	r2, r2
 80002b2:	0ac3      	lsrs	r3, r0, #11
 80002b4:	428b      	cmp	r3, r1
 80002b6:	d301      	bcc.n	80002bc <__divsi3+0x7c>
 80002b8:	02cb      	lsls	r3, r1, #11
 80002ba:	1ac0      	subs	r0, r0, r3
 80002bc:	4152      	adcs	r2, r2
 80002be:	0a83      	lsrs	r3, r0, #10
 80002c0:	428b      	cmp	r3, r1
 80002c2:	d301      	bcc.n	80002c8 <__divsi3+0x88>
 80002c4:	028b      	lsls	r3, r1, #10
 80002c6:	1ac0      	subs	r0, r0, r3
 80002c8:	4152      	adcs	r2, r2
 80002ca:	0a43      	lsrs	r3, r0, #9
 80002cc:	428b      	cmp	r3, r1
 80002ce:	d301      	bcc.n	80002d4 <__divsi3+0x94>
 80002d0:	024b      	lsls	r3, r1, #9
 80002d2:	1ac0      	subs	r0, r0, r3
 80002d4:	4152      	adcs	r2, r2
 80002d6:	0a03      	lsrs	r3, r0, #8
 80002d8:	428b      	cmp	r3, r1
 80002da:	d301      	bcc.n	80002e0 <__divsi3+0xa0>
 80002dc:	020b      	lsls	r3, r1, #8
 80002de:	1ac0      	subs	r0, r0, r3
 80002e0:	4152      	adcs	r2, r2
 80002e2:	d2cd      	bcs.n	8000280 <__divsi3+0x40>
 80002e4:	09c3      	lsrs	r3, r0, #7
 80002e6:	428b      	cmp	r3, r1
 80002e8:	d301      	bcc.n	80002ee <__divsi3+0xae>
 80002ea:	01cb      	lsls	r3, r1, #7
 80002ec:	1ac0      	subs	r0, r0, r3
 80002ee:	4152      	adcs	r2, r2
 80002f0:	0983      	lsrs	r3, r0, #6
 80002f2:	428b      	cmp	r3, r1
 80002f4:	d301      	bcc.n	80002fa <__divsi3+0xba>
 80002f6:	018b      	lsls	r3, r1, #6
 80002f8:	1ac0      	subs	r0, r0, r3
 80002fa:	4152      	adcs	r2, r2
 80002fc:	0943      	lsrs	r3, r0, #5
 80002fe:	428b      	cmp	r3, r1
 8000300:	d301      	bcc.n	8000306 <__divsi3+0xc6>
 8000302:	014b      	lsls	r3, r1, #5
 8000304:	1ac0      	subs	r0, r0, r3
 8000306:	4152      	adcs	r2, r2
 8000308:	0903      	lsrs	r3, r0, #4
 800030a:	428b      	cmp	r3, r1
 800030c:	d301      	bcc.n	8000312 <__divsi3+0xd2>
 800030e:	010b      	lsls	r3, r1, #4
 8000310:	1ac0      	subs	r0, r0, r3
 8000312:	4152      	adcs	r2, r2
 8000314:	08c3      	lsrs	r3, r0, #3
 8000316:	428b      	cmp	r3, r1
 8000318:	d301      	bcc.n	800031e <__divsi3+0xde>
 800031a:	00cb      	lsls	r3, r1, #3
 800031c:	1ac0      	subs	r0, r0, r3
 800031e:	4152      	adcs	r2, r2
 8000320:	0883      	lsrs	r3, r0, #2
 8000322:	428b      	cmp	r3, r1
 8000324:	d301      	bcc.n	800032a <__divsi3+0xea>
 8000326:	008b      	lsls	r3, r1, #2
 8000328:	1ac0      	subs	r0, r0, r3
 800032a:	4152      	adcs	r2, r2
 800032c:	0843      	lsrs	r3, r0, #1
 800032e:	428b      	cmp	r3, r1
 8000330:	d301      	bcc.n	8000336 <__divsi3+0xf6>
 8000332:	004b      	lsls	r3, r1, #1
 8000334:	1ac0      	subs	r0, r0, r3
 8000336:	4152      	adcs	r2, r2
 8000338:	1a41      	subs	r1, r0, r1
 800033a:	d200      	bcs.n	800033e <__divsi3+0xfe>
 800033c:	4601      	mov	r1, r0
 800033e:	4152      	adcs	r2, r2
 8000340:	4610      	mov	r0, r2
 8000342:	4770      	bx	lr
 8000344:	e05d      	b.n	8000402 <__divsi3+0x1c2>
 8000346:	0fca      	lsrs	r2, r1, #31
 8000348:	d000      	beq.n	800034c <__divsi3+0x10c>
 800034a:	4249      	negs	r1, r1
 800034c:	1003      	asrs	r3, r0, #32
 800034e:	d300      	bcc.n	8000352 <__divsi3+0x112>
 8000350:	4240      	negs	r0, r0
 8000352:	4053      	eors	r3, r2
 8000354:	2200      	movs	r2, #0
 8000356:	469c      	mov	ip, r3
 8000358:	0903      	lsrs	r3, r0, #4
 800035a:	428b      	cmp	r3, r1
 800035c:	d32d      	bcc.n	80003ba <__divsi3+0x17a>
 800035e:	0a03      	lsrs	r3, r0, #8
 8000360:	428b      	cmp	r3, r1
 8000362:	d312      	bcc.n	800038a <__divsi3+0x14a>
 8000364:	22fc      	movs	r2, #252	; 0xfc
 8000366:	0189      	lsls	r1, r1, #6
 8000368:	ba12      	rev	r2, r2
 800036a:	0a03      	lsrs	r3, r0, #8
 800036c:	428b      	cmp	r3, r1
 800036e:	d30c      	bcc.n	800038a <__divsi3+0x14a>
 8000370:	0189      	lsls	r1, r1, #6
 8000372:	1192      	asrs	r2, r2, #6
 8000374:	428b      	cmp	r3, r1
 8000376:	d308      	bcc.n	800038a <__divsi3+0x14a>
 8000378:	0189      	lsls	r1, r1, #6
 800037a:	1192      	asrs	r2, r2, #6
 800037c:	428b      	cmp	r3, r1
 800037e:	d304      	bcc.n	800038a <__divsi3+0x14a>
 8000380:	0189      	lsls	r1, r1, #6
 8000382:	d03a      	beq.n	80003fa <__divsi3+0x1ba>
 8000384:	1192      	asrs	r2, r2, #6
 8000386:	e000      	b.n	800038a <__divsi3+0x14a>
 8000388:	0989      	lsrs	r1, r1, #6
 800038a:	09c3      	lsrs	r3, r0, #7
 800038c:	428b      	cmp	r3, r1
 800038e:	d301      	bcc.n	8000394 <__divsi3+0x154>
 8000390:	01cb      	lsls	r3, r1, #7
 8000392:	1ac0      	subs	r0, r0, r3
 8000394:	4152      	adcs	r2, r2
 8000396:	0983      	lsrs	r3, r0, #6
 8000398:	428b      	cmp	r3, r1
 800039a:	d301      	bcc.n	80003a0 <__divsi3+0x160>
 800039c:	018b      	lsls	r3, r1, #6
 800039e:	1ac0      	subs	r0, r0, r3
 80003a0:	4152      	adcs	r2, r2
 80003a2:	0943      	lsrs	r3, r0, #5
 80003a4:	428b      	cmp	r3, r1
 80003a6:	d301      	bcc.n	80003ac <__divsi3+0x16c>
 80003a8:	014b      	lsls	r3, r1, #5
 80003aa:	1ac0      	subs	r0, r0, r3
 80003ac:	4152      	adcs	r2, r2
 80003ae:	0903      	lsrs	r3, r0, #4
 80003b0:	428b      	cmp	r3, r1
 80003b2:	d301      	bcc.n	80003b8 <__divsi3+0x178>
 80003b4:	010b      	lsls	r3, r1, #4
 80003b6:	1ac0      	subs	r0, r0, r3
 80003b8:	4152      	adcs	r2, r2
 80003ba:	08c3      	lsrs	r3, r0, #3
 80003bc:	428b      	cmp	r3, r1
 80003be:	d301      	bcc.n	80003c4 <__divsi3+0x184>
 80003c0:	00cb      	lsls	r3, r1, #3
 80003c2:	1ac0      	subs	r0, r0, r3
 80003c4:	4152      	adcs	r2, r2
 80003c6:	0883      	lsrs	r3, r0, #2
 80003c8:	428b      	cmp	r3, r1
 80003ca:	d301      	bcc.n	80003d0 <__divsi3+0x190>
 80003cc:	008b      	lsls	r3, r1, #2
 80003ce:	1ac0      	subs	r0, r0, r3
 80003d0:	4152      	adcs	r2, r2
 80003d2:	d2d9      	bcs.n	8000388 <__divsi3+0x148>
 80003d4:	0843      	lsrs	r3, r0, #1
 80003d6:	428b      	cmp	r3, r1
 80003d8:	d301      	bcc.n	80003de <__divsi3+0x19e>
 80003da:	004b      	lsls	r3, r1, #1
 80003dc:	1ac0      	subs	r0, r0, r3
 80003de:	4152      	adcs	r2, r2
 80003e0:	1a41      	subs	r1, r0, r1
 80003e2:	d200      	bcs.n	80003e6 <__divsi3+0x1a6>
 80003e4:	4601      	mov	r1, r0
 80003e6:	4663      	mov	r3, ip
 80003e8:	4152      	adcs	r2, r2
 80003ea:	105b      	asrs	r3, r3, #1
 80003ec:	4610      	mov	r0, r2
 80003ee:	d301      	bcc.n	80003f4 <__divsi3+0x1b4>
 80003f0:	4240      	negs	r0, r0
 80003f2:	2b00      	cmp	r3, #0
 80003f4:	d500      	bpl.n	80003f8 <__divsi3+0x1b8>
 80003f6:	4249      	negs	r1, r1
 80003f8:	4770      	bx	lr
 80003fa:	4663      	mov	r3, ip
 80003fc:	105b      	asrs	r3, r3, #1
 80003fe:	d300      	bcc.n	8000402 <__divsi3+0x1c2>
 8000400:	4240      	negs	r0, r0
 8000402:	b501      	push	{r0, lr}
 8000404:	2000      	movs	r0, #0
 8000406:	f000 f805 	bl	8000414 <__aeabi_idiv0>
 800040a:	bd02      	pop	{r1, pc}

0800040c <__aeabi_idivmod>:
 800040c:	2900      	cmp	r1, #0
 800040e:	d0f8      	beq.n	8000402 <__divsi3+0x1c2>
 8000410:	e716      	b.n	8000240 <__divsi3>
 8000412:	4770      	bx	lr

08000414 <__aeabi_idiv0>:
 8000414:	4770      	bx	lr
 8000416:	46c0      	nop			; (mov r8, r8)

08000418 <__aeabi_cdrcmple>:
 8000418:	4684      	mov	ip, r0
 800041a:	1c10      	adds	r0, r2, #0
 800041c:	4662      	mov	r2, ip
 800041e:	468c      	mov	ip, r1
 8000420:	1c19      	adds	r1, r3, #0
 8000422:	4663      	mov	r3, ip
 8000424:	e000      	b.n	8000428 <__aeabi_cdcmpeq>
 8000426:	46c0      	nop			; (mov r8, r8)

08000428 <__aeabi_cdcmpeq>:
 8000428:	b51f      	push	{r0, r1, r2, r3, r4, lr}
 800042a:	f001 ff83 	bl	8002334 <__ledf2>
 800042e:	2800      	cmp	r0, #0
 8000430:	d401      	bmi.n	8000436 <__aeabi_cdcmpeq+0xe>
 8000432:	2100      	movs	r1, #0
 8000434:	42c8      	cmn	r0, r1
 8000436:	bd1f      	pop	{r0, r1, r2, r3, r4, pc}

08000438 <__aeabi_dcmpeq>:
 8000438:	b510      	push	{r4, lr}
 800043a:	f001 fedd 	bl	80021f8 <__eqdf2>
 800043e:	4240      	negs	r0, r0
 8000440:	3001      	adds	r0, #1
 8000442:	bd10      	pop	{r4, pc}

08000444 <__aeabi_dcmplt>:
 8000444:	b510      	push	{r4, lr}
 8000446:	f001 ff75 	bl	8002334 <__ledf2>
 800044a:	2800      	cmp	r0, #0
 800044c:	db01      	blt.n	8000452 <__aeabi_dcmplt+0xe>
 800044e:	2000      	movs	r0, #0
 8000450:	bd10      	pop	{r4, pc}
 8000452:	2001      	movs	r0, #1
 8000454:	bd10      	pop	{r4, pc}
 8000456:	46c0      	nop			; (mov r8, r8)

08000458 <__aeabi_dcmple>:
 8000458:	b510      	push	{r4, lr}
 800045a:	f001 ff6b 	bl	8002334 <__ledf2>
 800045e:	2800      	cmp	r0, #0
 8000460:	dd01      	ble.n	8000466 <__aeabi_dcmple+0xe>
 8000462:	2000      	movs	r0, #0
 8000464:	bd10      	pop	{r4, pc}
 8000466:	2001      	movs	r0, #1
 8000468:	bd10      	pop	{r4, pc}
 800046a:	46c0      	nop			; (mov r8, r8)

0800046c <__aeabi_dcmpgt>:
 800046c:	b510      	push	{r4, lr}
 800046e:	f001 fefd 	bl	800226c <__gedf2>
 8000472:	2800      	cmp	r0, #0
 8000474:	dc01      	bgt.n	800047a <__aeabi_dcmpgt+0xe>
 8000476:	2000      	movs	r0, #0
 8000478:	bd10      	pop	{r4, pc}
 800047a:	2001      	movs	r0, #1
 800047c:	bd10      	pop	{r4, pc}
 800047e:	46c0      	nop			; (mov r8, r8)

08000480 <__aeabi_dcmpge>:
 8000480:	b510      	push	{r4, lr}
 8000482:	f001 fef3 	bl	800226c <__gedf2>
 8000486:	2800      	cmp	r0, #0
 8000488:	da01      	bge.n	800048e <__aeabi_dcmpge+0xe>
 800048a:	2000      	movs	r0, #0
 800048c:	bd10      	pop	{r4, pc}
 800048e:	2001      	movs	r0, #1
 8000490:	bd10      	pop	{r4, pc}
 8000492:	46c0      	nop			; (mov r8, r8)

08000494 <__aeabi_cfrcmple>:
 8000494:	4684      	mov	ip, r0
 8000496:	1c08      	adds	r0, r1, #0
 8000498:	4661      	mov	r1, ip
 800049a:	e7ff      	b.n	800049c <__aeabi_cfcmpeq>

0800049c <__aeabi_cfcmpeq>:
 800049c:	b51f      	push	{r0, r1, r2, r3, r4, lr}
 800049e:	f000 fcb3 	bl	8000e08 <__lesf2>
 80004a2:	2800      	cmp	r0, #0
 80004a4:	d401      	bmi.n	80004aa <__aeabi_cfcmpeq+0xe>
 80004a6:	2100      	movs	r1, #0
 80004a8:	42c8      	cmn	r0, r1
 80004aa:	bd1f      	pop	{r0, r1, r2, r3, r4, pc}

080004ac <__aeabi_fcmpeq>:
 80004ac:	b510      	push	{r4, lr}
 80004ae:	f000 fc45 	bl	8000d3c <__eqsf2>
 80004b2:	4240      	negs	r0, r0
 80004b4:	3001      	adds	r0, #1
 80004b6:	bd10      	pop	{r4, pc}

080004b8 <__aeabi_fcmplt>:
 80004b8:	b510      	push	{r4, lr}
 80004ba:	f000 fca5 	bl	8000e08 <__lesf2>
 80004be:	2800      	cmp	r0, #0
 80004c0:	db01      	blt.n	80004c6 <__aeabi_fcmplt+0xe>
 80004c2:	2000      	movs	r0, #0
 80004c4:	bd10      	pop	{r4, pc}
 80004c6:	2001      	movs	r0, #1
 80004c8:	bd10      	pop	{r4, pc}
 80004ca:	46c0      	nop			; (mov r8, r8)

080004cc <__aeabi_fcmple>:
 80004cc:	b510      	push	{r4, lr}
 80004ce:	f000 fc9b 	bl	8000e08 <__lesf2>
 80004d2:	2800      	cmp	r0, #0
 80004d4:	dd01      	ble.n	80004da <__aeabi_fcmple+0xe>
 80004d6:	2000      	movs	r0, #0
 80004d8:	bd10      	pop	{r4, pc}
 80004da:	2001      	movs	r0, #1
 80004dc:	bd10      	pop	{r4, pc}
 80004de:	46c0      	nop			; (mov r8, r8)

080004e0 <__aeabi_fcmpgt>:
 80004e0:	b510      	push	{r4, lr}
 80004e2:	f000 fc51 	bl	8000d88 <__gesf2>
 80004e6:	2800      	cmp	r0, #0
 80004e8:	dc01      	bgt.n	80004ee <__aeabi_fcmpgt+0xe>
 80004ea:	2000      	movs	r0, #0
 80004ec:	bd10      	pop	{r4, pc}
 80004ee:	2001      	movs	r0, #1
 80004f0:	bd10      	pop	{r4, pc}
 80004f2:	46c0      	nop			; (mov r8, r8)

080004f4 <__aeabi_fcmpge>:
 80004f4:	b510      	push	{r4, lr}
 80004f6:	f000 fc47 	bl	8000d88 <__gesf2>
 80004fa:	2800      	cmp	r0, #0
 80004fc:	da01      	bge.n	8000502 <__aeabi_fcmpge+0xe>
 80004fe:	2000      	movs	r0, #0
 8000500:	bd10      	pop	{r4, pc}
 8000502:	2001      	movs	r0, #1
 8000504:	bd10      	pop	{r4, pc}
 8000506:	46c0      	nop			; (mov r8, r8)

08000508 <__aeabi_uldivmod>:
 8000508:	2b00      	cmp	r3, #0
 800050a:	d111      	bne.n	8000530 <__aeabi_uldivmod+0x28>
 800050c:	2a00      	cmp	r2, #0
 800050e:	d10f      	bne.n	8000530 <__aeabi_uldivmod+0x28>
 8000510:	2900      	cmp	r1, #0
 8000512:	d100      	bne.n	8000516 <__aeabi_uldivmod+0xe>
 8000514:	2800      	cmp	r0, #0
 8000516:	d002      	beq.n	800051e <__aeabi_uldivmod+0x16>
 8000518:	2100      	movs	r1, #0
 800051a:	43c9      	mvns	r1, r1
 800051c:	1c08      	adds	r0, r1, #0
 800051e:	b407      	push	{r0, r1, r2}
 8000520:	4802      	ldr	r0, [pc, #8]	; (800052c <__aeabi_uldivmod+0x24>)
 8000522:	a102      	add	r1, pc, #8	; (adr r1, 800052c <__aeabi_uldivmod+0x24>)
 8000524:	1840      	adds	r0, r0, r1
 8000526:	9002      	str	r0, [sp, #8]
 8000528:	bd03      	pop	{r0, r1, pc}
 800052a:	46c0      	nop			; (mov r8, r8)
 800052c:	fffffee9 	.word	0xfffffee9
 8000530:	b403      	push	{r0, r1}
 8000532:	4668      	mov	r0, sp
 8000534:	b501      	push	{r0, lr}
 8000536:	9802      	ldr	r0, [sp, #8]
 8000538:	f000 f866 	bl	8000608 <__udivmoddi4>
 800053c:	9b01      	ldr	r3, [sp, #4]
 800053e:	469e      	mov	lr, r3
 8000540:	b002      	add	sp, #8
 8000542:	bc0c      	pop	{r2, r3}
 8000544:	4770      	bx	lr
 8000546:	46c0      	nop			; (mov r8, r8)

08000548 <__aeabi_lmul>:
 8000548:	b5f0      	push	{r4, r5, r6, r7, lr}
 800054a:	46ce      	mov	lr, r9
 800054c:	4647      	mov	r7, r8
 800054e:	0415      	lsls	r5, r2, #16
 8000550:	0c2d      	lsrs	r5, r5, #16
 8000552:	002e      	movs	r6, r5
 8000554:	b580      	push	{r7, lr}
 8000556:	0407      	lsls	r7, r0, #16
 8000558:	0c14      	lsrs	r4, r2, #16
 800055a:	0c3f      	lsrs	r7, r7, #16
 800055c:	4699      	mov	r9, r3
 800055e:	0c03      	lsrs	r3, r0, #16
 8000560:	437e      	muls	r6, r7
 8000562:	435d      	muls	r5, r3
 8000564:	4367      	muls	r7, r4
 8000566:	4363      	muls	r3, r4
 8000568:	197f      	adds	r7, r7, r5
 800056a:	0c34      	lsrs	r4, r6, #16
 800056c:	19e4      	adds	r4, r4, r7
 800056e:	469c      	mov	ip, r3
 8000570:	42a5      	cmp	r5, r4
 8000572:	d903      	bls.n	800057c <__aeabi_lmul+0x34>
 8000574:	2380      	movs	r3, #128	; 0x80
 8000576:	025b      	lsls	r3, r3, #9
 8000578:	4698      	mov	r8, r3
 800057a:	44c4      	add	ip, r8
 800057c:	464b      	mov	r3, r9
 800057e:	4351      	muls	r1, r2
 8000580:	4343      	muls	r3, r0
 8000582:	0436      	lsls	r6, r6, #16
 8000584:	0c36      	lsrs	r6, r6, #16
 8000586:	0c25      	lsrs	r5, r4, #16
 8000588:	0424      	lsls	r4, r4, #16
 800058a:	4465      	add	r5, ip
 800058c:	19a4      	adds	r4, r4, r6
 800058e:	1859      	adds	r1, r3, r1
 8000590:	1949      	adds	r1, r1, r5
 8000592:	0020      	movs	r0, r4
 8000594:	bc0c      	pop	{r2, r3}
 8000596:	4690      	mov	r8, r2
 8000598:	4699      	mov	r9, r3
 800059a:	bdf0      	pop	{r4, r5, r6, r7, pc}

0800059c <__aeabi_f2uiz>:
 800059c:	219e      	movs	r1, #158	; 0x9e
 800059e:	b510      	push	{r4, lr}
 80005a0:	05c9      	lsls	r1, r1, #23
 80005a2:	1c04      	adds	r4, r0, #0
 80005a4:	f7ff ffa6 	bl	80004f4 <__aeabi_fcmpge>
 80005a8:	2800      	cmp	r0, #0
 80005aa:	d103      	bne.n	80005b4 <__aeabi_f2uiz+0x18>
 80005ac:	1c20      	adds	r0, r4, #0
 80005ae:	f000 ff29 	bl	8001404 <__aeabi_f2iz>
 80005b2:	bd10      	pop	{r4, pc}
 80005b4:	219e      	movs	r1, #158	; 0x9e
 80005b6:	1c20      	adds	r0, r4, #0
 80005b8:	05c9      	lsls	r1, r1, #23
 80005ba:	f000 fd87 	bl	80010cc <__aeabi_fsub>
 80005be:	f000 ff21 	bl	8001404 <__aeabi_f2iz>
 80005c2:	2380      	movs	r3, #128	; 0x80
 80005c4:	061b      	lsls	r3, r3, #24
 80005c6:	469c      	mov	ip, r3
 80005c8:	4460      	add	r0, ip
 80005ca:	e7f2      	b.n	80005b2 <__aeabi_f2uiz+0x16>

080005cc <__aeabi_d2uiz>:
 80005cc:	b570      	push	{r4, r5, r6, lr}
 80005ce:	2200      	movs	r2, #0
 80005d0:	4b0c      	ldr	r3, [pc, #48]	; (8000604 <__aeabi_d2uiz+0x38>)
 80005d2:	0004      	movs	r4, r0
 80005d4:	000d      	movs	r5, r1
 80005d6:	f7ff ff53 	bl	8000480 <__aeabi_dcmpge>
 80005da:	2800      	cmp	r0, #0
 80005dc:	d104      	bne.n	80005e8 <__aeabi_d2uiz+0x1c>
 80005de:	0020      	movs	r0, r4
 80005e0:	0029      	movs	r1, r5
 80005e2:	f002 fc9f 	bl	8002f24 <__aeabi_d2iz>
 80005e6:	bd70      	pop	{r4, r5, r6, pc}
 80005e8:	4b06      	ldr	r3, [pc, #24]	; (8000604 <__aeabi_d2uiz+0x38>)
 80005ea:	2200      	movs	r2, #0
 80005ec:	0020      	movs	r0, r4
 80005ee:	0029      	movs	r1, r5
 80005f0:	f002 f982 	bl	80028f8 <__aeabi_dsub>
 80005f4:	f002 fc96 	bl	8002f24 <__aeabi_d2iz>
 80005f8:	2380      	movs	r3, #128	; 0x80
 80005fa:	061b      	lsls	r3, r3, #24
 80005fc:	469c      	mov	ip, r3
 80005fe:	4460      	add	r0, ip
 8000600:	e7f1      	b.n	80005e6 <__aeabi_d2uiz+0x1a>
 8000602:	46c0      	nop			; (mov r8, r8)
 8000604:	41e00000 	.word	0x41e00000

08000608 <__udivmoddi4>:
 8000608:	b5f0      	push	{r4, r5, r6, r7, lr}
 800060a:	4657      	mov	r7, sl
 800060c:	464e      	mov	r6, r9
 800060e:	4645      	mov	r5, r8
 8000610:	46de      	mov	lr, fp
 8000612:	b5e0      	push	{r5, r6, r7, lr}
 8000614:	0004      	movs	r4, r0
 8000616:	b083      	sub	sp, #12
 8000618:	000d      	movs	r5, r1
 800061a:	4692      	mov	sl, r2
 800061c:	4699      	mov	r9, r3
 800061e:	428b      	cmp	r3, r1
 8000620:	d82f      	bhi.n	8000682 <__udivmoddi4+0x7a>
 8000622:	d02c      	beq.n	800067e <__udivmoddi4+0x76>
 8000624:	4649      	mov	r1, r9
 8000626:	4650      	mov	r0, sl
 8000628:	f002 fdd2 	bl	80031d0 <__clzdi2>
 800062c:	0029      	movs	r1, r5
 800062e:	0006      	movs	r6, r0
 8000630:	0020      	movs	r0, r4
 8000632:	f002 fdcd 	bl	80031d0 <__clzdi2>
 8000636:	1a33      	subs	r3, r6, r0
 8000638:	4698      	mov	r8, r3
 800063a:	3b20      	subs	r3, #32
 800063c:	469b      	mov	fp, r3
 800063e:	d500      	bpl.n	8000642 <__udivmoddi4+0x3a>
 8000640:	e074      	b.n	800072c <__udivmoddi4+0x124>
 8000642:	4653      	mov	r3, sl
 8000644:	465a      	mov	r2, fp
 8000646:	4093      	lsls	r3, r2
 8000648:	001f      	movs	r7, r3
 800064a:	4653      	mov	r3, sl
 800064c:	4642      	mov	r2, r8
 800064e:	4093      	lsls	r3, r2
 8000650:	001e      	movs	r6, r3
 8000652:	42af      	cmp	r7, r5
 8000654:	d829      	bhi.n	80006aa <__udivmoddi4+0xa2>
 8000656:	d026      	beq.n	80006a6 <__udivmoddi4+0x9e>
 8000658:	465b      	mov	r3, fp
 800065a:	1ba4      	subs	r4, r4, r6
 800065c:	41bd      	sbcs	r5, r7
 800065e:	2b00      	cmp	r3, #0
 8000660:	da00      	bge.n	8000664 <__udivmoddi4+0x5c>
 8000662:	e079      	b.n	8000758 <__udivmoddi4+0x150>
 8000664:	2200      	movs	r2, #0
 8000666:	2300      	movs	r3, #0
 8000668:	9200      	str	r2, [sp, #0]
 800066a:	9301      	str	r3, [sp, #4]
 800066c:	2301      	movs	r3, #1
 800066e:	465a      	mov	r2, fp
 8000670:	4093      	lsls	r3, r2
 8000672:	9301      	str	r3, [sp, #4]
 8000674:	2301      	movs	r3, #1
 8000676:	4642      	mov	r2, r8
 8000678:	4093      	lsls	r3, r2
 800067a:	9300      	str	r3, [sp, #0]
 800067c:	e019      	b.n	80006b2 <__udivmoddi4+0xaa>
 800067e:	4282      	cmp	r2, r0
 8000680:	d9d0      	bls.n	8000624 <__udivmoddi4+0x1c>
 8000682:	2200      	movs	r2, #0
 8000684:	2300      	movs	r3, #0
 8000686:	9200      	str	r2, [sp, #0]
 8000688:	9301      	str	r3, [sp, #4]
 800068a:	9b0c      	ldr	r3, [sp, #48]	; 0x30
 800068c:	2b00      	cmp	r3, #0
 800068e:	d001      	beq.n	8000694 <__udivmoddi4+0x8c>
 8000690:	601c      	str	r4, [r3, #0]
 8000692:	605d      	str	r5, [r3, #4]
 8000694:	9800      	ldr	r0, [sp, #0]
 8000696:	9901      	ldr	r1, [sp, #4]
 8000698:	b003      	add	sp, #12
 800069a:	bc3c      	pop	{r2, r3, r4, r5}
 800069c:	4690      	mov	r8, r2
 800069e:	4699      	mov	r9, r3
 80006a0:	46a2      	mov	sl, r4
 80006a2:	46ab      	mov	fp, r5
 80006a4:	bdf0      	pop	{r4, r5, r6, r7, pc}
 80006a6:	42a3      	cmp	r3, r4
 80006a8:	d9d6      	bls.n	8000658 <__udivmoddi4+0x50>
 80006aa:	2200      	movs	r2, #0
 80006ac:	2300      	movs	r3, #0
 80006ae:	9200      	str	r2, [sp, #0]
 80006b0:	9301      	str	r3, [sp, #4]
 80006b2:	4643      	mov	r3, r8
 80006b4:	2b00      	cmp	r3, #0
 80006b6:	d0e8      	beq.n	800068a <__udivmoddi4+0x82>
 80006b8:	07fb      	lsls	r3, r7, #31
 80006ba:	0872      	lsrs	r2, r6, #1
 80006bc:	431a      	orrs	r2, r3
 80006be:	4646      	mov	r6, r8
 80006c0:	087b      	lsrs	r3, r7, #1
 80006c2:	e00e      	b.n	80006e2 <__udivmoddi4+0xda>
 80006c4:	42ab      	cmp	r3, r5
 80006c6:	d101      	bne.n	80006cc <__udivmoddi4+0xc4>
 80006c8:	42a2      	cmp	r2, r4
 80006ca:	d80c      	bhi.n	80006e6 <__udivmoddi4+0xde>
 80006cc:	1aa4      	subs	r4, r4, r2
 80006ce:	419d      	sbcs	r5, r3
 80006d0:	2001      	movs	r0, #1
 80006d2:	1924      	adds	r4, r4, r4
 80006d4:	416d      	adcs	r5, r5
 80006d6:	2100      	movs	r1, #0
 80006d8:	3e01      	subs	r6, #1
 80006da:	1824      	adds	r4, r4, r0
 80006dc:	414d      	adcs	r5, r1
 80006de:	2e00      	cmp	r6, #0
 80006e0:	d006      	beq.n	80006f0 <__udivmoddi4+0xe8>
 80006e2:	42ab      	cmp	r3, r5
 80006e4:	d9ee      	bls.n	80006c4 <__udivmoddi4+0xbc>
 80006e6:	3e01      	subs	r6, #1
 80006e8:	1924      	adds	r4, r4, r4
 80006ea:	416d      	adcs	r5, r5
 80006ec:	2e00      	cmp	r6, #0
 80006ee:	d1f8      	bne.n	80006e2 <__udivmoddi4+0xda>
 80006f0:	465b      	mov	r3, fp
 80006f2:	9800      	ldr	r0, [sp, #0]
 80006f4:	9901      	ldr	r1, [sp, #4]
 80006f6:	1900      	adds	r0, r0, r4
 80006f8:	4169      	adcs	r1, r5
 80006fa:	2b00      	cmp	r3, #0
 80006fc:	db22      	blt.n	8000744 <__udivmoddi4+0x13c>
 80006fe:	002b      	movs	r3, r5
 8000700:	465a      	mov	r2, fp
 8000702:	40d3      	lsrs	r3, r2
 8000704:	002a      	movs	r2, r5
 8000706:	4644      	mov	r4, r8
 8000708:	40e2      	lsrs	r2, r4
 800070a:	001c      	movs	r4, r3
 800070c:	465b      	mov	r3, fp
 800070e:	0015      	movs	r5, r2
 8000710:	2b00      	cmp	r3, #0
 8000712:	db2c      	blt.n	800076e <__udivmoddi4+0x166>
 8000714:	0026      	movs	r6, r4
 8000716:	409e      	lsls	r6, r3
 8000718:	0033      	movs	r3, r6
 800071a:	0026      	movs	r6, r4
 800071c:	4647      	mov	r7, r8
 800071e:	40be      	lsls	r6, r7
 8000720:	0032      	movs	r2, r6
 8000722:	1a80      	subs	r0, r0, r2
 8000724:	4199      	sbcs	r1, r3
 8000726:	9000      	str	r0, [sp, #0]
 8000728:	9101      	str	r1, [sp, #4]
 800072a:	e7ae      	b.n	800068a <__udivmoddi4+0x82>
 800072c:	4642      	mov	r2, r8
 800072e:	2320      	movs	r3, #32
 8000730:	1a9b      	subs	r3, r3, r2
 8000732:	4652      	mov	r2, sl
 8000734:	40da      	lsrs	r2, r3
 8000736:	4641      	mov	r1, r8
 8000738:	0013      	movs	r3, r2
 800073a:	464a      	mov	r2, r9
 800073c:	408a      	lsls	r2, r1
 800073e:	0017      	movs	r7, r2
 8000740:	431f      	orrs	r7, r3
 8000742:	e782      	b.n	800064a <__udivmoddi4+0x42>
 8000744:	4642      	mov	r2, r8
 8000746:	2320      	movs	r3, #32
 8000748:	1a9b      	subs	r3, r3, r2
 800074a:	002a      	movs	r2, r5
 800074c:	4646      	mov	r6, r8
 800074e:	409a      	lsls	r2, r3
 8000750:	0023      	movs	r3, r4
 8000752:	40f3      	lsrs	r3, r6
 8000754:	4313      	orrs	r3, r2
 8000756:	e7d5      	b.n	8000704 <__udivmoddi4+0xfc>
 8000758:	4642      	mov	r2, r8
 800075a:	2320      	movs	r3, #32
 800075c:	2100      	movs	r1, #0
 800075e:	1a9b      	subs	r3, r3, r2
 8000760:	2200      	movs	r2, #0
 8000762:	9100      	str	r1, [sp, #0]
 8000764:	9201      	str	r2, [sp, #4]
 8000766:	2201      	movs	r2, #1
 8000768:	40da      	lsrs	r2, r3
 800076a:	9201      	str	r2, [sp, #4]
 800076c:	e782      	b.n	8000674 <__udivmoddi4+0x6c>
 800076e:	4642      	mov	r2, r8
 8000770:	2320      	movs	r3, #32
 8000772:	0026      	movs	r6, r4
 8000774:	1a9b      	subs	r3, r3, r2
 8000776:	40de      	lsrs	r6, r3
 8000778:	002f      	movs	r7, r5
 800077a:	46b4      	mov	ip, r6
 800077c:	4097      	lsls	r7, r2
 800077e:	4666      	mov	r6, ip
 8000780:	003b      	movs	r3, r7
 8000782:	4333      	orrs	r3, r6
 8000784:	e7c9      	b.n	800071a <__udivmoddi4+0x112>
 8000786:	46c0      	nop			; (mov r8, r8)

08000788 <__aeabi_fadd>:
 8000788:	b5f0      	push	{r4, r5, r6, r7, lr}
 800078a:	46c6      	mov	lr, r8
 800078c:	024e      	lsls	r6, r1, #9
 800078e:	0247      	lsls	r7, r0, #9
 8000790:	0a76      	lsrs	r6, r6, #9
 8000792:	0a7b      	lsrs	r3, r7, #9
 8000794:	0044      	lsls	r4, r0, #1
 8000796:	0fc5      	lsrs	r5, r0, #31
 8000798:	00f7      	lsls	r7, r6, #3
 800079a:	0048      	lsls	r0, r1, #1
 800079c:	4698      	mov	r8, r3
 800079e:	b500      	push	{lr}
 80007a0:	0e24      	lsrs	r4, r4, #24
 80007a2:	002a      	movs	r2, r5
 80007a4:	00db      	lsls	r3, r3, #3
 80007a6:	0e00      	lsrs	r0, r0, #24
 80007a8:	0fc9      	lsrs	r1, r1, #31
 80007aa:	46bc      	mov	ip, r7
 80007ac:	428d      	cmp	r5, r1
 80007ae:	d067      	beq.n	8000880 <__aeabi_fadd+0xf8>
 80007b0:	1a22      	subs	r2, r4, r0
 80007b2:	2a00      	cmp	r2, #0
 80007b4:	dc00      	bgt.n	80007b8 <__aeabi_fadd+0x30>
 80007b6:	e0a5      	b.n	8000904 <__aeabi_fadd+0x17c>
 80007b8:	2800      	cmp	r0, #0
 80007ba:	d13a      	bne.n	8000832 <__aeabi_fadd+0xaa>
 80007bc:	2f00      	cmp	r7, #0
 80007be:	d100      	bne.n	80007c2 <__aeabi_fadd+0x3a>
 80007c0:	e093      	b.n	80008ea <__aeabi_fadd+0x162>
 80007c2:	1e51      	subs	r1, r2, #1
 80007c4:	2900      	cmp	r1, #0
 80007c6:	d000      	beq.n	80007ca <__aeabi_fadd+0x42>
 80007c8:	e0bc      	b.n	8000944 <__aeabi_fadd+0x1bc>
 80007ca:	2401      	movs	r4, #1
 80007cc:	1bdb      	subs	r3, r3, r7
 80007ce:	015a      	lsls	r2, r3, #5
 80007d0:	d546      	bpl.n	8000860 <__aeabi_fadd+0xd8>
 80007d2:	019b      	lsls	r3, r3, #6
 80007d4:	099e      	lsrs	r6, r3, #6
 80007d6:	0030      	movs	r0, r6
 80007d8:	f002 fcdc 	bl	8003194 <__clzsi2>
 80007dc:	3805      	subs	r0, #5
 80007de:	4086      	lsls	r6, r0
 80007e0:	4284      	cmp	r4, r0
 80007e2:	dd00      	ble.n	80007e6 <__aeabi_fadd+0x5e>
 80007e4:	e09d      	b.n	8000922 <__aeabi_fadd+0x19a>
 80007e6:	1b04      	subs	r4, r0, r4
 80007e8:	0032      	movs	r2, r6
 80007ea:	2020      	movs	r0, #32
 80007ec:	3401      	adds	r4, #1
 80007ee:	40e2      	lsrs	r2, r4
 80007f0:	1b04      	subs	r4, r0, r4
 80007f2:	40a6      	lsls	r6, r4
 80007f4:	0033      	movs	r3, r6
 80007f6:	1e5e      	subs	r6, r3, #1
 80007f8:	41b3      	sbcs	r3, r6
 80007fa:	2400      	movs	r4, #0
 80007fc:	4313      	orrs	r3, r2
 80007fe:	075a      	lsls	r2, r3, #29
 8000800:	d004      	beq.n	800080c <__aeabi_fadd+0x84>
 8000802:	220f      	movs	r2, #15
 8000804:	401a      	ands	r2, r3
 8000806:	2a04      	cmp	r2, #4
 8000808:	d000      	beq.n	800080c <__aeabi_fadd+0x84>
 800080a:	3304      	adds	r3, #4
 800080c:	015a      	lsls	r2, r3, #5
 800080e:	d529      	bpl.n	8000864 <__aeabi_fadd+0xdc>
 8000810:	3401      	adds	r4, #1
 8000812:	2cff      	cmp	r4, #255	; 0xff
 8000814:	d100      	bne.n	8000818 <__aeabi_fadd+0x90>
 8000816:	e081      	b.n	800091c <__aeabi_fadd+0x194>
 8000818:	002a      	movs	r2, r5
 800081a:	019b      	lsls	r3, r3, #6
 800081c:	0a5b      	lsrs	r3, r3, #9
 800081e:	b2e4      	uxtb	r4, r4
 8000820:	025b      	lsls	r3, r3, #9
 8000822:	05e4      	lsls	r4, r4, #23
 8000824:	0a58      	lsrs	r0, r3, #9
 8000826:	07d2      	lsls	r2, r2, #31
 8000828:	4320      	orrs	r0, r4
 800082a:	4310      	orrs	r0, r2
 800082c:	bc04      	pop	{r2}
 800082e:	4690      	mov	r8, r2
 8000830:	bdf0      	pop	{r4, r5, r6, r7, pc}
 8000832:	2cff      	cmp	r4, #255	; 0xff
 8000834:	d0e3      	beq.n	80007fe <__aeabi_fadd+0x76>
 8000836:	2180      	movs	r1, #128	; 0x80
 8000838:	0038      	movs	r0, r7
 800083a:	04c9      	lsls	r1, r1, #19
 800083c:	4308      	orrs	r0, r1
 800083e:	4684      	mov	ip, r0
 8000840:	2a1b      	cmp	r2, #27
 8000842:	dd00      	ble.n	8000846 <__aeabi_fadd+0xbe>
 8000844:	e082      	b.n	800094c <__aeabi_fadd+0x1c4>
 8000846:	2020      	movs	r0, #32
 8000848:	4661      	mov	r1, ip
 800084a:	40d1      	lsrs	r1, r2
 800084c:	1a82      	subs	r2, r0, r2
 800084e:	4660      	mov	r0, ip
 8000850:	4090      	lsls	r0, r2
 8000852:	0002      	movs	r2, r0
 8000854:	1e50      	subs	r0, r2, #1
 8000856:	4182      	sbcs	r2, r0
 8000858:	430a      	orrs	r2, r1
 800085a:	1a9b      	subs	r3, r3, r2
 800085c:	015a      	lsls	r2, r3, #5
 800085e:	d4b8      	bmi.n	80007d2 <__aeabi_fadd+0x4a>
 8000860:	075a      	lsls	r2, r3, #29
 8000862:	d1ce      	bne.n	8000802 <__aeabi_fadd+0x7a>
 8000864:	08de      	lsrs	r6, r3, #3
 8000866:	002a      	movs	r2, r5
 8000868:	2cff      	cmp	r4, #255	; 0xff
 800086a:	d13a      	bne.n	80008e2 <__aeabi_fadd+0x15a>
 800086c:	2e00      	cmp	r6, #0
 800086e:	d100      	bne.n	8000872 <__aeabi_fadd+0xea>
 8000870:	e0ae      	b.n	80009d0 <__aeabi_fadd+0x248>
 8000872:	2380      	movs	r3, #128	; 0x80
 8000874:	03db      	lsls	r3, r3, #15
 8000876:	4333      	orrs	r3, r6
 8000878:	025b      	lsls	r3, r3, #9
 800087a:	0a5b      	lsrs	r3, r3, #9
 800087c:	24ff      	movs	r4, #255	; 0xff
 800087e:	e7cf      	b.n	8000820 <__aeabi_fadd+0x98>
 8000880:	1a21      	subs	r1, r4, r0
 8000882:	2900      	cmp	r1, #0
 8000884:	dd52      	ble.n	800092c <__aeabi_fadd+0x1a4>
 8000886:	2800      	cmp	r0, #0
 8000888:	d031      	beq.n	80008ee <__aeabi_fadd+0x166>
 800088a:	2cff      	cmp	r4, #255	; 0xff
 800088c:	d0b7      	beq.n	80007fe <__aeabi_fadd+0x76>
 800088e:	2080      	movs	r0, #128	; 0x80
 8000890:	003e      	movs	r6, r7
 8000892:	04c0      	lsls	r0, r0, #19
 8000894:	4306      	orrs	r6, r0
 8000896:	46b4      	mov	ip, r6
 8000898:	291b      	cmp	r1, #27
 800089a:	dd00      	ble.n	800089e <__aeabi_fadd+0x116>
 800089c:	e0aa      	b.n	80009f4 <__aeabi_fadd+0x26c>
 800089e:	2620      	movs	r6, #32
 80008a0:	4660      	mov	r0, ip
 80008a2:	40c8      	lsrs	r0, r1
 80008a4:	1a71      	subs	r1, r6, r1
 80008a6:	4666      	mov	r6, ip
 80008a8:	408e      	lsls	r6, r1
 80008aa:	0031      	movs	r1, r6
 80008ac:	1e4e      	subs	r6, r1, #1
 80008ae:	41b1      	sbcs	r1, r6
 80008b0:	4301      	orrs	r1, r0
 80008b2:	185b      	adds	r3, r3, r1
 80008b4:	0159      	lsls	r1, r3, #5
 80008b6:	d5d3      	bpl.n	8000860 <__aeabi_fadd+0xd8>
 80008b8:	3401      	adds	r4, #1
 80008ba:	2cff      	cmp	r4, #255	; 0xff
 80008bc:	d100      	bne.n	80008c0 <__aeabi_fadd+0x138>
 80008be:	e087      	b.n	80009d0 <__aeabi_fadd+0x248>
 80008c0:	2201      	movs	r2, #1
 80008c2:	4978      	ldr	r1, [pc, #480]	; (8000aa4 <__aeabi_fadd+0x31c>)
 80008c4:	401a      	ands	r2, r3
 80008c6:	085b      	lsrs	r3, r3, #1
 80008c8:	400b      	ands	r3, r1
 80008ca:	4313      	orrs	r3, r2
 80008cc:	e797      	b.n	80007fe <__aeabi_fadd+0x76>
 80008ce:	2c00      	cmp	r4, #0
 80008d0:	d000      	beq.n	80008d4 <__aeabi_fadd+0x14c>
 80008d2:	e0a7      	b.n	8000a24 <__aeabi_fadd+0x29c>
 80008d4:	2b00      	cmp	r3, #0
 80008d6:	d000      	beq.n	80008da <__aeabi_fadd+0x152>
 80008d8:	e0b6      	b.n	8000a48 <__aeabi_fadd+0x2c0>
 80008da:	1e3b      	subs	r3, r7, #0
 80008dc:	d162      	bne.n	80009a4 <__aeabi_fadd+0x21c>
 80008de:	2600      	movs	r6, #0
 80008e0:	2200      	movs	r2, #0
 80008e2:	0273      	lsls	r3, r6, #9
 80008e4:	0a5b      	lsrs	r3, r3, #9
 80008e6:	b2e4      	uxtb	r4, r4
 80008e8:	e79a      	b.n	8000820 <__aeabi_fadd+0x98>
 80008ea:	0014      	movs	r4, r2
 80008ec:	e787      	b.n	80007fe <__aeabi_fadd+0x76>
 80008ee:	2f00      	cmp	r7, #0
 80008f0:	d04d      	beq.n	800098e <__aeabi_fadd+0x206>
 80008f2:	1e48      	subs	r0, r1, #1
 80008f4:	2800      	cmp	r0, #0
 80008f6:	d157      	bne.n	80009a8 <__aeabi_fadd+0x220>
 80008f8:	4463      	add	r3, ip
 80008fa:	2401      	movs	r4, #1
 80008fc:	015a      	lsls	r2, r3, #5
 80008fe:	d5af      	bpl.n	8000860 <__aeabi_fadd+0xd8>
 8000900:	2402      	movs	r4, #2
 8000902:	e7dd      	b.n	80008c0 <__aeabi_fadd+0x138>
 8000904:	2a00      	cmp	r2, #0
 8000906:	d124      	bne.n	8000952 <__aeabi_fadd+0x1ca>
 8000908:	1c62      	adds	r2, r4, #1
 800090a:	b2d2      	uxtb	r2, r2
 800090c:	2a01      	cmp	r2, #1
 800090e:	ddde      	ble.n	80008ce <__aeabi_fadd+0x146>
 8000910:	1bde      	subs	r6, r3, r7
 8000912:	0172      	lsls	r2, r6, #5
 8000914:	d535      	bpl.n	8000982 <__aeabi_fadd+0x1fa>
 8000916:	1afe      	subs	r6, r7, r3
 8000918:	000d      	movs	r5, r1
 800091a:	e75c      	b.n	80007d6 <__aeabi_fadd+0x4e>
 800091c:	002a      	movs	r2, r5
 800091e:	2300      	movs	r3, #0
 8000920:	e77e      	b.n	8000820 <__aeabi_fadd+0x98>
 8000922:	0033      	movs	r3, r6
 8000924:	4a60      	ldr	r2, [pc, #384]	; (8000aa8 <__aeabi_fadd+0x320>)
 8000926:	1a24      	subs	r4, r4, r0
 8000928:	4013      	ands	r3, r2
 800092a:	e768      	b.n	80007fe <__aeabi_fadd+0x76>
 800092c:	2900      	cmp	r1, #0
 800092e:	d163      	bne.n	80009f8 <__aeabi_fadd+0x270>
 8000930:	1c61      	adds	r1, r4, #1
 8000932:	b2c8      	uxtb	r0, r1
 8000934:	2801      	cmp	r0, #1
 8000936:	dd4e      	ble.n	80009d6 <__aeabi_fadd+0x24e>
 8000938:	29ff      	cmp	r1, #255	; 0xff
 800093a:	d049      	beq.n	80009d0 <__aeabi_fadd+0x248>
 800093c:	4463      	add	r3, ip
 800093e:	085b      	lsrs	r3, r3, #1
 8000940:	000c      	movs	r4, r1
 8000942:	e75c      	b.n	80007fe <__aeabi_fadd+0x76>
 8000944:	2aff      	cmp	r2, #255	; 0xff
 8000946:	d041      	beq.n	80009cc <__aeabi_fadd+0x244>
 8000948:	000a      	movs	r2, r1
 800094a:	e779      	b.n	8000840 <__aeabi_fadd+0xb8>
 800094c:	2201      	movs	r2, #1
 800094e:	1a9b      	subs	r3, r3, r2
 8000950:	e784      	b.n	800085c <__aeabi_fadd+0xd4>
 8000952:	2c00      	cmp	r4, #0
 8000954:	d01d      	beq.n	8000992 <__aeabi_fadd+0x20a>
 8000956:	28ff      	cmp	r0, #255	; 0xff
 8000958:	d022      	beq.n	80009a0 <__aeabi_fadd+0x218>
 800095a:	2480      	movs	r4, #128	; 0x80
 800095c:	04e4      	lsls	r4, r4, #19
 800095e:	4252      	negs	r2, r2
 8000960:	4323      	orrs	r3, r4
 8000962:	2a1b      	cmp	r2, #27
 8000964:	dd00      	ble.n	8000968 <__aeabi_fadd+0x1e0>
 8000966:	e08a      	b.n	8000a7e <__aeabi_fadd+0x2f6>
 8000968:	001c      	movs	r4, r3
 800096a:	2520      	movs	r5, #32
 800096c:	40d4      	lsrs	r4, r2
 800096e:	1aaa      	subs	r2, r5, r2
 8000970:	4093      	lsls	r3, r2
 8000972:	1e5a      	subs	r2, r3, #1
 8000974:	4193      	sbcs	r3, r2
 8000976:	4323      	orrs	r3, r4
 8000978:	4662      	mov	r2, ip
 800097a:	0004      	movs	r4, r0
 800097c:	1ad3      	subs	r3, r2, r3
 800097e:	000d      	movs	r5, r1
 8000980:	e725      	b.n	80007ce <__aeabi_fadd+0x46>
 8000982:	2e00      	cmp	r6, #0
 8000984:	d000      	beq.n	8000988 <__aeabi_fadd+0x200>
 8000986:	e726      	b.n	80007d6 <__aeabi_fadd+0x4e>
 8000988:	2200      	movs	r2, #0
 800098a:	2400      	movs	r4, #0
 800098c:	e7a9      	b.n	80008e2 <__aeabi_fadd+0x15a>
 800098e:	000c      	movs	r4, r1
 8000990:	e735      	b.n	80007fe <__aeabi_fadd+0x76>
 8000992:	2b00      	cmp	r3, #0
 8000994:	d04d      	beq.n	8000a32 <__aeabi_fadd+0x2aa>
 8000996:	43d2      	mvns	r2, r2
 8000998:	2a00      	cmp	r2, #0
 800099a:	d0ed      	beq.n	8000978 <__aeabi_fadd+0x1f0>
 800099c:	28ff      	cmp	r0, #255	; 0xff
 800099e:	d1e0      	bne.n	8000962 <__aeabi_fadd+0x1da>
 80009a0:	4663      	mov	r3, ip
 80009a2:	24ff      	movs	r4, #255	; 0xff
 80009a4:	000d      	movs	r5, r1
 80009a6:	e72a      	b.n	80007fe <__aeabi_fadd+0x76>
 80009a8:	29ff      	cmp	r1, #255	; 0xff
 80009aa:	d00f      	beq.n	80009cc <__aeabi_fadd+0x244>
 80009ac:	0001      	movs	r1, r0
 80009ae:	e773      	b.n	8000898 <__aeabi_fadd+0x110>
 80009b0:	2b00      	cmp	r3, #0
 80009b2:	d061      	beq.n	8000a78 <__aeabi_fadd+0x2f0>
 80009b4:	24ff      	movs	r4, #255	; 0xff
 80009b6:	2f00      	cmp	r7, #0
 80009b8:	d100      	bne.n	80009bc <__aeabi_fadd+0x234>
 80009ba:	e720      	b.n	80007fe <__aeabi_fadd+0x76>
 80009bc:	2280      	movs	r2, #128	; 0x80
 80009be:	4641      	mov	r1, r8
 80009c0:	03d2      	lsls	r2, r2, #15
 80009c2:	4211      	tst	r1, r2
 80009c4:	d002      	beq.n	80009cc <__aeabi_fadd+0x244>
 80009c6:	4216      	tst	r6, r2
 80009c8:	d100      	bne.n	80009cc <__aeabi_fadd+0x244>
 80009ca:	003b      	movs	r3, r7
 80009cc:	24ff      	movs	r4, #255	; 0xff
 80009ce:	e716      	b.n	80007fe <__aeabi_fadd+0x76>
 80009d0:	24ff      	movs	r4, #255	; 0xff
 80009d2:	2300      	movs	r3, #0
 80009d4:	e724      	b.n	8000820 <__aeabi_fadd+0x98>
 80009d6:	2c00      	cmp	r4, #0
 80009d8:	d1ea      	bne.n	80009b0 <__aeabi_fadd+0x228>
 80009da:	2b00      	cmp	r3, #0
 80009dc:	d058      	beq.n	8000a90 <__aeabi_fadd+0x308>
 80009de:	2f00      	cmp	r7, #0
 80009e0:	d100      	bne.n	80009e4 <__aeabi_fadd+0x25c>
 80009e2:	e70c      	b.n	80007fe <__aeabi_fadd+0x76>
 80009e4:	4463      	add	r3, ip
 80009e6:	015a      	lsls	r2, r3, #5
 80009e8:	d400      	bmi.n	80009ec <__aeabi_fadd+0x264>
 80009ea:	e739      	b.n	8000860 <__aeabi_fadd+0xd8>
 80009ec:	4a2e      	ldr	r2, [pc, #184]	; (8000aa8 <__aeabi_fadd+0x320>)
 80009ee:	000c      	movs	r4, r1
 80009f0:	4013      	ands	r3, r2
 80009f2:	e704      	b.n	80007fe <__aeabi_fadd+0x76>
 80009f4:	2101      	movs	r1, #1
 80009f6:	e75c      	b.n	80008b2 <__aeabi_fadd+0x12a>
 80009f8:	2c00      	cmp	r4, #0
 80009fa:	d11e      	bne.n	8000a3a <__aeabi_fadd+0x2b2>
 80009fc:	2b00      	cmp	r3, #0
 80009fe:	d040      	beq.n	8000a82 <__aeabi_fadd+0x2fa>
 8000a00:	43c9      	mvns	r1, r1
 8000a02:	2900      	cmp	r1, #0
 8000a04:	d00b      	beq.n	8000a1e <__aeabi_fadd+0x296>
 8000a06:	28ff      	cmp	r0, #255	; 0xff
 8000a08:	d036      	beq.n	8000a78 <__aeabi_fadd+0x2f0>
 8000a0a:	291b      	cmp	r1, #27
 8000a0c:	dc47      	bgt.n	8000a9e <__aeabi_fadd+0x316>
 8000a0e:	001c      	movs	r4, r3
 8000a10:	2620      	movs	r6, #32
 8000a12:	40cc      	lsrs	r4, r1
 8000a14:	1a71      	subs	r1, r6, r1
 8000a16:	408b      	lsls	r3, r1
 8000a18:	1e59      	subs	r1, r3, #1
 8000a1a:	418b      	sbcs	r3, r1
 8000a1c:	4323      	orrs	r3, r4
 8000a1e:	4463      	add	r3, ip
 8000a20:	0004      	movs	r4, r0
 8000a22:	e747      	b.n	80008b4 <__aeabi_fadd+0x12c>
 8000a24:	2b00      	cmp	r3, #0
 8000a26:	d118      	bne.n	8000a5a <__aeabi_fadd+0x2d2>
 8000a28:	1e3b      	subs	r3, r7, #0
 8000a2a:	d02d      	beq.n	8000a88 <__aeabi_fadd+0x300>
 8000a2c:	000d      	movs	r5, r1
 8000a2e:	24ff      	movs	r4, #255	; 0xff
 8000a30:	e6e5      	b.n	80007fe <__aeabi_fadd+0x76>
 8000a32:	003b      	movs	r3, r7
 8000a34:	0004      	movs	r4, r0
 8000a36:	000d      	movs	r5, r1
 8000a38:	e6e1      	b.n	80007fe <__aeabi_fadd+0x76>
 8000a3a:	28ff      	cmp	r0, #255	; 0xff
 8000a3c:	d01c      	beq.n	8000a78 <__aeabi_fadd+0x2f0>
 8000a3e:	2480      	movs	r4, #128	; 0x80
 8000a40:	04e4      	lsls	r4, r4, #19
 8000a42:	4249      	negs	r1, r1
 8000a44:	4323      	orrs	r3, r4
 8000a46:	e7e0      	b.n	8000a0a <__aeabi_fadd+0x282>
 8000a48:	2f00      	cmp	r7, #0
 8000a4a:	d100      	bne.n	8000a4e <__aeabi_fadd+0x2c6>
 8000a4c:	e6d7      	b.n	80007fe <__aeabi_fadd+0x76>
 8000a4e:	1bde      	subs	r6, r3, r7
 8000a50:	0172      	lsls	r2, r6, #5
 8000a52:	d51f      	bpl.n	8000a94 <__aeabi_fadd+0x30c>
 8000a54:	1afb      	subs	r3, r7, r3
 8000a56:	000d      	movs	r5, r1
 8000a58:	e6d1      	b.n	80007fe <__aeabi_fadd+0x76>
 8000a5a:	24ff      	movs	r4, #255	; 0xff
 8000a5c:	2f00      	cmp	r7, #0
 8000a5e:	d100      	bne.n	8000a62 <__aeabi_fadd+0x2da>
 8000a60:	e6cd      	b.n	80007fe <__aeabi_fadd+0x76>
 8000a62:	2280      	movs	r2, #128	; 0x80
 8000a64:	4640      	mov	r0, r8
 8000a66:	03d2      	lsls	r2, r2, #15
 8000a68:	4210      	tst	r0, r2
 8000a6a:	d0af      	beq.n	80009cc <__aeabi_fadd+0x244>
 8000a6c:	4216      	tst	r6, r2
 8000a6e:	d1ad      	bne.n	80009cc <__aeabi_fadd+0x244>
 8000a70:	003b      	movs	r3, r7
 8000a72:	000d      	movs	r5, r1
 8000a74:	24ff      	movs	r4, #255	; 0xff
 8000a76:	e6c2      	b.n	80007fe <__aeabi_fadd+0x76>
 8000a78:	4663      	mov	r3, ip
 8000a7a:	24ff      	movs	r4, #255	; 0xff
 8000a7c:	e6bf      	b.n	80007fe <__aeabi_fadd+0x76>
 8000a7e:	2301      	movs	r3, #1
 8000a80:	e77a      	b.n	8000978 <__aeabi_fadd+0x1f0>
 8000a82:	003b      	movs	r3, r7
 8000a84:	0004      	movs	r4, r0
 8000a86:	e6ba      	b.n	80007fe <__aeabi_fadd+0x76>
 8000a88:	2680      	movs	r6, #128	; 0x80
 8000a8a:	2200      	movs	r2, #0
 8000a8c:	03f6      	lsls	r6, r6, #15
 8000a8e:	e6f0      	b.n	8000872 <__aeabi_fadd+0xea>
 8000a90:	003b      	movs	r3, r7
 8000a92:	e6b4      	b.n	80007fe <__aeabi_fadd+0x76>
 8000a94:	1e33      	subs	r3, r6, #0
 8000a96:	d000      	beq.n	8000a9a <__aeabi_fadd+0x312>
 8000a98:	e6e2      	b.n	8000860 <__aeabi_fadd+0xd8>
 8000a9a:	2200      	movs	r2, #0
 8000a9c:	e721      	b.n	80008e2 <__aeabi_fadd+0x15a>
 8000a9e:	2301      	movs	r3, #1
 8000aa0:	e7bd      	b.n	8000a1e <__aeabi_fadd+0x296>
 8000aa2:	46c0      	nop			; (mov r8, r8)
 8000aa4:	7dffffff 	.word	0x7dffffff
 8000aa8:	fbffffff 	.word	0xfbffffff

08000aac <__aeabi_fdiv>:
 8000aac:	b5f0      	push	{r4, r5, r6, r7, lr}
 8000aae:	4657      	mov	r7, sl
 8000ab0:	464e      	mov	r6, r9
 8000ab2:	46de      	mov	lr, fp
 8000ab4:	4645      	mov	r5, r8
 8000ab6:	b5e0      	push	{r5, r6, r7, lr}
 8000ab8:	0244      	lsls	r4, r0, #9
 8000aba:	0043      	lsls	r3, r0, #1
 8000abc:	0fc6      	lsrs	r6, r0, #31
 8000abe:	b083      	sub	sp, #12
 8000ac0:	1c0f      	adds	r7, r1, #0
 8000ac2:	0a64      	lsrs	r4, r4, #9
 8000ac4:	0e1b      	lsrs	r3, r3, #24
 8000ac6:	46b2      	mov	sl, r6
 8000ac8:	d053      	beq.n	8000b72 <__aeabi_fdiv+0xc6>
 8000aca:	2bff      	cmp	r3, #255	; 0xff
 8000acc:	d027      	beq.n	8000b1e <__aeabi_fdiv+0x72>
 8000ace:	2280      	movs	r2, #128	; 0x80
 8000ad0:	00e4      	lsls	r4, r4, #3
 8000ad2:	04d2      	lsls	r2, r2, #19
 8000ad4:	4314      	orrs	r4, r2
 8000ad6:	227f      	movs	r2, #127	; 0x7f
 8000ad8:	4252      	negs	r2, r2
 8000ada:	4690      	mov	r8, r2
 8000adc:	4498      	add	r8, r3
 8000ade:	2300      	movs	r3, #0
 8000ae0:	4699      	mov	r9, r3
 8000ae2:	469b      	mov	fp, r3
 8000ae4:	027d      	lsls	r5, r7, #9
 8000ae6:	0078      	lsls	r0, r7, #1
 8000ae8:	0ffb      	lsrs	r3, r7, #31
 8000aea:	0a6d      	lsrs	r5, r5, #9
 8000aec:	0e00      	lsrs	r0, r0, #24
 8000aee:	9300      	str	r3, [sp, #0]
 8000af0:	d024      	beq.n	8000b3c <__aeabi_fdiv+0x90>
 8000af2:	28ff      	cmp	r0, #255	; 0xff
 8000af4:	d046      	beq.n	8000b84 <__aeabi_fdiv+0xd8>
 8000af6:	2380      	movs	r3, #128	; 0x80
 8000af8:	2100      	movs	r1, #0
 8000afa:	00ed      	lsls	r5, r5, #3
 8000afc:	04db      	lsls	r3, r3, #19
 8000afe:	431d      	orrs	r5, r3
 8000b00:	387f      	subs	r0, #127	; 0x7f
 8000b02:	4647      	mov	r7, r8
 8000b04:	1a38      	subs	r0, r7, r0
 8000b06:	464f      	mov	r7, r9
 8000b08:	430f      	orrs	r7, r1
 8000b0a:	00bf      	lsls	r7, r7, #2
 8000b0c:	46b9      	mov	r9, r7
 8000b0e:	0033      	movs	r3, r6
 8000b10:	9a00      	ldr	r2, [sp, #0]
 8000b12:	4f87      	ldr	r7, [pc, #540]	; (8000d30 <__aeabi_fdiv+0x284>)
 8000b14:	4053      	eors	r3, r2
 8000b16:	464a      	mov	r2, r9
 8000b18:	58ba      	ldr	r2, [r7, r2]
 8000b1a:	9301      	str	r3, [sp, #4]
 8000b1c:	4697      	mov	pc, r2
 8000b1e:	2c00      	cmp	r4, #0
 8000b20:	d14e      	bne.n	8000bc0 <__aeabi_fdiv+0x114>
 8000b22:	2308      	movs	r3, #8
 8000b24:	4699      	mov	r9, r3
 8000b26:	33f7      	adds	r3, #247	; 0xf7
 8000b28:	4698      	mov	r8, r3
 8000b2a:	3bfd      	subs	r3, #253	; 0xfd
 8000b2c:	469b      	mov	fp, r3
 8000b2e:	027d      	lsls	r5, r7, #9
 8000b30:	0078      	lsls	r0, r7, #1
 8000b32:	0ffb      	lsrs	r3, r7, #31
 8000b34:	0a6d      	lsrs	r5, r5, #9
 8000b36:	0e00      	lsrs	r0, r0, #24
 8000b38:	9300      	str	r3, [sp, #0]
 8000b3a:	d1da      	bne.n	8000af2 <__aeabi_fdiv+0x46>
 8000b3c:	2d00      	cmp	r5, #0
 8000b3e:	d126      	bne.n	8000b8e <__aeabi_fdiv+0xe2>
 8000b40:	2000      	movs	r0, #0
 8000b42:	2101      	movs	r1, #1
 8000b44:	0033      	movs	r3, r6
 8000b46:	9a00      	ldr	r2, [sp, #0]
 8000b48:	4f7a      	ldr	r7, [pc, #488]	; (8000d34 <__aeabi_fdiv+0x288>)
 8000b4a:	4053      	eors	r3, r2
 8000b4c:	4642      	mov	r2, r8
 8000b4e:	1a10      	subs	r0, r2, r0
 8000b50:	464a      	mov	r2, r9
 8000b52:	430a      	orrs	r2, r1
 8000b54:	0092      	lsls	r2, r2, #2
 8000b56:	58ba      	ldr	r2, [r7, r2]
 8000b58:	001d      	movs	r5, r3
 8000b5a:	4697      	mov	pc, r2
 8000b5c:	9b00      	ldr	r3, [sp, #0]
 8000b5e:	002c      	movs	r4, r5
 8000b60:	469a      	mov	sl, r3
 8000b62:	468b      	mov	fp, r1
 8000b64:	465b      	mov	r3, fp
 8000b66:	2b02      	cmp	r3, #2
 8000b68:	d131      	bne.n	8000bce <__aeabi_fdiv+0x122>
 8000b6a:	4653      	mov	r3, sl
 8000b6c:	21ff      	movs	r1, #255	; 0xff
 8000b6e:	2400      	movs	r4, #0
 8000b70:	e038      	b.n	8000be4 <__aeabi_fdiv+0x138>
 8000b72:	2c00      	cmp	r4, #0
 8000b74:	d117      	bne.n	8000ba6 <__aeabi_fdiv+0xfa>
 8000b76:	2304      	movs	r3, #4
 8000b78:	4699      	mov	r9, r3
 8000b7a:	2300      	movs	r3, #0
 8000b7c:	4698      	mov	r8, r3
 8000b7e:	3301      	adds	r3, #1
 8000b80:	469b      	mov	fp, r3
 8000b82:	e7af      	b.n	8000ae4 <__aeabi_fdiv+0x38>
 8000b84:	20ff      	movs	r0, #255	; 0xff
 8000b86:	2d00      	cmp	r5, #0
 8000b88:	d10b      	bne.n	8000ba2 <__aeabi_fdiv+0xf6>
 8000b8a:	2102      	movs	r1, #2
 8000b8c:	e7da      	b.n	8000b44 <__aeabi_fdiv+0x98>
 8000b8e:	0028      	movs	r0, r5
 8000b90:	f002 fb00 	bl	8003194 <__clzsi2>
 8000b94:	1f43      	subs	r3, r0, #5
 8000b96:	409d      	lsls	r5, r3
 8000b98:	2376      	movs	r3, #118	; 0x76
 8000b9a:	425b      	negs	r3, r3
 8000b9c:	1a18      	subs	r0, r3, r0
 8000b9e:	2100      	movs	r1, #0
 8000ba0:	e7af      	b.n	8000b02 <__aeabi_fdiv+0x56>
 8000ba2:	2103      	movs	r1, #3
 8000ba4:	e7ad      	b.n	8000b02 <__aeabi_fdiv+0x56>
 8000ba6:	0020      	movs	r0, r4
 8000ba8:	f002 faf4 	bl	8003194 <__clzsi2>
 8000bac:	1f43      	subs	r3, r0, #5
 8000bae:	409c      	lsls	r4, r3
 8000bb0:	2376      	movs	r3, #118	; 0x76
 8000bb2:	425b      	negs	r3, r3
 8000bb4:	1a1b      	subs	r3, r3, r0
 8000bb6:	4698      	mov	r8, r3
 8000bb8:	2300      	movs	r3, #0
 8000bba:	4699      	mov	r9, r3
 8000bbc:	469b      	mov	fp, r3
 8000bbe:	e791      	b.n	8000ae4 <__aeabi_fdiv+0x38>
 8000bc0:	230c      	movs	r3, #12
 8000bc2:	4699      	mov	r9, r3
 8000bc4:	33f3      	adds	r3, #243	; 0xf3
 8000bc6:	4698      	mov	r8, r3
 8000bc8:	3bfc      	subs	r3, #252	; 0xfc
 8000bca:	469b      	mov	fp, r3
 8000bcc:	e78a      	b.n	8000ae4 <__aeabi_fdiv+0x38>
 8000bce:	2b03      	cmp	r3, #3
 8000bd0:	d100      	bne.n	8000bd4 <__aeabi_fdiv+0x128>
 8000bd2:	e0a5      	b.n	8000d20 <__aeabi_fdiv+0x274>
 8000bd4:	4655      	mov	r5, sl
 8000bd6:	2b01      	cmp	r3, #1
 8000bd8:	d000      	beq.n	8000bdc <__aeabi_fdiv+0x130>
 8000bda:	e081      	b.n	8000ce0 <__aeabi_fdiv+0x234>
 8000bdc:	2301      	movs	r3, #1
 8000bde:	2100      	movs	r1, #0
 8000be0:	2400      	movs	r4, #0
 8000be2:	402b      	ands	r3, r5
 8000be4:	0264      	lsls	r4, r4, #9
 8000be6:	05c9      	lsls	r1, r1, #23
 8000be8:	0a60      	lsrs	r0, r4, #9
 8000bea:	07db      	lsls	r3, r3, #31
 8000bec:	4308      	orrs	r0, r1
 8000bee:	4318      	orrs	r0, r3
 8000bf0:	b003      	add	sp, #12
 8000bf2:	bc3c      	pop	{r2, r3, r4, r5}
 8000bf4:	4690      	mov	r8, r2
 8000bf6:	4699      	mov	r9, r3
 8000bf8:	46a2      	mov	sl, r4
 8000bfa:	46ab      	mov	fp, r5
 8000bfc:	bdf0      	pop	{r4, r5, r6, r7, pc}
 8000bfe:	2480      	movs	r4, #128	; 0x80
 8000c00:	2300      	movs	r3, #0
 8000c02:	03e4      	lsls	r4, r4, #15
 8000c04:	21ff      	movs	r1, #255	; 0xff
 8000c06:	e7ed      	b.n	8000be4 <__aeabi_fdiv+0x138>
 8000c08:	21ff      	movs	r1, #255	; 0xff
 8000c0a:	2400      	movs	r4, #0
 8000c0c:	e7ea      	b.n	8000be4 <__aeabi_fdiv+0x138>
 8000c0e:	2301      	movs	r3, #1
 8000c10:	1a59      	subs	r1, r3, r1
 8000c12:	291b      	cmp	r1, #27
 8000c14:	dd66      	ble.n	8000ce4 <__aeabi_fdiv+0x238>
 8000c16:	9a01      	ldr	r2, [sp, #4]
 8000c18:	4013      	ands	r3, r2
 8000c1a:	2100      	movs	r1, #0
 8000c1c:	2400      	movs	r4, #0
 8000c1e:	e7e1      	b.n	8000be4 <__aeabi_fdiv+0x138>
 8000c20:	2380      	movs	r3, #128	; 0x80
 8000c22:	03db      	lsls	r3, r3, #15
 8000c24:	421c      	tst	r4, r3
 8000c26:	d038      	beq.n	8000c9a <__aeabi_fdiv+0x1ee>
 8000c28:	421d      	tst	r5, r3
 8000c2a:	d051      	beq.n	8000cd0 <__aeabi_fdiv+0x224>
 8000c2c:	431c      	orrs	r4, r3
 8000c2e:	0264      	lsls	r4, r4, #9
 8000c30:	0a64      	lsrs	r4, r4, #9
 8000c32:	0033      	movs	r3, r6
 8000c34:	21ff      	movs	r1, #255	; 0xff
 8000c36:	e7d5      	b.n	8000be4 <__aeabi_fdiv+0x138>
 8000c38:	0163      	lsls	r3, r4, #5
 8000c3a:	016c      	lsls	r4, r5, #5
 8000c3c:	42a3      	cmp	r3, r4
 8000c3e:	d23b      	bcs.n	8000cb8 <__aeabi_fdiv+0x20c>
 8000c40:	261b      	movs	r6, #27
 8000c42:	2100      	movs	r1, #0
 8000c44:	3801      	subs	r0, #1
 8000c46:	2501      	movs	r5, #1
 8000c48:	001f      	movs	r7, r3
 8000c4a:	0049      	lsls	r1, r1, #1
 8000c4c:	005b      	lsls	r3, r3, #1
 8000c4e:	2f00      	cmp	r7, #0
 8000c50:	db01      	blt.n	8000c56 <__aeabi_fdiv+0x1aa>
 8000c52:	429c      	cmp	r4, r3
 8000c54:	d801      	bhi.n	8000c5a <__aeabi_fdiv+0x1ae>
 8000c56:	1b1b      	subs	r3, r3, r4
 8000c58:	4329      	orrs	r1, r5
 8000c5a:	3e01      	subs	r6, #1
 8000c5c:	2e00      	cmp	r6, #0
 8000c5e:	d1f3      	bne.n	8000c48 <__aeabi_fdiv+0x19c>
 8000c60:	001c      	movs	r4, r3
 8000c62:	1e63      	subs	r3, r4, #1
 8000c64:	419c      	sbcs	r4, r3
 8000c66:	430c      	orrs	r4, r1
 8000c68:	0001      	movs	r1, r0
 8000c6a:	317f      	adds	r1, #127	; 0x7f
 8000c6c:	2900      	cmp	r1, #0
 8000c6e:	ddce      	ble.n	8000c0e <__aeabi_fdiv+0x162>
 8000c70:	0763      	lsls	r3, r4, #29
 8000c72:	d004      	beq.n	8000c7e <__aeabi_fdiv+0x1d2>
 8000c74:	230f      	movs	r3, #15
 8000c76:	4023      	ands	r3, r4
 8000c78:	2b04      	cmp	r3, #4
 8000c7a:	d000      	beq.n	8000c7e <__aeabi_fdiv+0x1d2>
 8000c7c:	3404      	adds	r4, #4
 8000c7e:	0123      	lsls	r3, r4, #4
 8000c80:	d503      	bpl.n	8000c8a <__aeabi_fdiv+0x1de>
 8000c82:	0001      	movs	r1, r0
 8000c84:	4b2c      	ldr	r3, [pc, #176]	; (8000d38 <__aeabi_fdiv+0x28c>)
 8000c86:	3180      	adds	r1, #128	; 0x80
 8000c88:	401c      	ands	r4, r3
 8000c8a:	29fe      	cmp	r1, #254	; 0xfe
 8000c8c:	dd0d      	ble.n	8000caa <__aeabi_fdiv+0x1fe>
 8000c8e:	2301      	movs	r3, #1
 8000c90:	9a01      	ldr	r2, [sp, #4]
 8000c92:	21ff      	movs	r1, #255	; 0xff
 8000c94:	4013      	ands	r3, r2
 8000c96:	2400      	movs	r4, #0
 8000c98:	e7a4      	b.n	8000be4 <__aeabi_fdiv+0x138>
 8000c9a:	2380      	movs	r3, #128	; 0x80
 8000c9c:	03db      	lsls	r3, r3, #15
 8000c9e:	431c      	orrs	r4, r3
 8000ca0:	0264      	lsls	r4, r4, #9
 8000ca2:	0a64      	lsrs	r4, r4, #9
 8000ca4:	0033      	movs	r3, r6
 8000ca6:	21ff      	movs	r1, #255	; 0xff
 8000ca8:	e79c      	b.n	8000be4 <__aeabi_fdiv+0x138>
 8000caa:	2301      	movs	r3, #1
 8000cac:	9a01      	ldr	r2, [sp, #4]
 8000cae:	01a4      	lsls	r4, r4, #6
 8000cb0:	0a64      	lsrs	r4, r4, #9
 8000cb2:	b2c9      	uxtb	r1, r1
 8000cb4:	4013      	ands	r3, r2
 8000cb6:	e795      	b.n	8000be4 <__aeabi_fdiv+0x138>
 8000cb8:	1b1b      	subs	r3, r3, r4
 8000cba:	261a      	movs	r6, #26
 8000cbc:	2101      	movs	r1, #1
 8000cbe:	e7c2      	b.n	8000c46 <__aeabi_fdiv+0x19a>
 8000cc0:	9b00      	ldr	r3, [sp, #0]
 8000cc2:	468b      	mov	fp, r1
 8000cc4:	469a      	mov	sl, r3
 8000cc6:	2400      	movs	r4, #0
 8000cc8:	e74c      	b.n	8000b64 <__aeabi_fdiv+0xb8>
 8000cca:	0263      	lsls	r3, r4, #9
 8000ccc:	d5e5      	bpl.n	8000c9a <__aeabi_fdiv+0x1ee>
 8000cce:	2500      	movs	r5, #0
 8000cd0:	2480      	movs	r4, #128	; 0x80
 8000cd2:	03e4      	lsls	r4, r4, #15
 8000cd4:	432c      	orrs	r4, r5
 8000cd6:	0264      	lsls	r4, r4, #9
 8000cd8:	0a64      	lsrs	r4, r4, #9
 8000cda:	9b00      	ldr	r3, [sp, #0]
 8000cdc:	21ff      	movs	r1, #255	; 0xff
 8000cde:	e781      	b.n	8000be4 <__aeabi_fdiv+0x138>
 8000ce0:	9501      	str	r5, [sp, #4]
 8000ce2:	e7c1      	b.n	8000c68 <__aeabi_fdiv+0x1bc>
 8000ce4:	0023      	movs	r3, r4
 8000ce6:	2020      	movs	r0, #32
 8000ce8:	40cb      	lsrs	r3, r1
 8000cea:	1a41      	subs	r1, r0, r1
 8000cec:	408c      	lsls	r4, r1
 8000cee:	1e61      	subs	r1, r4, #1
 8000cf0:	418c      	sbcs	r4, r1
 8000cf2:	431c      	orrs	r4, r3
 8000cf4:	0763      	lsls	r3, r4, #29
 8000cf6:	d004      	beq.n	8000d02 <__aeabi_fdiv+0x256>
 8000cf8:	230f      	movs	r3, #15
 8000cfa:	4023      	ands	r3, r4
 8000cfc:	2b04      	cmp	r3, #4
 8000cfe:	d000      	beq.n	8000d02 <__aeabi_fdiv+0x256>
 8000d00:	3404      	adds	r4, #4
 8000d02:	0163      	lsls	r3, r4, #5
 8000d04:	d505      	bpl.n	8000d12 <__aeabi_fdiv+0x266>
 8000d06:	2301      	movs	r3, #1
 8000d08:	9a01      	ldr	r2, [sp, #4]
 8000d0a:	2101      	movs	r1, #1
 8000d0c:	4013      	ands	r3, r2
 8000d0e:	2400      	movs	r4, #0
 8000d10:	e768      	b.n	8000be4 <__aeabi_fdiv+0x138>
 8000d12:	2301      	movs	r3, #1
 8000d14:	9a01      	ldr	r2, [sp, #4]
 8000d16:	01a4      	lsls	r4, r4, #6
 8000d18:	0a64      	lsrs	r4, r4, #9
 8000d1a:	4013      	ands	r3, r2
 8000d1c:	2100      	movs	r1, #0
 8000d1e:	e761      	b.n	8000be4 <__aeabi_fdiv+0x138>
 8000d20:	2380      	movs	r3, #128	; 0x80
 8000d22:	03db      	lsls	r3, r3, #15
 8000d24:	431c      	orrs	r4, r3
 8000d26:	0264      	lsls	r4, r4, #9
 8000d28:	0a64      	lsrs	r4, r4, #9
 8000d2a:	4653      	mov	r3, sl
 8000d2c:	21ff      	movs	r1, #255	; 0xff
 8000d2e:	e759      	b.n	8000be4 <__aeabi_fdiv+0x138>
 8000d30:	08018000 	.word	0x08018000
 8000d34:	08018040 	.word	0x08018040
 8000d38:	f7ffffff 	.word	0xf7ffffff

08000d3c <__eqsf2>:
 8000d3c:	b570      	push	{r4, r5, r6, lr}
 8000d3e:	0042      	lsls	r2, r0, #1
 8000d40:	0245      	lsls	r5, r0, #9
 8000d42:	024e      	lsls	r6, r1, #9
 8000d44:	004c      	lsls	r4, r1, #1
 8000d46:	0fc3      	lsrs	r3, r0, #31
 8000d48:	0a6d      	lsrs	r5, r5, #9
 8000d4a:	0e12      	lsrs	r2, r2, #24
 8000d4c:	0a76      	lsrs	r6, r6, #9
 8000d4e:	0e24      	lsrs	r4, r4, #24
 8000d50:	0fc9      	lsrs	r1, r1, #31
 8000d52:	2001      	movs	r0, #1
 8000d54:	2aff      	cmp	r2, #255	; 0xff
 8000d56:	d006      	beq.n	8000d66 <__eqsf2+0x2a>
 8000d58:	2cff      	cmp	r4, #255	; 0xff
 8000d5a:	d003      	beq.n	8000d64 <__eqsf2+0x28>
 8000d5c:	42a2      	cmp	r2, r4
 8000d5e:	d101      	bne.n	8000d64 <__eqsf2+0x28>
 8000d60:	42b5      	cmp	r5, r6
 8000d62:	d006      	beq.n	8000d72 <__eqsf2+0x36>
 8000d64:	bd70      	pop	{r4, r5, r6, pc}
 8000d66:	2d00      	cmp	r5, #0
 8000d68:	d1fc      	bne.n	8000d64 <__eqsf2+0x28>
 8000d6a:	2cff      	cmp	r4, #255	; 0xff
 8000d6c:	d1fa      	bne.n	8000d64 <__eqsf2+0x28>
 8000d6e:	2e00      	cmp	r6, #0
 8000d70:	d1f8      	bne.n	8000d64 <__eqsf2+0x28>
 8000d72:	428b      	cmp	r3, r1
 8000d74:	d006      	beq.n	8000d84 <__eqsf2+0x48>
 8000d76:	2001      	movs	r0, #1
 8000d78:	2a00      	cmp	r2, #0
 8000d7a:	d1f3      	bne.n	8000d64 <__eqsf2+0x28>
 8000d7c:	0028      	movs	r0, r5
 8000d7e:	1e45      	subs	r5, r0, #1
 8000d80:	41a8      	sbcs	r0, r5
 8000d82:	e7ef      	b.n	8000d64 <__eqsf2+0x28>
 8000d84:	2000      	movs	r0, #0
 8000d86:	e7ed      	b.n	8000d64 <__eqsf2+0x28>

08000d88 <__gesf2>:
 8000d88:	b5f0      	push	{r4, r5, r6, r7, lr}
 8000d8a:	0042      	lsls	r2, r0, #1
 8000d8c:	0245      	lsls	r5, r0, #9
 8000d8e:	024c      	lsls	r4, r1, #9
 8000d90:	0fc3      	lsrs	r3, r0, #31
 8000d92:	0048      	lsls	r0, r1, #1
 8000d94:	0a6d      	lsrs	r5, r5, #9
 8000d96:	0e12      	lsrs	r2, r2, #24
 8000d98:	0a64      	lsrs	r4, r4, #9
 8000d9a:	0e00      	lsrs	r0, r0, #24
 8000d9c:	0fc9      	lsrs	r1, r1, #31
 8000d9e:	2aff      	cmp	r2, #255	; 0xff
 8000da0:	d01e      	beq.n	8000de0 <__gesf2+0x58>
 8000da2:	28ff      	cmp	r0, #255	; 0xff
 8000da4:	d021      	beq.n	8000dea <__gesf2+0x62>
 8000da6:	2a00      	cmp	r2, #0
 8000da8:	d10a      	bne.n	8000dc0 <__gesf2+0x38>
 8000daa:	426e      	negs	r6, r5
 8000dac:	416e      	adcs	r6, r5
 8000dae:	b2f6      	uxtb	r6, r6
 8000db0:	2800      	cmp	r0, #0
 8000db2:	d10f      	bne.n	8000dd4 <__gesf2+0x4c>
 8000db4:	2c00      	cmp	r4, #0
 8000db6:	d10d      	bne.n	8000dd4 <__gesf2+0x4c>
 8000db8:	2000      	movs	r0, #0
 8000dba:	2d00      	cmp	r5, #0
 8000dbc:	d009      	beq.n	8000dd2 <__gesf2+0x4a>
 8000dbe:	e005      	b.n	8000dcc <__gesf2+0x44>
 8000dc0:	2800      	cmp	r0, #0
 8000dc2:	d101      	bne.n	8000dc8 <__gesf2+0x40>
 8000dc4:	2c00      	cmp	r4, #0
 8000dc6:	d001      	beq.n	8000dcc <__gesf2+0x44>
 8000dc8:	428b      	cmp	r3, r1
 8000dca:	d011      	beq.n	8000df0 <__gesf2+0x68>
 8000dcc:	2101      	movs	r1, #1
 8000dce:	4258      	negs	r0, r3
 8000dd0:	4308      	orrs	r0, r1
 8000dd2:	bdf0      	pop	{r4, r5, r6, r7, pc}
 8000dd4:	2e00      	cmp	r6, #0
 8000dd6:	d0f7      	beq.n	8000dc8 <__gesf2+0x40>
 8000dd8:	2001      	movs	r0, #1
 8000dda:	3901      	subs	r1, #1
 8000ddc:	4308      	orrs	r0, r1
 8000dde:	e7f8      	b.n	8000dd2 <__gesf2+0x4a>
 8000de0:	2d00      	cmp	r5, #0
 8000de2:	d0de      	beq.n	8000da2 <__gesf2+0x1a>
 8000de4:	2002      	movs	r0, #2
 8000de6:	4240      	negs	r0, r0
 8000de8:	e7f3      	b.n	8000dd2 <__gesf2+0x4a>
 8000dea:	2c00      	cmp	r4, #0
 8000dec:	d0db      	beq.n	8000da6 <__gesf2+0x1e>
 8000dee:	e7f9      	b.n	8000de4 <__gesf2+0x5c>
 8000df0:	4282      	cmp	r2, r0
 8000df2:	dceb      	bgt.n	8000dcc <__gesf2+0x44>
 8000df4:	db04      	blt.n	8000e00 <__gesf2+0x78>
 8000df6:	42a5      	cmp	r5, r4
 8000df8:	d8e8      	bhi.n	8000dcc <__gesf2+0x44>
 8000dfa:	2000      	movs	r0, #0
 8000dfc:	42a5      	cmp	r5, r4
 8000dfe:	d2e8      	bcs.n	8000dd2 <__gesf2+0x4a>
 8000e00:	2101      	movs	r1, #1
 8000e02:	1e58      	subs	r0, r3, #1
 8000e04:	4308      	orrs	r0, r1
 8000e06:	e7e4      	b.n	8000dd2 <__gesf2+0x4a>

08000e08 <__lesf2>:
 8000e08:	b5f0      	push	{r4, r5, r6, r7, lr}
 8000e0a:	0042      	lsls	r2, r0, #1
 8000e0c:	024d      	lsls	r5, r1, #9
 8000e0e:	004c      	lsls	r4, r1, #1
 8000e10:	0246      	lsls	r6, r0, #9
 8000e12:	0a76      	lsrs	r6, r6, #9
 8000e14:	0e12      	lsrs	r2, r2, #24
 8000e16:	0fc3      	lsrs	r3, r0, #31
 8000e18:	0a6d      	lsrs	r5, r5, #9
 8000e1a:	0e24      	lsrs	r4, r4, #24
 8000e1c:	0fc9      	lsrs	r1, r1, #31
 8000e1e:	2aff      	cmp	r2, #255	; 0xff
 8000e20:	d016      	beq.n	8000e50 <__lesf2+0x48>
 8000e22:	2cff      	cmp	r4, #255	; 0xff
 8000e24:	d018      	beq.n	8000e58 <__lesf2+0x50>
 8000e26:	2a00      	cmp	r2, #0
 8000e28:	d10a      	bne.n	8000e40 <__lesf2+0x38>
 8000e2a:	4270      	negs	r0, r6
 8000e2c:	4170      	adcs	r0, r6
 8000e2e:	b2c0      	uxtb	r0, r0
 8000e30:	2c00      	cmp	r4, #0
 8000e32:	d015      	beq.n	8000e60 <__lesf2+0x58>
 8000e34:	2800      	cmp	r0, #0
 8000e36:	d005      	beq.n	8000e44 <__lesf2+0x3c>
 8000e38:	2001      	movs	r0, #1
 8000e3a:	3901      	subs	r1, #1
 8000e3c:	4308      	orrs	r0, r1
 8000e3e:	bdf0      	pop	{r4, r5, r6, r7, pc}
 8000e40:	2c00      	cmp	r4, #0
 8000e42:	d013      	beq.n	8000e6c <__lesf2+0x64>
 8000e44:	4299      	cmp	r1, r3
 8000e46:	d014      	beq.n	8000e72 <__lesf2+0x6a>
 8000e48:	2001      	movs	r0, #1
 8000e4a:	425b      	negs	r3, r3
 8000e4c:	4318      	orrs	r0, r3
 8000e4e:	e7f6      	b.n	8000e3e <__lesf2+0x36>
 8000e50:	2002      	movs	r0, #2
 8000e52:	2e00      	cmp	r6, #0
 8000e54:	d1f3      	bne.n	8000e3e <__lesf2+0x36>
 8000e56:	e7e4      	b.n	8000e22 <__lesf2+0x1a>
 8000e58:	2002      	movs	r0, #2
 8000e5a:	2d00      	cmp	r5, #0
 8000e5c:	d1ef      	bne.n	8000e3e <__lesf2+0x36>
 8000e5e:	e7e2      	b.n	8000e26 <__lesf2+0x1e>
 8000e60:	2d00      	cmp	r5, #0
 8000e62:	d1e7      	bne.n	8000e34 <__lesf2+0x2c>
 8000e64:	2000      	movs	r0, #0
 8000e66:	2e00      	cmp	r6, #0
 8000e68:	d0e9      	beq.n	8000e3e <__lesf2+0x36>
 8000e6a:	e7ed      	b.n	8000e48 <__lesf2+0x40>
 8000e6c:	2d00      	cmp	r5, #0
 8000e6e:	d1e9      	bne.n	8000e44 <__lesf2+0x3c>
 8000e70:	e7ea      	b.n	8000e48 <__lesf2+0x40>
 8000e72:	42a2      	cmp	r2, r4
 8000e74:	dc06      	bgt.n	8000e84 <__lesf2+0x7c>
 8000e76:	dbdf      	blt.n	8000e38 <__lesf2+0x30>
 8000e78:	42ae      	cmp	r6, r5
 8000e7a:	d803      	bhi.n	8000e84 <__lesf2+0x7c>
 8000e7c:	2000      	movs	r0, #0
 8000e7e:	42ae      	cmp	r6, r5
 8000e80:	d3da      	bcc.n	8000e38 <__lesf2+0x30>
 8000e82:	e7dc      	b.n	8000e3e <__lesf2+0x36>
 8000e84:	2001      	movs	r0, #1
 8000e86:	4249      	negs	r1, r1
 8000e88:	4308      	orrs	r0, r1
 8000e8a:	e7d8      	b.n	8000e3e <__lesf2+0x36>

08000e8c <__aeabi_fmul>:
 8000e8c:	b5f8      	push	{r3, r4, r5, r6, r7, lr}
 8000e8e:	4657      	mov	r7, sl
 8000e90:	464e      	mov	r6, r9
 8000e92:	4645      	mov	r5, r8
 8000e94:	46de      	mov	lr, fp
 8000e96:	b5e0      	push	{r5, r6, r7, lr}
 8000e98:	0247      	lsls	r7, r0, #9
 8000e9a:	0046      	lsls	r6, r0, #1
 8000e9c:	4688      	mov	r8, r1
 8000e9e:	0a7f      	lsrs	r7, r7, #9
 8000ea0:	0e36      	lsrs	r6, r6, #24
 8000ea2:	0fc4      	lsrs	r4, r0, #31
 8000ea4:	2e00      	cmp	r6, #0
 8000ea6:	d047      	beq.n	8000f38 <__aeabi_fmul+0xac>
 8000ea8:	2eff      	cmp	r6, #255	; 0xff
 8000eaa:	d024      	beq.n	8000ef6 <__aeabi_fmul+0x6a>
 8000eac:	00fb      	lsls	r3, r7, #3
 8000eae:	2780      	movs	r7, #128	; 0x80
 8000eb0:	04ff      	lsls	r7, r7, #19
 8000eb2:	431f      	orrs	r7, r3
 8000eb4:	2300      	movs	r3, #0
 8000eb6:	4699      	mov	r9, r3
 8000eb8:	469a      	mov	sl, r3
 8000eba:	3e7f      	subs	r6, #127	; 0x7f
 8000ebc:	4643      	mov	r3, r8
 8000ebe:	025d      	lsls	r5, r3, #9
 8000ec0:	0058      	lsls	r0, r3, #1
 8000ec2:	0fdb      	lsrs	r3, r3, #31
 8000ec4:	0a6d      	lsrs	r5, r5, #9
 8000ec6:	0e00      	lsrs	r0, r0, #24
 8000ec8:	4698      	mov	r8, r3
 8000eca:	d043      	beq.n	8000f54 <__aeabi_fmul+0xc8>
 8000ecc:	28ff      	cmp	r0, #255	; 0xff
 8000ece:	d03b      	beq.n	8000f48 <__aeabi_fmul+0xbc>
 8000ed0:	00eb      	lsls	r3, r5, #3
 8000ed2:	2580      	movs	r5, #128	; 0x80
 8000ed4:	2200      	movs	r2, #0
 8000ed6:	04ed      	lsls	r5, r5, #19
 8000ed8:	431d      	orrs	r5, r3
 8000eda:	387f      	subs	r0, #127	; 0x7f
 8000edc:	1836      	adds	r6, r6, r0
 8000ede:	1c73      	adds	r3, r6, #1
 8000ee0:	4641      	mov	r1, r8
 8000ee2:	469b      	mov	fp, r3
 8000ee4:	464b      	mov	r3, r9
 8000ee6:	4061      	eors	r1, r4
 8000ee8:	4313      	orrs	r3, r2
 8000eea:	2b0f      	cmp	r3, #15
 8000eec:	d864      	bhi.n	8000fb8 <__aeabi_fmul+0x12c>
 8000eee:	4875      	ldr	r0, [pc, #468]	; (80010c4 <__aeabi_fmul+0x238>)
 8000ef0:	009b      	lsls	r3, r3, #2
 8000ef2:	58c3      	ldr	r3, [r0, r3]
 8000ef4:	469f      	mov	pc, r3
 8000ef6:	2f00      	cmp	r7, #0
 8000ef8:	d142      	bne.n	8000f80 <__aeabi_fmul+0xf4>
 8000efa:	2308      	movs	r3, #8
 8000efc:	4699      	mov	r9, r3
 8000efe:	3b06      	subs	r3, #6
 8000f00:	26ff      	movs	r6, #255	; 0xff
 8000f02:	469a      	mov	sl, r3
 8000f04:	e7da      	b.n	8000ebc <__aeabi_fmul+0x30>
 8000f06:	4641      	mov	r1, r8
 8000f08:	2a02      	cmp	r2, #2
 8000f0a:	d028      	beq.n	8000f5e <__aeabi_fmul+0xd2>
 8000f0c:	2a03      	cmp	r2, #3
 8000f0e:	d100      	bne.n	8000f12 <__aeabi_fmul+0x86>
 8000f10:	e0ce      	b.n	80010b0 <__aeabi_fmul+0x224>
 8000f12:	2a01      	cmp	r2, #1
 8000f14:	d000      	beq.n	8000f18 <__aeabi_fmul+0x8c>
 8000f16:	e0ac      	b.n	8001072 <__aeabi_fmul+0x1e6>
 8000f18:	4011      	ands	r1, r2
 8000f1a:	2000      	movs	r0, #0
 8000f1c:	2200      	movs	r2, #0
 8000f1e:	b2cc      	uxtb	r4, r1
 8000f20:	0240      	lsls	r0, r0, #9
 8000f22:	05d2      	lsls	r2, r2, #23
 8000f24:	0a40      	lsrs	r0, r0, #9
 8000f26:	07e4      	lsls	r4, r4, #31
 8000f28:	4310      	orrs	r0, r2
 8000f2a:	4320      	orrs	r0, r4
 8000f2c:	bc3c      	pop	{r2, r3, r4, r5}
 8000f2e:	4690      	mov	r8, r2
 8000f30:	4699      	mov	r9, r3
 8000f32:	46a2      	mov	sl, r4
 8000f34:	46ab      	mov	fp, r5
 8000f36:	bdf8      	pop	{r3, r4, r5, r6, r7, pc}
 8000f38:	2f00      	cmp	r7, #0
 8000f3a:	d115      	bne.n	8000f68 <__aeabi_fmul+0xdc>
 8000f3c:	2304      	movs	r3, #4
 8000f3e:	4699      	mov	r9, r3
 8000f40:	3b03      	subs	r3, #3
 8000f42:	2600      	movs	r6, #0
 8000f44:	469a      	mov	sl, r3
 8000f46:	e7b9      	b.n	8000ebc <__aeabi_fmul+0x30>
 8000f48:	20ff      	movs	r0, #255	; 0xff
 8000f4a:	2202      	movs	r2, #2
 8000f4c:	2d00      	cmp	r5, #0
 8000f4e:	d0c5      	beq.n	8000edc <__aeabi_fmul+0x50>
 8000f50:	2203      	movs	r2, #3
 8000f52:	e7c3      	b.n	8000edc <__aeabi_fmul+0x50>
 8000f54:	2d00      	cmp	r5, #0
 8000f56:	d119      	bne.n	8000f8c <__aeabi_fmul+0x100>
 8000f58:	2000      	movs	r0, #0
 8000f5a:	2201      	movs	r2, #1
 8000f5c:	e7be      	b.n	8000edc <__aeabi_fmul+0x50>
 8000f5e:	2401      	movs	r4, #1
 8000f60:	22ff      	movs	r2, #255	; 0xff
 8000f62:	400c      	ands	r4, r1
 8000f64:	2000      	movs	r0, #0
 8000f66:	e7db      	b.n	8000f20 <__aeabi_fmul+0x94>
 8000f68:	0038      	movs	r0, r7
 8000f6a:	f002 f913 	bl	8003194 <__clzsi2>
 8000f6e:	2676      	movs	r6, #118	; 0x76
 8000f70:	1f43      	subs	r3, r0, #5
 8000f72:	409f      	lsls	r7, r3
 8000f74:	2300      	movs	r3, #0
 8000f76:	4276      	negs	r6, r6
 8000f78:	1a36      	subs	r6, r6, r0
 8000f7a:	4699      	mov	r9, r3
 8000f7c:	469a      	mov	sl, r3
 8000f7e:	e79d      	b.n	8000ebc <__aeabi_fmul+0x30>
 8000f80:	230c      	movs	r3, #12
 8000f82:	4699      	mov	r9, r3
 8000f84:	3b09      	subs	r3, #9
 8000f86:	26ff      	movs	r6, #255	; 0xff
 8000f88:	469a      	mov	sl, r3
 8000f8a:	e797      	b.n	8000ebc <__aeabi_fmul+0x30>
 8000f8c:	0028      	movs	r0, r5
 8000f8e:	f002 f901 	bl	8003194 <__clzsi2>
 8000f92:	1f43      	subs	r3, r0, #5
 8000f94:	409d      	lsls	r5, r3
 8000f96:	2376      	movs	r3, #118	; 0x76
 8000f98:	425b      	negs	r3, r3
 8000f9a:	1a18      	subs	r0, r3, r0
 8000f9c:	2200      	movs	r2, #0
 8000f9e:	e79d      	b.n	8000edc <__aeabi_fmul+0x50>
 8000fa0:	2080      	movs	r0, #128	; 0x80
 8000fa2:	2400      	movs	r4, #0
 8000fa4:	03c0      	lsls	r0, r0, #15
 8000fa6:	22ff      	movs	r2, #255	; 0xff
 8000fa8:	e7ba      	b.n	8000f20 <__aeabi_fmul+0x94>
 8000faa:	003d      	movs	r5, r7
 8000fac:	4652      	mov	r2, sl
 8000fae:	e7ab      	b.n	8000f08 <__aeabi_fmul+0x7c>
 8000fb0:	003d      	movs	r5, r7
 8000fb2:	0021      	movs	r1, r4
 8000fb4:	4652      	mov	r2, sl
 8000fb6:	e7a7      	b.n	8000f08 <__aeabi_fmul+0x7c>
 8000fb8:	0c3b      	lsrs	r3, r7, #16
 8000fba:	469c      	mov	ip, r3
 8000fbc:	042a      	lsls	r2, r5, #16
 8000fbe:	0c12      	lsrs	r2, r2, #16
 8000fc0:	0c2b      	lsrs	r3, r5, #16
 8000fc2:	0014      	movs	r4, r2
 8000fc4:	4660      	mov	r0, ip
 8000fc6:	4665      	mov	r5, ip
 8000fc8:	043f      	lsls	r7, r7, #16
 8000fca:	0c3f      	lsrs	r7, r7, #16
 8000fcc:	437c      	muls	r4, r7
 8000fce:	4342      	muls	r2, r0
 8000fd0:	435d      	muls	r5, r3
 8000fd2:	437b      	muls	r3, r7
 8000fd4:	0c27      	lsrs	r7, r4, #16
 8000fd6:	189b      	adds	r3, r3, r2
 8000fd8:	18ff      	adds	r7, r7, r3
 8000fda:	42ba      	cmp	r2, r7
 8000fdc:	d903      	bls.n	8000fe6 <__aeabi_fmul+0x15a>
 8000fde:	2380      	movs	r3, #128	; 0x80
 8000fe0:	025b      	lsls	r3, r3, #9
 8000fe2:	469c      	mov	ip, r3
 8000fe4:	4465      	add	r5, ip
 8000fe6:	0424      	lsls	r4, r4, #16
 8000fe8:	043a      	lsls	r2, r7, #16
 8000fea:	0c24      	lsrs	r4, r4, #16
 8000fec:	1912      	adds	r2, r2, r4
 8000fee:	0193      	lsls	r3, r2, #6
 8000ff0:	1e5c      	subs	r4, r3, #1
 8000ff2:	41a3      	sbcs	r3, r4
 8000ff4:	0c3f      	lsrs	r7, r7, #16
 8000ff6:	0e92      	lsrs	r2, r2, #26
 8000ff8:	197d      	adds	r5, r7, r5
 8000ffa:	431a      	orrs	r2, r3
 8000ffc:	01ad      	lsls	r5, r5, #6
 8000ffe:	4315      	orrs	r5, r2
 8001000:	012b      	lsls	r3, r5, #4
 8001002:	d504      	bpl.n	800100e <__aeabi_fmul+0x182>
 8001004:	2301      	movs	r3, #1
 8001006:	465e      	mov	r6, fp
 8001008:	086a      	lsrs	r2, r5, #1
 800100a:	401d      	ands	r5, r3
 800100c:	4315      	orrs	r5, r2
 800100e:	0032      	movs	r2, r6
 8001010:	327f      	adds	r2, #127	; 0x7f
 8001012:	2a00      	cmp	r2, #0
 8001014:	dd25      	ble.n	8001062 <__aeabi_fmul+0x1d6>
 8001016:	076b      	lsls	r3, r5, #29
 8001018:	d004      	beq.n	8001024 <__aeabi_fmul+0x198>
 800101a:	230f      	movs	r3, #15
 800101c:	402b      	ands	r3, r5
 800101e:	2b04      	cmp	r3, #4
 8001020:	d000      	beq.n	8001024 <__aeabi_fmul+0x198>
 8001022:	3504      	adds	r5, #4
 8001024:	012b      	lsls	r3, r5, #4
 8001026:	d503      	bpl.n	8001030 <__aeabi_fmul+0x1a4>
 8001028:	0032      	movs	r2, r6
 800102a:	4b27      	ldr	r3, [pc, #156]	; (80010c8 <__aeabi_fmul+0x23c>)
 800102c:	3280      	adds	r2, #128	; 0x80
 800102e:	401d      	ands	r5, r3
 8001030:	2afe      	cmp	r2, #254	; 0xfe
 8001032:	dc94      	bgt.n	8000f5e <__aeabi_fmul+0xd2>
 8001034:	2401      	movs	r4, #1
 8001036:	01a8      	lsls	r0, r5, #6
 8001038:	0a40      	lsrs	r0, r0, #9
 800103a:	b2d2      	uxtb	r2, r2
 800103c:	400c      	ands	r4, r1
 800103e:	e76f      	b.n	8000f20 <__aeabi_fmul+0x94>
 8001040:	2080      	movs	r0, #128	; 0x80
 8001042:	03c0      	lsls	r0, r0, #15
 8001044:	4207      	tst	r7, r0
 8001046:	d007      	beq.n	8001058 <__aeabi_fmul+0x1cc>
 8001048:	4205      	tst	r5, r0
 800104a:	d105      	bne.n	8001058 <__aeabi_fmul+0x1cc>
 800104c:	4328      	orrs	r0, r5
 800104e:	0240      	lsls	r0, r0, #9
 8001050:	0a40      	lsrs	r0, r0, #9
 8001052:	4644      	mov	r4, r8
 8001054:	22ff      	movs	r2, #255	; 0xff
 8001056:	e763      	b.n	8000f20 <__aeabi_fmul+0x94>
 8001058:	4338      	orrs	r0, r7
 800105a:	0240      	lsls	r0, r0, #9
 800105c:	0a40      	lsrs	r0, r0, #9
 800105e:	22ff      	movs	r2, #255	; 0xff
 8001060:	e75e      	b.n	8000f20 <__aeabi_fmul+0x94>
 8001062:	2401      	movs	r4, #1
 8001064:	1aa3      	subs	r3, r4, r2
 8001066:	2b1b      	cmp	r3, #27
 8001068:	dd05      	ble.n	8001076 <__aeabi_fmul+0x1ea>
 800106a:	400c      	ands	r4, r1
 800106c:	2200      	movs	r2, #0
 800106e:	2000      	movs	r0, #0
 8001070:	e756      	b.n	8000f20 <__aeabi_fmul+0x94>
 8001072:	465e      	mov	r6, fp
 8001074:	e7cb      	b.n	800100e <__aeabi_fmul+0x182>
 8001076:	002a      	movs	r2, r5
 8001078:	2020      	movs	r0, #32
 800107a:	40da      	lsrs	r2, r3
 800107c:	1ac3      	subs	r3, r0, r3
 800107e:	409d      	lsls	r5, r3
 8001080:	002b      	movs	r3, r5
 8001082:	1e5d      	subs	r5, r3, #1
 8001084:	41ab      	sbcs	r3, r5
 8001086:	4313      	orrs	r3, r2
 8001088:	075a      	lsls	r2, r3, #29
 800108a:	d004      	beq.n	8001096 <__aeabi_fmul+0x20a>
 800108c:	220f      	movs	r2, #15
 800108e:	401a      	ands	r2, r3
 8001090:	2a04      	cmp	r2, #4
 8001092:	d000      	beq.n	8001096 <__aeabi_fmul+0x20a>
 8001094:	3304      	adds	r3, #4
 8001096:	015a      	lsls	r2, r3, #5
 8001098:	d504      	bpl.n	80010a4 <__aeabi_fmul+0x218>
 800109a:	2401      	movs	r4, #1
 800109c:	2201      	movs	r2, #1
 800109e:	400c      	ands	r4, r1
 80010a0:	2000      	movs	r0, #0
 80010a2:	e73d      	b.n	8000f20 <__aeabi_fmul+0x94>
 80010a4:	2401      	movs	r4, #1
 80010a6:	019b      	lsls	r3, r3, #6
 80010a8:	0a58      	lsrs	r0, r3, #9
 80010aa:	400c      	ands	r4, r1
 80010ac:	2200      	movs	r2, #0
 80010ae:	e737      	b.n	8000f20 <__aeabi_fmul+0x94>
 80010b0:	2080      	movs	r0, #128	; 0x80
 80010b2:	2401      	movs	r4, #1
 80010b4:	03c0      	lsls	r0, r0, #15
 80010b6:	4328      	orrs	r0, r5
 80010b8:	0240      	lsls	r0, r0, #9
 80010ba:	0a40      	lsrs	r0, r0, #9
 80010bc:	400c      	ands	r4, r1
 80010be:	22ff      	movs	r2, #255	; 0xff
 80010c0:	e72e      	b.n	8000f20 <__aeabi_fmul+0x94>
 80010c2:	46c0      	nop			; (mov r8, r8)
 80010c4:	08018080 	.word	0x08018080
 80010c8:	f7ffffff 	.word	0xf7ffffff

080010cc <__aeabi_fsub>:
 80010cc:	b5f0      	push	{r4, r5, r6, r7, lr}
 80010ce:	464f      	mov	r7, r9
 80010d0:	46d6      	mov	lr, sl
 80010d2:	4646      	mov	r6, r8
 80010d4:	0044      	lsls	r4, r0, #1
 80010d6:	b5c0      	push	{r6, r7, lr}
 80010d8:	0fc2      	lsrs	r2, r0, #31
 80010da:	0247      	lsls	r7, r0, #9
 80010dc:	0248      	lsls	r0, r1, #9
 80010de:	0a40      	lsrs	r0, r0, #9
 80010e0:	4684      	mov	ip, r0
 80010e2:	4666      	mov	r6, ip
 80010e4:	0a7b      	lsrs	r3, r7, #9
 80010e6:	0048      	lsls	r0, r1, #1
 80010e8:	0fc9      	lsrs	r1, r1, #31
 80010ea:	469a      	mov	sl, r3
 80010ec:	0e24      	lsrs	r4, r4, #24
 80010ee:	0015      	movs	r5, r2
 80010f0:	00db      	lsls	r3, r3, #3
 80010f2:	0e00      	lsrs	r0, r0, #24
 80010f4:	4689      	mov	r9, r1
 80010f6:	00f6      	lsls	r6, r6, #3
 80010f8:	28ff      	cmp	r0, #255	; 0xff
 80010fa:	d100      	bne.n	80010fe <__aeabi_fsub+0x32>
 80010fc:	e08f      	b.n	800121e <__aeabi_fsub+0x152>
 80010fe:	2101      	movs	r1, #1
 8001100:	464f      	mov	r7, r9
 8001102:	404f      	eors	r7, r1
 8001104:	0039      	movs	r1, r7
 8001106:	4291      	cmp	r1, r2
 8001108:	d066      	beq.n	80011d8 <__aeabi_fsub+0x10c>
 800110a:	1a22      	subs	r2, r4, r0
 800110c:	2a00      	cmp	r2, #0
 800110e:	dc00      	bgt.n	8001112 <__aeabi_fsub+0x46>
 8001110:	e09d      	b.n	800124e <__aeabi_fsub+0x182>
 8001112:	2800      	cmp	r0, #0
 8001114:	d13d      	bne.n	8001192 <__aeabi_fsub+0xc6>
 8001116:	2e00      	cmp	r6, #0
 8001118:	d100      	bne.n	800111c <__aeabi_fsub+0x50>
 800111a:	e08b      	b.n	8001234 <__aeabi_fsub+0x168>
 800111c:	1e51      	subs	r1, r2, #1
 800111e:	2900      	cmp	r1, #0
 8001120:	d000      	beq.n	8001124 <__aeabi_fsub+0x58>
 8001122:	e0b5      	b.n	8001290 <__aeabi_fsub+0x1c4>
 8001124:	2401      	movs	r4, #1
 8001126:	1b9b      	subs	r3, r3, r6
 8001128:	015a      	lsls	r2, r3, #5
 800112a:	d544      	bpl.n	80011b6 <__aeabi_fsub+0xea>
 800112c:	019b      	lsls	r3, r3, #6
 800112e:	099f      	lsrs	r7, r3, #6
 8001130:	0038      	movs	r0, r7
 8001132:	f002 f82f 	bl	8003194 <__clzsi2>
 8001136:	3805      	subs	r0, #5
 8001138:	4087      	lsls	r7, r0
 800113a:	4284      	cmp	r4, r0
 800113c:	dd00      	ble.n	8001140 <__aeabi_fsub+0x74>
 800113e:	e096      	b.n	800126e <__aeabi_fsub+0x1a2>
 8001140:	1b04      	subs	r4, r0, r4
 8001142:	003a      	movs	r2, r7
 8001144:	2020      	movs	r0, #32
 8001146:	3401      	adds	r4, #1
 8001148:	40e2      	lsrs	r2, r4
 800114a:	1b04      	subs	r4, r0, r4
 800114c:	40a7      	lsls	r7, r4
 800114e:	003b      	movs	r3, r7
 8001150:	1e5f      	subs	r7, r3, #1
 8001152:	41bb      	sbcs	r3, r7
 8001154:	2400      	movs	r4, #0
 8001156:	4313      	orrs	r3, r2
 8001158:	075a      	lsls	r2, r3, #29
 800115a:	d004      	beq.n	8001166 <__aeabi_fsub+0x9a>
 800115c:	220f      	movs	r2, #15
 800115e:	401a      	ands	r2, r3
 8001160:	2a04      	cmp	r2, #4
 8001162:	d000      	beq.n	8001166 <__aeabi_fsub+0x9a>
 8001164:	3304      	adds	r3, #4
 8001166:	015a      	lsls	r2, r3, #5
 8001168:	d527      	bpl.n	80011ba <__aeabi_fsub+0xee>
 800116a:	3401      	adds	r4, #1
 800116c:	2cff      	cmp	r4, #255	; 0xff
 800116e:	d100      	bne.n	8001172 <__aeabi_fsub+0xa6>
 8001170:	e079      	b.n	8001266 <__aeabi_fsub+0x19a>
 8001172:	2201      	movs	r2, #1
 8001174:	019b      	lsls	r3, r3, #6
 8001176:	0a5b      	lsrs	r3, r3, #9
 8001178:	b2e4      	uxtb	r4, r4
 800117a:	402a      	ands	r2, r5
 800117c:	025b      	lsls	r3, r3, #9
 800117e:	05e4      	lsls	r4, r4, #23
 8001180:	0a58      	lsrs	r0, r3, #9
 8001182:	07d2      	lsls	r2, r2, #31
 8001184:	4320      	orrs	r0, r4
 8001186:	4310      	orrs	r0, r2
 8001188:	bc1c      	pop	{r2, r3, r4}
 800118a:	4690      	mov	r8, r2
 800118c:	4699      	mov	r9, r3
 800118e:	46a2      	mov	sl, r4
 8001190:	bdf0      	pop	{r4, r5, r6, r7, pc}
 8001192:	2cff      	cmp	r4, #255	; 0xff
 8001194:	d0e0      	beq.n	8001158 <__aeabi_fsub+0x8c>
 8001196:	2180      	movs	r1, #128	; 0x80
 8001198:	04c9      	lsls	r1, r1, #19
 800119a:	430e      	orrs	r6, r1
 800119c:	2a1b      	cmp	r2, #27
 800119e:	dc7b      	bgt.n	8001298 <__aeabi_fsub+0x1cc>
 80011a0:	0031      	movs	r1, r6
 80011a2:	2020      	movs	r0, #32
 80011a4:	40d1      	lsrs	r1, r2
 80011a6:	1a82      	subs	r2, r0, r2
 80011a8:	4096      	lsls	r6, r2
 80011aa:	1e72      	subs	r2, r6, #1
 80011ac:	4196      	sbcs	r6, r2
 80011ae:	430e      	orrs	r6, r1
 80011b0:	1b9b      	subs	r3, r3, r6
 80011b2:	015a      	lsls	r2, r3, #5
 80011b4:	d4ba      	bmi.n	800112c <__aeabi_fsub+0x60>
 80011b6:	075a      	lsls	r2, r3, #29
 80011b8:	d1d0      	bne.n	800115c <__aeabi_fsub+0x90>
 80011ba:	2201      	movs	r2, #1
 80011bc:	08df      	lsrs	r7, r3, #3
 80011be:	402a      	ands	r2, r5
 80011c0:	2cff      	cmp	r4, #255	; 0xff
 80011c2:	d133      	bne.n	800122c <__aeabi_fsub+0x160>
 80011c4:	2f00      	cmp	r7, #0
 80011c6:	d100      	bne.n	80011ca <__aeabi_fsub+0xfe>
 80011c8:	e0a8      	b.n	800131c <__aeabi_fsub+0x250>
 80011ca:	2380      	movs	r3, #128	; 0x80
 80011cc:	03db      	lsls	r3, r3, #15
 80011ce:	433b      	orrs	r3, r7
 80011d0:	025b      	lsls	r3, r3, #9
 80011d2:	0a5b      	lsrs	r3, r3, #9
 80011d4:	24ff      	movs	r4, #255	; 0xff
 80011d6:	e7d1      	b.n	800117c <__aeabi_fsub+0xb0>
 80011d8:	1a21      	subs	r1, r4, r0
 80011da:	2900      	cmp	r1, #0
 80011dc:	dd4c      	ble.n	8001278 <__aeabi_fsub+0x1ac>
 80011de:	2800      	cmp	r0, #0
 80011e0:	d02a      	beq.n	8001238 <__aeabi_fsub+0x16c>
 80011e2:	2cff      	cmp	r4, #255	; 0xff
 80011e4:	d0b8      	beq.n	8001158 <__aeabi_fsub+0x8c>
 80011e6:	2080      	movs	r0, #128	; 0x80
 80011e8:	04c0      	lsls	r0, r0, #19
 80011ea:	4306      	orrs	r6, r0
 80011ec:	291b      	cmp	r1, #27
 80011ee:	dd00      	ble.n	80011f2 <__aeabi_fsub+0x126>
 80011f0:	e0af      	b.n	8001352 <__aeabi_fsub+0x286>
 80011f2:	0030      	movs	r0, r6
 80011f4:	2720      	movs	r7, #32
 80011f6:	40c8      	lsrs	r0, r1
 80011f8:	1a79      	subs	r1, r7, r1
 80011fa:	408e      	lsls	r6, r1
 80011fc:	1e71      	subs	r1, r6, #1
 80011fe:	418e      	sbcs	r6, r1
 8001200:	4306      	orrs	r6, r0
 8001202:	199b      	adds	r3, r3, r6
 8001204:	0159      	lsls	r1, r3, #5
 8001206:	d5d6      	bpl.n	80011b6 <__aeabi_fsub+0xea>
 8001208:	3401      	adds	r4, #1
 800120a:	2cff      	cmp	r4, #255	; 0xff
 800120c:	d100      	bne.n	8001210 <__aeabi_fsub+0x144>
 800120e:	e085      	b.n	800131c <__aeabi_fsub+0x250>
 8001210:	2201      	movs	r2, #1
 8001212:	497a      	ldr	r1, [pc, #488]	; (80013fc <__aeabi_fsub+0x330>)
 8001214:	401a      	ands	r2, r3
 8001216:	085b      	lsrs	r3, r3, #1
 8001218:	400b      	ands	r3, r1
 800121a:	4313      	orrs	r3, r2
 800121c:	e79c      	b.n	8001158 <__aeabi_fsub+0x8c>
 800121e:	2e00      	cmp	r6, #0
 8001220:	d000      	beq.n	8001224 <__aeabi_fsub+0x158>
 8001222:	e770      	b.n	8001106 <__aeabi_fsub+0x3a>
 8001224:	e76b      	b.n	80010fe <__aeabi_fsub+0x32>
 8001226:	1e3b      	subs	r3, r7, #0
 8001228:	d1c5      	bne.n	80011b6 <__aeabi_fsub+0xea>
 800122a:	2200      	movs	r2, #0
 800122c:	027b      	lsls	r3, r7, #9
 800122e:	0a5b      	lsrs	r3, r3, #9
 8001230:	b2e4      	uxtb	r4, r4
 8001232:	e7a3      	b.n	800117c <__aeabi_fsub+0xb0>
 8001234:	0014      	movs	r4, r2
 8001236:	e78f      	b.n	8001158 <__aeabi_fsub+0x8c>
 8001238:	2e00      	cmp	r6, #0
 800123a:	d04d      	beq.n	80012d8 <__aeabi_fsub+0x20c>
 800123c:	1e48      	subs	r0, r1, #1
 800123e:	2800      	cmp	r0, #0
 8001240:	d157      	bne.n	80012f2 <__aeabi_fsub+0x226>
 8001242:	199b      	adds	r3, r3, r6
 8001244:	2401      	movs	r4, #1
 8001246:	015a      	lsls	r2, r3, #5
 8001248:	d5b5      	bpl.n	80011b6 <__aeabi_fsub+0xea>
 800124a:	2402      	movs	r4, #2
 800124c:	e7e0      	b.n	8001210 <__aeabi_fsub+0x144>
 800124e:	2a00      	cmp	r2, #0
 8001250:	d125      	bne.n	800129e <__aeabi_fsub+0x1d2>
 8001252:	1c62      	adds	r2, r4, #1
 8001254:	b2d2      	uxtb	r2, r2
 8001256:	2a01      	cmp	r2, #1
 8001258:	dd72      	ble.n	8001340 <__aeabi_fsub+0x274>
 800125a:	1b9f      	subs	r7, r3, r6
 800125c:	017a      	lsls	r2, r7, #5
 800125e:	d535      	bpl.n	80012cc <__aeabi_fsub+0x200>
 8001260:	1af7      	subs	r7, r6, r3
 8001262:	000d      	movs	r5, r1
 8001264:	e764      	b.n	8001130 <__aeabi_fsub+0x64>
 8001266:	2201      	movs	r2, #1
 8001268:	2300      	movs	r3, #0
 800126a:	402a      	ands	r2, r5
 800126c:	e786      	b.n	800117c <__aeabi_fsub+0xb0>
 800126e:	003b      	movs	r3, r7
 8001270:	4a63      	ldr	r2, [pc, #396]	; (8001400 <__aeabi_fsub+0x334>)
 8001272:	1a24      	subs	r4, r4, r0
 8001274:	4013      	ands	r3, r2
 8001276:	e76f      	b.n	8001158 <__aeabi_fsub+0x8c>
 8001278:	2900      	cmp	r1, #0
 800127a:	d16c      	bne.n	8001356 <__aeabi_fsub+0x28a>
 800127c:	1c61      	adds	r1, r4, #1
 800127e:	b2c8      	uxtb	r0, r1
 8001280:	2801      	cmp	r0, #1
 8001282:	dd4e      	ble.n	8001322 <__aeabi_fsub+0x256>
 8001284:	29ff      	cmp	r1, #255	; 0xff
 8001286:	d049      	beq.n	800131c <__aeabi_fsub+0x250>
 8001288:	199b      	adds	r3, r3, r6
 800128a:	085b      	lsrs	r3, r3, #1
 800128c:	000c      	movs	r4, r1
 800128e:	e763      	b.n	8001158 <__aeabi_fsub+0x8c>
 8001290:	2aff      	cmp	r2, #255	; 0xff
 8001292:	d041      	beq.n	8001318 <__aeabi_fsub+0x24c>
 8001294:	000a      	movs	r2, r1
 8001296:	e781      	b.n	800119c <__aeabi_fsub+0xd0>
 8001298:	2601      	movs	r6, #1
 800129a:	1b9b      	subs	r3, r3, r6
 800129c:	e789      	b.n	80011b2 <__aeabi_fsub+0xe6>
 800129e:	2c00      	cmp	r4, #0
 80012a0:	d01c      	beq.n	80012dc <__aeabi_fsub+0x210>
 80012a2:	28ff      	cmp	r0, #255	; 0xff
 80012a4:	d021      	beq.n	80012ea <__aeabi_fsub+0x21e>
 80012a6:	2480      	movs	r4, #128	; 0x80
 80012a8:	04e4      	lsls	r4, r4, #19
 80012aa:	4252      	negs	r2, r2
 80012ac:	4323      	orrs	r3, r4
 80012ae:	2a1b      	cmp	r2, #27
 80012b0:	dd00      	ble.n	80012b4 <__aeabi_fsub+0x1e8>
 80012b2:	e096      	b.n	80013e2 <__aeabi_fsub+0x316>
 80012b4:	001c      	movs	r4, r3
 80012b6:	2520      	movs	r5, #32
 80012b8:	40d4      	lsrs	r4, r2
 80012ba:	1aaa      	subs	r2, r5, r2
 80012bc:	4093      	lsls	r3, r2
 80012be:	1e5a      	subs	r2, r3, #1
 80012c0:	4193      	sbcs	r3, r2
 80012c2:	4323      	orrs	r3, r4
 80012c4:	1af3      	subs	r3, r6, r3
 80012c6:	0004      	movs	r4, r0
 80012c8:	000d      	movs	r5, r1
 80012ca:	e72d      	b.n	8001128 <__aeabi_fsub+0x5c>
 80012cc:	2f00      	cmp	r7, #0
 80012ce:	d000      	beq.n	80012d2 <__aeabi_fsub+0x206>
 80012d0:	e72e      	b.n	8001130 <__aeabi_fsub+0x64>
 80012d2:	2200      	movs	r2, #0
 80012d4:	2400      	movs	r4, #0
 80012d6:	e7a9      	b.n	800122c <__aeabi_fsub+0x160>
 80012d8:	000c      	movs	r4, r1
 80012da:	e73d      	b.n	8001158 <__aeabi_fsub+0x8c>
 80012dc:	2b00      	cmp	r3, #0
 80012de:	d058      	beq.n	8001392 <__aeabi_fsub+0x2c6>
 80012e0:	43d2      	mvns	r2, r2
 80012e2:	2a00      	cmp	r2, #0
 80012e4:	d0ee      	beq.n	80012c4 <__aeabi_fsub+0x1f8>
 80012e6:	28ff      	cmp	r0, #255	; 0xff
 80012e8:	d1e1      	bne.n	80012ae <__aeabi_fsub+0x1e2>
 80012ea:	0033      	movs	r3, r6
 80012ec:	24ff      	movs	r4, #255	; 0xff
 80012ee:	000d      	movs	r5, r1
 80012f0:	e732      	b.n	8001158 <__aeabi_fsub+0x8c>
 80012f2:	29ff      	cmp	r1, #255	; 0xff
 80012f4:	d010      	beq.n	8001318 <__aeabi_fsub+0x24c>
 80012f6:	0001      	movs	r1, r0
 80012f8:	e778      	b.n	80011ec <__aeabi_fsub+0x120>
 80012fa:	2b00      	cmp	r3, #0
 80012fc:	d06e      	beq.n	80013dc <__aeabi_fsub+0x310>
 80012fe:	24ff      	movs	r4, #255	; 0xff
 8001300:	2e00      	cmp	r6, #0
 8001302:	d100      	bne.n	8001306 <__aeabi_fsub+0x23a>
 8001304:	e728      	b.n	8001158 <__aeabi_fsub+0x8c>
 8001306:	2280      	movs	r2, #128	; 0x80
 8001308:	4651      	mov	r1, sl
 800130a:	03d2      	lsls	r2, r2, #15
 800130c:	4211      	tst	r1, r2
 800130e:	d003      	beq.n	8001318 <__aeabi_fsub+0x24c>
 8001310:	4661      	mov	r1, ip
 8001312:	4211      	tst	r1, r2
 8001314:	d100      	bne.n	8001318 <__aeabi_fsub+0x24c>
 8001316:	0033      	movs	r3, r6
 8001318:	24ff      	movs	r4, #255	; 0xff
 800131a:	e71d      	b.n	8001158 <__aeabi_fsub+0x8c>
 800131c:	24ff      	movs	r4, #255	; 0xff
 800131e:	2300      	movs	r3, #0
 8001320:	e72c      	b.n	800117c <__aeabi_fsub+0xb0>
 8001322:	2c00      	cmp	r4, #0
 8001324:	d1e9      	bne.n	80012fa <__aeabi_fsub+0x22e>
 8001326:	2b00      	cmp	r3, #0
 8001328:	d063      	beq.n	80013f2 <__aeabi_fsub+0x326>
 800132a:	2e00      	cmp	r6, #0
 800132c:	d100      	bne.n	8001330 <__aeabi_fsub+0x264>
 800132e:	e713      	b.n	8001158 <__aeabi_fsub+0x8c>
 8001330:	199b      	adds	r3, r3, r6
 8001332:	015a      	lsls	r2, r3, #5
 8001334:	d400      	bmi.n	8001338 <__aeabi_fsub+0x26c>
 8001336:	e73e      	b.n	80011b6 <__aeabi_fsub+0xea>
 8001338:	4a31      	ldr	r2, [pc, #196]	; (8001400 <__aeabi_fsub+0x334>)
 800133a:	000c      	movs	r4, r1
 800133c:	4013      	ands	r3, r2
 800133e:	e70b      	b.n	8001158 <__aeabi_fsub+0x8c>
 8001340:	2c00      	cmp	r4, #0
 8001342:	d11e      	bne.n	8001382 <__aeabi_fsub+0x2b6>
 8001344:	2b00      	cmp	r3, #0
 8001346:	d12f      	bne.n	80013a8 <__aeabi_fsub+0x2dc>
 8001348:	2e00      	cmp	r6, #0
 800134a:	d04f      	beq.n	80013ec <__aeabi_fsub+0x320>
 800134c:	0033      	movs	r3, r6
 800134e:	000d      	movs	r5, r1
 8001350:	e702      	b.n	8001158 <__aeabi_fsub+0x8c>
 8001352:	2601      	movs	r6, #1
 8001354:	e755      	b.n	8001202 <__aeabi_fsub+0x136>
 8001356:	2c00      	cmp	r4, #0
 8001358:	d11f      	bne.n	800139a <__aeabi_fsub+0x2ce>
 800135a:	2b00      	cmp	r3, #0
 800135c:	d043      	beq.n	80013e6 <__aeabi_fsub+0x31a>
 800135e:	43c9      	mvns	r1, r1
 8001360:	2900      	cmp	r1, #0
 8001362:	d00b      	beq.n	800137c <__aeabi_fsub+0x2b0>
 8001364:	28ff      	cmp	r0, #255	; 0xff
 8001366:	d039      	beq.n	80013dc <__aeabi_fsub+0x310>
 8001368:	291b      	cmp	r1, #27
 800136a:	dc44      	bgt.n	80013f6 <__aeabi_fsub+0x32a>
 800136c:	001c      	movs	r4, r3
 800136e:	2720      	movs	r7, #32
 8001370:	40cc      	lsrs	r4, r1
 8001372:	1a79      	subs	r1, r7, r1
 8001374:	408b      	lsls	r3, r1
 8001376:	1e59      	subs	r1, r3, #1
 8001378:	418b      	sbcs	r3, r1
 800137a:	4323      	orrs	r3, r4
 800137c:	199b      	adds	r3, r3, r6
 800137e:	0004      	movs	r4, r0
 8001380:	e740      	b.n	8001204 <__aeabi_fsub+0x138>
 8001382:	2b00      	cmp	r3, #0
 8001384:	d11a      	bne.n	80013bc <__aeabi_fsub+0x2f0>
 8001386:	2e00      	cmp	r6, #0
 8001388:	d124      	bne.n	80013d4 <__aeabi_fsub+0x308>
 800138a:	2780      	movs	r7, #128	; 0x80
 800138c:	2200      	movs	r2, #0
 800138e:	03ff      	lsls	r7, r7, #15
 8001390:	e71b      	b.n	80011ca <__aeabi_fsub+0xfe>
 8001392:	0033      	movs	r3, r6
 8001394:	0004      	movs	r4, r0
 8001396:	000d      	movs	r5, r1
 8001398:	e6de      	b.n	8001158 <__aeabi_fsub+0x8c>
 800139a:	28ff      	cmp	r0, #255	; 0xff
 800139c:	d01e      	beq.n	80013dc <__aeabi_fsub+0x310>
 800139e:	2480      	movs	r4, #128	; 0x80
 80013a0:	04e4      	lsls	r4, r4, #19
 80013a2:	4249      	negs	r1, r1
 80013a4:	4323      	orrs	r3, r4
 80013a6:	e7df      	b.n	8001368 <__aeabi_fsub+0x29c>
 80013a8:	2e00      	cmp	r6, #0
 80013aa:	d100      	bne.n	80013ae <__aeabi_fsub+0x2e2>
 80013ac:	e6d4      	b.n	8001158 <__aeabi_fsub+0x8c>
 80013ae:	1b9f      	subs	r7, r3, r6
 80013b0:	017a      	lsls	r2, r7, #5
 80013b2:	d400      	bmi.n	80013b6 <__aeabi_fsub+0x2ea>
 80013b4:	e737      	b.n	8001226 <__aeabi_fsub+0x15a>
 80013b6:	1af3      	subs	r3, r6, r3
 80013b8:	000d      	movs	r5, r1
 80013ba:	e6cd      	b.n	8001158 <__aeabi_fsub+0x8c>
 80013bc:	24ff      	movs	r4, #255	; 0xff
 80013be:	2e00      	cmp	r6, #0
 80013c0:	d100      	bne.n	80013c4 <__aeabi_fsub+0x2f8>
 80013c2:	e6c9      	b.n	8001158 <__aeabi_fsub+0x8c>
 80013c4:	2280      	movs	r2, #128	; 0x80
 80013c6:	4650      	mov	r0, sl
 80013c8:	03d2      	lsls	r2, r2, #15
 80013ca:	4210      	tst	r0, r2
 80013cc:	d0a4      	beq.n	8001318 <__aeabi_fsub+0x24c>
 80013ce:	4660      	mov	r0, ip
 80013d0:	4210      	tst	r0, r2
 80013d2:	d1a1      	bne.n	8001318 <__aeabi_fsub+0x24c>
 80013d4:	0033      	movs	r3, r6
 80013d6:	000d      	movs	r5, r1
 80013d8:	24ff      	movs	r4, #255	; 0xff
 80013da:	e6bd      	b.n	8001158 <__aeabi_fsub+0x8c>
 80013dc:	0033      	movs	r3, r6
 80013de:	24ff      	movs	r4, #255	; 0xff
 80013e0:	e6ba      	b.n	8001158 <__aeabi_fsub+0x8c>
 80013e2:	2301      	movs	r3, #1
 80013e4:	e76e      	b.n	80012c4 <__aeabi_fsub+0x1f8>
 80013e6:	0033      	movs	r3, r6
 80013e8:	0004      	movs	r4, r0
 80013ea:	e6b5      	b.n	8001158 <__aeabi_fsub+0x8c>
 80013ec:	2700      	movs	r7, #0
 80013ee:	2200      	movs	r2, #0
 80013f0:	e71c      	b.n	800122c <__aeabi_fsub+0x160>
 80013f2:	0033      	movs	r3, r6
 80013f4:	e6b0      	b.n	8001158 <__aeabi_fsub+0x8c>
 80013f6:	2301      	movs	r3, #1
 80013f8:	e7c0      	b.n	800137c <__aeabi_fsub+0x2b0>
 80013fa:	46c0      	nop			; (mov r8, r8)
 80013fc:	7dffffff 	.word	0x7dffffff
 8001400:	fbffffff 	.word	0xfbffffff

08001404 <__aeabi_f2iz>:
 8001404:	0241      	lsls	r1, r0, #9
 8001406:	0043      	lsls	r3, r0, #1
 8001408:	0fc2      	lsrs	r2, r0, #31
 800140a:	0a49      	lsrs	r1, r1, #9
 800140c:	0e1b      	lsrs	r3, r3, #24
 800140e:	2000      	movs	r0, #0
 8001410:	2b7e      	cmp	r3, #126	; 0x7e
 8001412:	dd0d      	ble.n	8001430 <__aeabi_f2iz+0x2c>
 8001414:	2b9d      	cmp	r3, #157	; 0x9d
 8001416:	dc0c      	bgt.n	8001432 <__aeabi_f2iz+0x2e>
 8001418:	2080      	movs	r0, #128	; 0x80
 800141a:	0400      	lsls	r0, r0, #16
 800141c:	4301      	orrs	r1, r0
 800141e:	2b95      	cmp	r3, #149	; 0x95
 8001420:	dc0a      	bgt.n	8001438 <__aeabi_f2iz+0x34>
 8001422:	2096      	movs	r0, #150	; 0x96
 8001424:	1ac3      	subs	r3, r0, r3
 8001426:	40d9      	lsrs	r1, r3
 8001428:	4248      	negs	r0, r1
 800142a:	2a00      	cmp	r2, #0
 800142c:	d100      	bne.n	8001430 <__aeabi_f2iz+0x2c>
 800142e:	0008      	movs	r0, r1
 8001430:	4770      	bx	lr
 8001432:	4b03      	ldr	r3, [pc, #12]	; (8001440 <__aeabi_f2iz+0x3c>)
 8001434:	18d0      	adds	r0, r2, r3
 8001436:	e7fb      	b.n	8001430 <__aeabi_f2iz+0x2c>
 8001438:	3b96      	subs	r3, #150	; 0x96
 800143a:	4099      	lsls	r1, r3
 800143c:	e7f4      	b.n	8001428 <__aeabi_f2iz+0x24>
 800143e:	46c0      	nop			; (mov r8, r8)
 8001440:	7fffffff 	.word	0x7fffffff

08001444 <__aeabi_i2f>:
 8001444:	b570      	push	{r4, r5, r6, lr}
 8001446:	2800      	cmp	r0, #0
 8001448:	d030      	beq.n	80014ac <__aeabi_i2f+0x68>
 800144a:	17c3      	asrs	r3, r0, #31
 800144c:	18c4      	adds	r4, r0, r3
 800144e:	405c      	eors	r4, r3
 8001450:	0fc5      	lsrs	r5, r0, #31
 8001452:	0020      	movs	r0, r4
 8001454:	f001 fe9e 	bl	8003194 <__clzsi2>
 8001458:	239e      	movs	r3, #158	; 0x9e
 800145a:	1a1b      	subs	r3, r3, r0
 800145c:	2b96      	cmp	r3, #150	; 0x96
 800145e:	dc0d      	bgt.n	800147c <__aeabi_i2f+0x38>
 8001460:	2296      	movs	r2, #150	; 0x96
 8001462:	1ad2      	subs	r2, r2, r3
 8001464:	4094      	lsls	r4, r2
 8001466:	002a      	movs	r2, r5
 8001468:	0264      	lsls	r4, r4, #9
 800146a:	0a64      	lsrs	r4, r4, #9
 800146c:	b2db      	uxtb	r3, r3
 800146e:	0264      	lsls	r4, r4, #9
 8001470:	05db      	lsls	r3, r3, #23
 8001472:	0a60      	lsrs	r0, r4, #9
 8001474:	07d2      	lsls	r2, r2, #31
 8001476:	4318      	orrs	r0, r3
 8001478:	4310      	orrs	r0, r2
 800147a:	bd70      	pop	{r4, r5, r6, pc}
 800147c:	2b99      	cmp	r3, #153	; 0x99
 800147e:	dc19      	bgt.n	80014b4 <__aeabi_i2f+0x70>
 8001480:	2299      	movs	r2, #153	; 0x99
 8001482:	1ad2      	subs	r2, r2, r3
 8001484:	2a00      	cmp	r2, #0
 8001486:	dd29      	ble.n	80014dc <__aeabi_i2f+0x98>
 8001488:	4094      	lsls	r4, r2
 800148a:	0022      	movs	r2, r4
 800148c:	4c14      	ldr	r4, [pc, #80]	; (80014e0 <__aeabi_i2f+0x9c>)
 800148e:	4014      	ands	r4, r2
 8001490:	0751      	lsls	r1, r2, #29
 8001492:	d004      	beq.n	800149e <__aeabi_i2f+0x5a>
 8001494:	210f      	movs	r1, #15
 8001496:	400a      	ands	r2, r1
 8001498:	2a04      	cmp	r2, #4
 800149a:	d000      	beq.n	800149e <__aeabi_i2f+0x5a>
 800149c:	3404      	adds	r4, #4
 800149e:	0162      	lsls	r2, r4, #5
 80014a0:	d413      	bmi.n	80014ca <__aeabi_i2f+0x86>
 80014a2:	01a4      	lsls	r4, r4, #6
 80014a4:	0a64      	lsrs	r4, r4, #9
 80014a6:	b2db      	uxtb	r3, r3
 80014a8:	002a      	movs	r2, r5
 80014aa:	e7e0      	b.n	800146e <__aeabi_i2f+0x2a>
 80014ac:	2200      	movs	r2, #0
 80014ae:	2300      	movs	r3, #0
 80014b0:	2400      	movs	r4, #0
 80014b2:	e7dc      	b.n	800146e <__aeabi_i2f+0x2a>
 80014b4:	2205      	movs	r2, #5
 80014b6:	0021      	movs	r1, r4
 80014b8:	1a12      	subs	r2, r2, r0
 80014ba:	40d1      	lsrs	r1, r2
 80014bc:	22b9      	movs	r2, #185	; 0xb9
 80014be:	1ad2      	subs	r2, r2, r3
 80014c0:	4094      	lsls	r4, r2
 80014c2:	1e62      	subs	r2, r4, #1
 80014c4:	4194      	sbcs	r4, r2
 80014c6:	430c      	orrs	r4, r1
 80014c8:	e7da      	b.n	8001480 <__aeabi_i2f+0x3c>
 80014ca:	4b05      	ldr	r3, [pc, #20]	; (80014e0 <__aeabi_i2f+0x9c>)
 80014cc:	002a      	movs	r2, r5
 80014ce:	401c      	ands	r4, r3
 80014d0:	239f      	movs	r3, #159	; 0x9f
 80014d2:	01a4      	lsls	r4, r4, #6
 80014d4:	1a1b      	subs	r3, r3, r0
 80014d6:	0a64      	lsrs	r4, r4, #9
 80014d8:	b2db      	uxtb	r3, r3
 80014da:	e7c8      	b.n	800146e <__aeabi_i2f+0x2a>
 80014dc:	0022      	movs	r2, r4
 80014de:	e7d5      	b.n	800148c <__aeabi_i2f+0x48>
 80014e0:	fbffffff 	.word	0xfbffffff

080014e4 <__aeabi_ui2f>:
 80014e4:	b510      	push	{r4, lr}
 80014e6:	1e04      	subs	r4, r0, #0
 80014e8:	d027      	beq.n	800153a <__aeabi_ui2f+0x56>
 80014ea:	f001 fe53 	bl	8003194 <__clzsi2>
 80014ee:	239e      	movs	r3, #158	; 0x9e
 80014f0:	1a1b      	subs	r3, r3, r0
 80014f2:	2b96      	cmp	r3, #150	; 0x96
 80014f4:	dc0a      	bgt.n	800150c <__aeabi_ui2f+0x28>
 80014f6:	2296      	movs	r2, #150	; 0x96
 80014f8:	1ad2      	subs	r2, r2, r3
 80014fa:	4094      	lsls	r4, r2
 80014fc:	0264      	lsls	r4, r4, #9
 80014fe:	0a64      	lsrs	r4, r4, #9
 8001500:	b2db      	uxtb	r3, r3
 8001502:	0264      	lsls	r4, r4, #9
 8001504:	05db      	lsls	r3, r3, #23
 8001506:	0a60      	lsrs	r0, r4, #9
 8001508:	4318      	orrs	r0, r3
 800150a:	bd10      	pop	{r4, pc}
 800150c:	2b99      	cmp	r3, #153	; 0x99
 800150e:	dc17      	bgt.n	8001540 <__aeabi_ui2f+0x5c>
 8001510:	2299      	movs	r2, #153	; 0x99
 8001512:	1ad2      	subs	r2, r2, r3
 8001514:	2a00      	cmp	r2, #0
 8001516:	dd27      	ble.n	8001568 <__aeabi_ui2f+0x84>
 8001518:	4094      	lsls	r4, r2
 800151a:	0022      	movs	r2, r4
 800151c:	4c13      	ldr	r4, [pc, #76]	; (800156c <__aeabi_ui2f+0x88>)
 800151e:	4014      	ands	r4, r2
 8001520:	0751      	lsls	r1, r2, #29
 8001522:	d004      	beq.n	800152e <__aeabi_ui2f+0x4a>
 8001524:	210f      	movs	r1, #15
 8001526:	400a      	ands	r2, r1
 8001528:	2a04      	cmp	r2, #4
 800152a:	d000      	beq.n	800152e <__aeabi_ui2f+0x4a>
 800152c:	3404      	adds	r4, #4
 800152e:	0162      	lsls	r2, r4, #5
 8001530:	d412      	bmi.n	8001558 <__aeabi_ui2f+0x74>
 8001532:	01a4      	lsls	r4, r4, #6
 8001534:	0a64      	lsrs	r4, r4, #9
 8001536:	b2db      	uxtb	r3, r3
 8001538:	e7e3      	b.n	8001502 <__aeabi_ui2f+0x1e>
 800153a:	2300      	movs	r3, #0
 800153c:	2400      	movs	r4, #0
 800153e:	e7e0      	b.n	8001502 <__aeabi_ui2f+0x1e>
 8001540:	22b9      	movs	r2, #185	; 0xb9
 8001542:	0021      	movs	r1, r4
 8001544:	1ad2      	subs	r2, r2, r3
 8001546:	4091      	lsls	r1, r2
 8001548:	000a      	movs	r2, r1
 800154a:	1e51      	subs	r1, r2, #1
 800154c:	418a      	sbcs	r2, r1
 800154e:	2105      	movs	r1, #5
 8001550:	1a09      	subs	r1, r1, r0
 8001552:	40cc      	lsrs	r4, r1
 8001554:	4314      	orrs	r4, r2
 8001556:	e7db      	b.n	8001510 <__aeabi_ui2f+0x2c>
 8001558:	4b04      	ldr	r3, [pc, #16]	; (800156c <__aeabi_ui2f+0x88>)
 800155a:	401c      	ands	r4, r3
 800155c:	239f      	movs	r3, #159	; 0x9f
 800155e:	01a4      	lsls	r4, r4, #6
 8001560:	1a1b      	subs	r3, r3, r0
 8001562:	0a64      	lsrs	r4, r4, #9
 8001564:	b2db      	uxtb	r3, r3
 8001566:	e7cc      	b.n	8001502 <__aeabi_ui2f+0x1e>
 8001568:	0022      	movs	r2, r4
 800156a:	e7d7      	b.n	800151c <__aeabi_ui2f+0x38>
 800156c:	fbffffff 	.word	0xfbffffff

08001570 <__aeabi_dadd>:
 8001570:	b5f8      	push	{r3, r4, r5, r6, r7, lr}
 8001572:	4645      	mov	r5, r8
 8001574:	46de      	mov	lr, fp
 8001576:	4657      	mov	r7, sl
 8001578:	464e      	mov	r6, r9
 800157a:	030c      	lsls	r4, r1, #12
 800157c:	b5e0      	push	{r5, r6, r7, lr}
 800157e:	004e      	lsls	r6, r1, #1
 8001580:	0fc9      	lsrs	r1, r1, #31
 8001582:	4688      	mov	r8, r1
 8001584:	000d      	movs	r5, r1
 8001586:	0a61      	lsrs	r1, r4, #9
 8001588:	0f44      	lsrs	r4, r0, #29
 800158a:	430c      	orrs	r4, r1
 800158c:	00c7      	lsls	r7, r0, #3
 800158e:	0319      	lsls	r1, r3, #12
 8001590:	0058      	lsls	r0, r3, #1
 8001592:	0fdb      	lsrs	r3, r3, #31
 8001594:	469b      	mov	fp, r3
 8001596:	0a4b      	lsrs	r3, r1, #9
 8001598:	0f51      	lsrs	r1, r2, #29
 800159a:	430b      	orrs	r3, r1
 800159c:	0d76      	lsrs	r6, r6, #21
 800159e:	0d40      	lsrs	r0, r0, #21
 80015a0:	0019      	movs	r1, r3
 80015a2:	00d2      	lsls	r2, r2, #3
 80015a4:	45d8      	cmp	r8, fp
 80015a6:	d100      	bne.n	80015aa <__aeabi_dadd+0x3a>
 80015a8:	e0ae      	b.n	8001708 <__aeabi_dadd+0x198>
 80015aa:	1a35      	subs	r5, r6, r0
 80015ac:	2d00      	cmp	r5, #0
 80015ae:	dc00      	bgt.n	80015b2 <__aeabi_dadd+0x42>
 80015b0:	e0f6      	b.n	80017a0 <__aeabi_dadd+0x230>
 80015b2:	2800      	cmp	r0, #0
 80015b4:	d10f      	bne.n	80015d6 <__aeabi_dadd+0x66>
 80015b6:	4313      	orrs	r3, r2
 80015b8:	d100      	bne.n	80015bc <__aeabi_dadd+0x4c>
 80015ba:	e0db      	b.n	8001774 <__aeabi_dadd+0x204>
 80015bc:	1e6b      	subs	r3, r5, #1
 80015be:	2b00      	cmp	r3, #0
 80015c0:	d000      	beq.n	80015c4 <__aeabi_dadd+0x54>
 80015c2:	e137      	b.n	8001834 <__aeabi_dadd+0x2c4>
 80015c4:	1aba      	subs	r2, r7, r2
 80015c6:	4297      	cmp	r7, r2
 80015c8:	41bf      	sbcs	r7, r7
 80015ca:	1a64      	subs	r4, r4, r1
 80015cc:	427f      	negs	r7, r7
 80015ce:	1be4      	subs	r4, r4, r7
 80015d0:	2601      	movs	r6, #1
 80015d2:	0017      	movs	r7, r2
 80015d4:	e024      	b.n	8001620 <__aeabi_dadd+0xb0>
 80015d6:	4bc6      	ldr	r3, [pc, #792]	; (80018f0 <__aeabi_dadd+0x380>)
 80015d8:	429e      	cmp	r6, r3
 80015da:	d04d      	beq.n	8001678 <__aeabi_dadd+0x108>
 80015dc:	2380      	movs	r3, #128	; 0x80
 80015de:	041b      	lsls	r3, r3, #16
 80015e0:	4319      	orrs	r1, r3
 80015e2:	2d38      	cmp	r5, #56	; 0x38
 80015e4:	dd00      	ble.n	80015e8 <__aeabi_dadd+0x78>
 80015e6:	e107      	b.n	80017f8 <__aeabi_dadd+0x288>
 80015e8:	2d1f      	cmp	r5, #31
 80015ea:	dd00      	ble.n	80015ee <__aeabi_dadd+0x7e>
 80015ec:	e138      	b.n	8001860 <__aeabi_dadd+0x2f0>
 80015ee:	2020      	movs	r0, #32
 80015f0:	1b43      	subs	r3, r0, r5
 80015f2:	469a      	mov	sl, r3
 80015f4:	000b      	movs	r3, r1
 80015f6:	4650      	mov	r0, sl
 80015f8:	4083      	lsls	r3, r0
 80015fa:	4699      	mov	r9, r3
 80015fc:	0013      	movs	r3, r2
 80015fe:	4648      	mov	r0, r9
 8001600:	40eb      	lsrs	r3, r5
 8001602:	4318      	orrs	r0, r3
 8001604:	0003      	movs	r3, r0
 8001606:	4650      	mov	r0, sl
 8001608:	4082      	lsls	r2, r0
 800160a:	1e50      	subs	r0, r2, #1
 800160c:	4182      	sbcs	r2, r0
 800160e:	40e9      	lsrs	r1, r5
 8001610:	431a      	orrs	r2, r3
 8001612:	1aba      	subs	r2, r7, r2
 8001614:	1a61      	subs	r1, r4, r1
 8001616:	4297      	cmp	r7, r2
 8001618:	41a4      	sbcs	r4, r4
 800161a:	0017      	movs	r7, r2
 800161c:	4264      	negs	r4, r4
 800161e:	1b0c      	subs	r4, r1, r4
 8001620:	0223      	lsls	r3, r4, #8
 8001622:	d562      	bpl.n	80016ea <__aeabi_dadd+0x17a>
 8001624:	0264      	lsls	r4, r4, #9
 8001626:	0a65      	lsrs	r5, r4, #9
 8001628:	2d00      	cmp	r5, #0
 800162a:	d100      	bne.n	800162e <__aeabi_dadd+0xbe>
 800162c:	e0df      	b.n	80017ee <__aeabi_dadd+0x27e>
 800162e:	0028      	movs	r0, r5
 8001630:	f001 fdb0 	bl	8003194 <__clzsi2>
 8001634:	0003      	movs	r3, r0
 8001636:	3b08      	subs	r3, #8
 8001638:	2b1f      	cmp	r3, #31
 800163a:	dd00      	ble.n	800163e <__aeabi_dadd+0xce>
 800163c:	e0d2      	b.n	80017e4 <__aeabi_dadd+0x274>
 800163e:	2220      	movs	r2, #32
 8001640:	003c      	movs	r4, r7
 8001642:	1ad2      	subs	r2, r2, r3
 8001644:	409d      	lsls	r5, r3
 8001646:	40d4      	lsrs	r4, r2
 8001648:	409f      	lsls	r7, r3
 800164a:	4325      	orrs	r5, r4
 800164c:	429e      	cmp	r6, r3
 800164e:	dd00      	ble.n	8001652 <__aeabi_dadd+0xe2>
 8001650:	e0c4      	b.n	80017dc <__aeabi_dadd+0x26c>
 8001652:	1b9e      	subs	r6, r3, r6
 8001654:	1c73      	adds	r3, r6, #1
 8001656:	2b1f      	cmp	r3, #31
 8001658:	dd00      	ble.n	800165c <__aeabi_dadd+0xec>
 800165a:	e0f1      	b.n	8001840 <__aeabi_dadd+0x2d0>
 800165c:	2220      	movs	r2, #32
 800165e:	0038      	movs	r0, r7
 8001660:	0029      	movs	r1, r5
 8001662:	1ad2      	subs	r2, r2, r3
 8001664:	40d8      	lsrs	r0, r3
 8001666:	4091      	lsls	r1, r2
 8001668:	4097      	lsls	r7, r2
 800166a:	002c      	movs	r4, r5
 800166c:	4301      	orrs	r1, r0
 800166e:	1e78      	subs	r0, r7, #1
 8001670:	4187      	sbcs	r7, r0
 8001672:	40dc      	lsrs	r4, r3
 8001674:	2600      	movs	r6, #0
 8001676:	430f      	orrs	r7, r1
 8001678:	077b      	lsls	r3, r7, #29
 800167a:	d009      	beq.n	8001690 <__aeabi_dadd+0x120>
 800167c:	230f      	movs	r3, #15
 800167e:	403b      	ands	r3, r7
 8001680:	2b04      	cmp	r3, #4
 8001682:	d005      	beq.n	8001690 <__aeabi_dadd+0x120>
 8001684:	1d3b      	adds	r3, r7, #4
 8001686:	42bb      	cmp	r3, r7
 8001688:	41bf      	sbcs	r7, r7
 800168a:	427f      	negs	r7, r7
 800168c:	19e4      	adds	r4, r4, r7
 800168e:	001f      	movs	r7, r3
 8001690:	0223      	lsls	r3, r4, #8
 8001692:	d52c      	bpl.n	80016ee <__aeabi_dadd+0x17e>
 8001694:	4b96      	ldr	r3, [pc, #600]	; (80018f0 <__aeabi_dadd+0x380>)
 8001696:	3601      	adds	r6, #1
 8001698:	429e      	cmp	r6, r3
 800169a:	d100      	bne.n	800169e <__aeabi_dadd+0x12e>
 800169c:	e09a      	b.n	80017d4 <__aeabi_dadd+0x264>
 800169e:	4645      	mov	r5, r8
 80016a0:	4b94      	ldr	r3, [pc, #592]	; (80018f4 <__aeabi_dadd+0x384>)
 80016a2:	08ff      	lsrs	r7, r7, #3
 80016a4:	401c      	ands	r4, r3
 80016a6:	0760      	lsls	r0, r4, #29
 80016a8:	0576      	lsls	r6, r6, #21
 80016aa:	0264      	lsls	r4, r4, #9
 80016ac:	4307      	orrs	r7, r0
 80016ae:	0b24      	lsrs	r4, r4, #12
 80016b0:	0d76      	lsrs	r6, r6, #21
 80016b2:	2100      	movs	r1, #0
 80016b4:	0324      	lsls	r4, r4, #12
 80016b6:	0b23      	lsrs	r3, r4, #12
 80016b8:	0d0c      	lsrs	r4, r1, #20
 80016ba:	4a8f      	ldr	r2, [pc, #572]	; (80018f8 <__aeabi_dadd+0x388>)
 80016bc:	0524      	lsls	r4, r4, #20
 80016be:	431c      	orrs	r4, r3
 80016c0:	4014      	ands	r4, r2
 80016c2:	0533      	lsls	r3, r6, #20
 80016c4:	4323      	orrs	r3, r4
 80016c6:	005b      	lsls	r3, r3, #1
 80016c8:	07ed      	lsls	r5, r5, #31
 80016ca:	085b      	lsrs	r3, r3, #1
 80016cc:	432b      	orrs	r3, r5
 80016ce:	0038      	movs	r0, r7
 80016d0:	0019      	movs	r1, r3
 80016d2:	bc3c      	pop	{r2, r3, r4, r5}
 80016d4:	4690      	mov	r8, r2
 80016d6:	4699      	mov	r9, r3
 80016d8:	46a2      	mov	sl, r4
 80016da:	46ab      	mov	fp, r5
 80016dc:	bdf8      	pop	{r3, r4, r5, r6, r7, pc}
 80016de:	4664      	mov	r4, ip
 80016e0:	4304      	orrs	r4, r0
 80016e2:	d100      	bne.n	80016e6 <__aeabi_dadd+0x176>
 80016e4:	e211      	b.n	8001b0a <__aeabi_dadd+0x59a>
 80016e6:	0004      	movs	r4, r0
 80016e8:	4667      	mov	r7, ip
 80016ea:	077b      	lsls	r3, r7, #29
 80016ec:	d1c6      	bne.n	800167c <__aeabi_dadd+0x10c>
 80016ee:	4645      	mov	r5, r8
 80016f0:	0760      	lsls	r0, r4, #29
 80016f2:	08ff      	lsrs	r7, r7, #3
 80016f4:	4307      	orrs	r7, r0
 80016f6:	08e4      	lsrs	r4, r4, #3
 80016f8:	4b7d      	ldr	r3, [pc, #500]	; (80018f0 <__aeabi_dadd+0x380>)
 80016fa:	429e      	cmp	r6, r3
 80016fc:	d030      	beq.n	8001760 <__aeabi_dadd+0x1f0>
 80016fe:	0324      	lsls	r4, r4, #12
 8001700:	0576      	lsls	r6, r6, #21
 8001702:	0b24      	lsrs	r4, r4, #12
 8001704:	0d76      	lsrs	r6, r6, #21
 8001706:	e7d4      	b.n	80016b2 <__aeabi_dadd+0x142>
 8001708:	1a33      	subs	r3, r6, r0
 800170a:	469a      	mov	sl, r3
 800170c:	2b00      	cmp	r3, #0
 800170e:	dd78      	ble.n	8001802 <__aeabi_dadd+0x292>
 8001710:	2800      	cmp	r0, #0
 8001712:	d031      	beq.n	8001778 <__aeabi_dadd+0x208>
 8001714:	4876      	ldr	r0, [pc, #472]	; (80018f0 <__aeabi_dadd+0x380>)
 8001716:	4286      	cmp	r6, r0
 8001718:	d0ae      	beq.n	8001678 <__aeabi_dadd+0x108>
 800171a:	2080      	movs	r0, #128	; 0x80
 800171c:	0400      	lsls	r0, r0, #16
 800171e:	4301      	orrs	r1, r0
 8001720:	4653      	mov	r3, sl
 8001722:	2b38      	cmp	r3, #56	; 0x38
 8001724:	dc00      	bgt.n	8001728 <__aeabi_dadd+0x1b8>
 8001726:	e0e9      	b.n	80018fc <__aeabi_dadd+0x38c>
 8001728:	430a      	orrs	r2, r1
 800172a:	1e51      	subs	r1, r2, #1
 800172c:	418a      	sbcs	r2, r1
 800172e:	2100      	movs	r1, #0
 8001730:	19d2      	adds	r2, r2, r7
 8001732:	42ba      	cmp	r2, r7
 8001734:	41bf      	sbcs	r7, r7
 8001736:	1909      	adds	r1, r1, r4
 8001738:	427c      	negs	r4, r7
 800173a:	0017      	movs	r7, r2
 800173c:	190c      	adds	r4, r1, r4
 800173e:	0223      	lsls	r3, r4, #8
 8001740:	d5d3      	bpl.n	80016ea <__aeabi_dadd+0x17a>
 8001742:	4b6b      	ldr	r3, [pc, #428]	; (80018f0 <__aeabi_dadd+0x380>)
 8001744:	3601      	adds	r6, #1
 8001746:	429e      	cmp	r6, r3
 8001748:	d100      	bne.n	800174c <__aeabi_dadd+0x1dc>
 800174a:	e13a      	b.n	80019c2 <__aeabi_dadd+0x452>
 800174c:	2001      	movs	r0, #1
 800174e:	4b69      	ldr	r3, [pc, #420]	; (80018f4 <__aeabi_dadd+0x384>)
 8001750:	401c      	ands	r4, r3
 8001752:	087b      	lsrs	r3, r7, #1
 8001754:	4007      	ands	r7, r0
 8001756:	431f      	orrs	r7, r3
 8001758:	07e0      	lsls	r0, r4, #31
 800175a:	4307      	orrs	r7, r0
 800175c:	0864      	lsrs	r4, r4, #1
 800175e:	e78b      	b.n	8001678 <__aeabi_dadd+0x108>
 8001760:	0023      	movs	r3, r4
 8001762:	433b      	orrs	r3, r7
 8001764:	d100      	bne.n	8001768 <__aeabi_dadd+0x1f8>
 8001766:	e1cb      	b.n	8001b00 <__aeabi_dadd+0x590>
 8001768:	2280      	movs	r2, #128	; 0x80
 800176a:	0312      	lsls	r2, r2, #12
 800176c:	4314      	orrs	r4, r2
 800176e:	0324      	lsls	r4, r4, #12
 8001770:	0b24      	lsrs	r4, r4, #12
 8001772:	e79e      	b.n	80016b2 <__aeabi_dadd+0x142>
 8001774:	002e      	movs	r6, r5
 8001776:	e77f      	b.n	8001678 <__aeabi_dadd+0x108>
 8001778:	0008      	movs	r0, r1
 800177a:	4310      	orrs	r0, r2
 800177c:	d100      	bne.n	8001780 <__aeabi_dadd+0x210>
 800177e:	e0b4      	b.n	80018ea <__aeabi_dadd+0x37a>
 8001780:	1e58      	subs	r0, r3, #1
 8001782:	2800      	cmp	r0, #0
 8001784:	d000      	beq.n	8001788 <__aeabi_dadd+0x218>
 8001786:	e0de      	b.n	8001946 <__aeabi_dadd+0x3d6>
 8001788:	18ba      	adds	r2, r7, r2
 800178a:	42ba      	cmp	r2, r7
 800178c:	419b      	sbcs	r3, r3
 800178e:	1864      	adds	r4, r4, r1
 8001790:	425b      	negs	r3, r3
 8001792:	18e4      	adds	r4, r4, r3
 8001794:	0017      	movs	r7, r2
 8001796:	2601      	movs	r6, #1
 8001798:	0223      	lsls	r3, r4, #8
 800179a:	d5a6      	bpl.n	80016ea <__aeabi_dadd+0x17a>
 800179c:	2602      	movs	r6, #2
 800179e:	e7d5      	b.n	800174c <__aeabi_dadd+0x1dc>
 80017a0:	2d00      	cmp	r5, #0
 80017a2:	d16e      	bne.n	8001882 <__aeabi_dadd+0x312>
 80017a4:	1c70      	adds	r0, r6, #1
 80017a6:	0540      	lsls	r0, r0, #21
 80017a8:	0d40      	lsrs	r0, r0, #21
 80017aa:	2801      	cmp	r0, #1
 80017ac:	dc00      	bgt.n	80017b0 <__aeabi_dadd+0x240>
 80017ae:	e0f9      	b.n	80019a4 <__aeabi_dadd+0x434>
 80017b0:	1ab8      	subs	r0, r7, r2
 80017b2:	4684      	mov	ip, r0
 80017b4:	4287      	cmp	r7, r0
 80017b6:	4180      	sbcs	r0, r0
 80017b8:	1ae5      	subs	r5, r4, r3
 80017ba:	4240      	negs	r0, r0
 80017bc:	1a2d      	subs	r5, r5, r0
 80017be:	0228      	lsls	r0, r5, #8
 80017c0:	d400      	bmi.n	80017c4 <__aeabi_dadd+0x254>
 80017c2:	e089      	b.n	80018d8 <__aeabi_dadd+0x368>
 80017c4:	1bd7      	subs	r7, r2, r7
 80017c6:	42ba      	cmp	r2, r7
 80017c8:	4192      	sbcs	r2, r2
 80017ca:	1b1c      	subs	r4, r3, r4
 80017cc:	4252      	negs	r2, r2
 80017ce:	1aa5      	subs	r5, r4, r2
 80017d0:	46d8      	mov	r8, fp
 80017d2:	e729      	b.n	8001628 <__aeabi_dadd+0xb8>
 80017d4:	4645      	mov	r5, r8
 80017d6:	2400      	movs	r4, #0
 80017d8:	2700      	movs	r7, #0
 80017da:	e76a      	b.n	80016b2 <__aeabi_dadd+0x142>
 80017dc:	4c45      	ldr	r4, [pc, #276]	; (80018f4 <__aeabi_dadd+0x384>)
 80017de:	1af6      	subs	r6, r6, r3
 80017e0:	402c      	ands	r4, r5
 80017e2:	e749      	b.n	8001678 <__aeabi_dadd+0x108>
 80017e4:	003d      	movs	r5, r7
 80017e6:	3828      	subs	r0, #40	; 0x28
 80017e8:	4085      	lsls	r5, r0
 80017ea:	2700      	movs	r7, #0
 80017ec:	e72e      	b.n	800164c <__aeabi_dadd+0xdc>
 80017ee:	0038      	movs	r0, r7
 80017f0:	f001 fcd0 	bl	8003194 <__clzsi2>
 80017f4:	3020      	adds	r0, #32
 80017f6:	e71d      	b.n	8001634 <__aeabi_dadd+0xc4>
 80017f8:	430a      	orrs	r2, r1
 80017fa:	1e51      	subs	r1, r2, #1
 80017fc:	418a      	sbcs	r2, r1
 80017fe:	2100      	movs	r1, #0
 8001800:	e707      	b.n	8001612 <__aeabi_dadd+0xa2>
 8001802:	2b00      	cmp	r3, #0
 8001804:	d000      	beq.n	8001808 <__aeabi_dadd+0x298>
 8001806:	e0f3      	b.n	80019f0 <__aeabi_dadd+0x480>
 8001808:	1c70      	adds	r0, r6, #1
 800180a:	0543      	lsls	r3, r0, #21
 800180c:	0d5b      	lsrs	r3, r3, #21
 800180e:	2b01      	cmp	r3, #1
 8001810:	dc00      	bgt.n	8001814 <__aeabi_dadd+0x2a4>
 8001812:	e0ad      	b.n	8001970 <__aeabi_dadd+0x400>
 8001814:	4b36      	ldr	r3, [pc, #216]	; (80018f0 <__aeabi_dadd+0x380>)
 8001816:	4298      	cmp	r0, r3
 8001818:	d100      	bne.n	800181c <__aeabi_dadd+0x2ac>
 800181a:	e0d1      	b.n	80019c0 <__aeabi_dadd+0x450>
 800181c:	18ba      	adds	r2, r7, r2
 800181e:	42ba      	cmp	r2, r7
 8001820:	41bf      	sbcs	r7, r7
 8001822:	1864      	adds	r4, r4, r1
 8001824:	427f      	negs	r7, r7
 8001826:	19e4      	adds	r4, r4, r7
 8001828:	07e7      	lsls	r7, r4, #31
 800182a:	0852      	lsrs	r2, r2, #1
 800182c:	4317      	orrs	r7, r2
 800182e:	0864      	lsrs	r4, r4, #1
 8001830:	0006      	movs	r6, r0
 8001832:	e721      	b.n	8001678 <__aeabi_dadd+0x108>
 8001834:	482e      	ldr	r0, [pc, #184]	; (80018f0 <__aeabi_dadd+0x380>)
 8001836:	4285      	cmp	r5, r0
 8001838:	d100      	bne.n	800183c <__aeabi_dadd+0x2cc>
 800183a:	e093      	b.n	8001964 <__aeabi_dadd+0x3f4>
 800183c:	001d      	movs	r5, r3
 800183e:	e6d0      	b.n	80015e2 <__aeabi_dadd+0x72>
 8001840:	0029      	movs	r1, r5
 8001842:	3e1f      	subs	r6, #31
 8001844:	40f1      	lsrs	r1, r6
 8001846:	2b20      	cmp	r3, #32
 8001848:	d100      	bne.n	800184c <__aeabi_dadd+0x2dc>
 800184a:	e08d      	b.n	8001968 <__aeabi_dadd+0x3f8>
 800184c:	2240      	movs	r2, #64	; 0x40
 800184e:	1ad3      	subs	r3, r2, r3
 8001850:	409d      	lsls	r5, r3
 8001852:	432f      	orrs	r7, r5
 8001854:	1e7d      	subs	r5, r7, #1
 8001856:	41af      	sbcs	r7, r5
 8001858:	2400      	movs	r4, #0
 800185a:	430f      	orrs	r7, r1
 800185c:	2600      	movs	r6, #0
 800185e:	e744      	b.n	80016ea <__aeabi_dadd+0x17a>
 8001860:	002b      	movs	r3, r5
 8001862:	0008      	movs	r0, r1
 8001864:	3b20      	subs	r3, #32
 8001866:	40d8      	lsrs	r0, r3
 8001868:	0003      	movs	r3, r0
 800186a:	2d20      	cmp	r5, #32
 800186c:	d100      	bne.n	8001870 <__aeabi_dadd+0x300>
 800186e:	e07d      	b.n	800196c <__aeabi_dadd+0x3fc>
 8001870:	2040      	movs	r0, #64	; 0x40
 8001872:	1b45      	subs	r5, r0, r5
 8001874:	40a9      	lsls	r1, r5
 8001876:	430a      	orrs	r2, r1
 8001878:	1e51      	subs	r1, r2, #1
 800187a:	418a      	sbcs	r2, r1
 800187c:	2100      	movs	r1, #0
 800187e:	431a      	orrs	r2, r3
 8001880:	e6c7      	b.n	8001612 <__aeabi_dadd+0xa2>
 8001882:	2e00      	cmp	r6, #0
 8001884:	d050      	beq.n	8001928 <__aeabi_dadd+0x3b8>
 8001886:	4e1a      	ldr	r6, [pc, #104]	; (80018f0 <__aeabi_dadd+0x380>)
 8001888:	42b0      	cmp	r0, r6
 800188a:	d057      	beq.n	800193c <__aeabi_dadd+0x3cc>
 800188c:	2680      	movs	r6, #128	; 0x80
 800188e:	426b      	negs	r3, r5
 8001890:	4699      	mov	r9, r3
 8001892:	0436      	lsls	r6, r6, #16
 8001894:	4334      	orrs	r4, r6
 8001896:	464b      	mov	r3, r9
 8001898:	2b38      	cmp	r3, #56	; 0x38
 800189a:	dd00      	ble.n	800189e <__aeabi_dadd+0x32e>
 800189c:	e0d6      	b.n	8001a4c <__aeabi_dadd+0x4dc>
 800189e:	2b1f      	cmp	r3, #31
 80018a0:	dd00      	ble.n	80018a4 <__aeabi_dadd+0x334>
 80018a2:	e135      	b.n	8001b10 <__aeabi_dadd+0x5a0>
 80018a4:	2620      	movs	r6, #32
 80018a6:	1af5      	subs	r5, r6, r3
 80018a8:	0026      	movs	r6, r4
 80018aa:	40ae      	lsls	r6, r5
 80018ac:	46b2      	mov	sl, r6
 80018ae:	003e      	movs	r6, r7
 80018b0:	40de      	lsrs	r6, r3
 80018b2:	46ac      	mov	ip, r5
 80018b4:	0035      	movs	r5, r6
 80018b6:	4656      	mov	r6, sl
 80018b8:	432e      	orrs	r6, r5
 80018ba:	4665      	mov	r5, ip
 80018bc:	40af      	lsls	r7, r5
 80018be:	1e7d      	subs	r5, r7, #1
 80018c0:	41af      	sbcs	r7, r5
 80018c2:	40dc      	lsrs	r4, r3
 80018c4:	4337      	orrs	r7, r6
 80018c6:	1bd7      	subs	r7, r2, r7
 80018c8:	42ba      	cmp	r2, r7
 80018ca:	4192      	sbcs	r2, r2
 80018cc:	1b0c      	subs	r4, r1, r4
 80018ce:	4252      	negs	r2, r2
 80018d0:	1aa4      	subs	r4, r4, r2
 80018d2:	0006      	movs	r6, r0
 80018d4:	46d8      	mov	r8, fp
 80018d6:	e6a3      	b.n	8001620 <__aeabi_dadd+0xb0>
 80018d8:	4664      	mov	r4, ip
 80018da:	4667      	mov	r7, ip
 80018dc:	432c      	orrs	r4, r5
 80018de:	d000      	beq.n	80018e2 <__aeabi_dadd+0x372>
 80018e0:	e6a2      	b.n	8001628 <__aeabi_dadd+0xb8>
 80018e2:	2500      	movs	r5, #0
 80018e4:	2600      	movs	r6, #0
 80018e6:	2700      	movs	r7, #0
 80018e8:	e706      	b.n	80016f8 <__aeabi_dadd+0x188>
 80018ea:	001e      	movs	r6, r3
 80018ec:	e6c4      	b.n	8001678 <__aeabi_dadd+0x108>
 80018ee:	46c0      	nop			; (mov r8, r8)
 80018f0:	000007ff 	.word	0x000007ff
 80018f4:	ff7fffff 	.word	0xff7fffff
 80018f8:	800fffff 	.word	0x800fffff
 80018fc:	2b1f      	cmp	r3, #31
 80018fe:	dc63      	bgt.n	80019c8 <__aeabi_dadd+0x458>
 8001900:	2020      	movs	r0, #32
 8001902:	1ac3      	subs	r3, r0, r3
 8001904:	0008      	movs	r0, r1
 8001906:	4098      	lsls	r0, r3
 8001908:	469c      	mov	ip, r3
 800190a:	4683      	mov	fp, r0
 800190c:	4653      	mov	r3, sl
 800190e:	0010      	movs	r0, r2
 8001910:	40d8      	lsrs	r0, r3
 8001912:	0003      	movs	r3, r0
 8001914:	4658      	mov	r0, fp
 8001916:	4318      	orrs	r0, r3
 8001918:	4663      	mov	r3, ip
 800191a:	409a      	lsls	r2, r3
 800191c:	1e53      	subs	r3, r2, #1
 800191e:	419a      	sbcs	r2, r3
 8001920:	4653      	mov	r3, sl
 8001922:	4302      	orrs	r2, r0
 8001924:	40d9      	lsrs	r1, r3
 8001926:	e703      	b.n	8001730 <__aeabi_dadd+0x1c0>
 8001928:	0026      	movs	r6, r4
 800192a:	433e      	orrs	r6, r7
 800192c:	d006      	beq.n	800193c <__aeabi_dadd+0x3cc>
 800192e:	43eb      	mvns	r3, r5
 8001930:	4699      	mov	r9, r3
 8001932:	2b00      	cmp	r3, #0
 8001934:	d0c7      	beq.n	80018c6 <__aeabi_dadd+0x356>
 8001936:	4e94      	ldr	r6, [pc, #592]	; (8001b88 <__aeabi_dadd+0x618>)
 8001938:	42b0      	cmp	r0, r6
 800193a:	d1ac      	bne.n	8001896 <__aeabi_dadd+0x326>
 800193c:	000c      	movs	r4, r1
 800193e:	0017      	movs	r7, r2
 8001940:	0006      	movs	r6, r0
 8001942:	46d8      	mov	r8, fp
 8001944:	e698      	b.n	8001678 <__aeabi_dadd+0x108>
 8001946:	4b90      	ldr	r3, [pc, #576]	; (8001b88 <__aeabi_dadd+0x618>)
 8001948:	459a      	cmp	sl, r3
 800194a:	d00b      	beq.n	8001964 <__aeabi_dadd+0x3f4>
 800194c:	4682      	mov	sl, r0
 800194e:	e6e7      	b.n	8001720 <__aeabi_dadd+0x1b0>
 8001950:	2800      	cmp	r0, #0
 8001952:	d000      	beq.n	8001956 <__aeabi_dadd+0x3e6>
 8001954:	e09e      	b.n	8001a94 <__aeabi_dadd+0x524>
 8001956:	0018      	movs	r0, r3
 8001958:	4310      	orrs	r0, r2
 800195a:	d100      	bne.n	800195e <__aeabi_dadd+0x3ee>
 800195c:	e0e9      	b.n	8001b32 <__aeabi_dadd+0x5c2>
 800195e:	001c      	movs	r4, r3
 8001960:	0017      	movs	r7, r2
 8001962:	46d8      	mov	r8, fp
 8001964:	4e88      	ldr	r6, [pc, #544]	; (8001b88 <__aeabi_dadd+0x618>)
 8001966:	e687      	b.n	8001678 <__aeabi_dadd+0x108>
 8001968:	2500      	movs	r5, #0
 800196a:	e772      	b.n	8001852 <__aeabi_dadd+0x2e2>
 800196c:	2100      	movs	r1, #0
 800196e:	e782      	b.n	8001876 <__aeabi_dadd+0x306>
 8001970:	0023      	movs	r3, r4
 8001972:	433b      	orrs	r3, r7
 8001974:	2e00      	cmp	r6, #0
 8001976:	d000      	beq.n	800197a <__aeabi_dadd+0x40a>
 8001978:	e0ab      	b.n	8001ad2 <__aeabi_dadd+0x562>
 800197a:	2b00      	cmp	r3, #0
 800197c:	d100      	bne.n	8001980 <__aeabi_dadd+0x410>
 800197e:	e0e7      	b.n	8001b50 <__aeabi_dadd+0x5e0>
 8001980:	000b      	movs	r3, r1
 8001982:	4313      	orrs	r3, r2
 8001984:	d100      	bne.n	8001988 <__aeabi_dadd+0x418>
 8001986:	e677      	b.n	8001678 <__aeabi_dadd+0x108>
 8001988:	18ba      	adds	r2, r7, r2
 800198a:	42ba      	cmp	r2, r7
 800198c:	41bf      	sbcs	r7, r7
 800198e:	1864      	adds	r4, r4, r1
 8001990:	427f      	negs	r7, r7
 8001992:	19e4      	adds	r4, r4, r7
 8001994:	0223      	lsls	r3, r4, #8
 8001996:	d400      	bmi.n	800199a <__aeabi_dadd+0x42a>
 8001998:	e0f2      	b.n	8001b80 <__aeabi_dadd+0x610>
 800199a:	4b7c      	ldr	r3, [pc, #496]	; (8001b8c <__aeabi_dadd+0x61c>)
 800199c:	0017      	movs	r7, r2
 800199e:	401c      	ands	r4, r3
 80019a0:	0006      	movs	r6, r0
 80019a2:	e669      	b.n	8001678 <__aeabi_dadd+0x108>
 80019a4:	0020      	movs	r0, r4
 80019a6:	4338      	orrs	r0, r7
 80019a8:	2e00      	cmp	r6, #0
 80019aa:	d1d1      	bne.n	8001950 <__aeabi_dadd+0x3e0>
 80019ac:	2800      	cmp	r0, #0
 80019ae:	d15b      	bne.n	8001a68 <__aeabi_dadd+0x4f8>
 80019b0:	001c      	movs	r4, r3
 80019b2:	4314      	orrs	r4, r2
 80019b4:	d100      	bne.n	80019b8 <__aeabi_dadd+0x448>
 80019b6:	e0a8      	b.n	8001b0a <__aeabi_dadd+0x59a>
 80019b8:	001c      	movs	r4, r3
 80019ba:	0017      	movs	r7, r2
 80019bc:	46d8      	mov	r8, fp
 80019be:	e65b      	b.n	8001678 <__aeabi_dadd+0x108>
 80019c0:	0006      	movs	r6, r0
 80019c2:	2400      	movs	r4, #0
 80019c4:	2700      	movs	r7, #0
 80019c6:	e697      	b.n	80016f8 <__aeabi_dadd+0x188>
 80019c8:	4650      	mov	r0, sl
 80019ca:	000b      	movs	r3, r1
 80019cc:	3820      	subs	r0, #32
 80019ce:	40c3      	lsrs	r3, r0
 80019d0:	4699      	mov	r9, r3
 80019d2:	4653      	mov	r3, sl
 80019d4:	2b20      	cmp	r3, #32
 80019d6:	d100      	bne.n	80019da <__aeabi_dadd+0x46a>
 80019d8:	e095      	b.n	8001b06 <__aeabi_dadd+0x596>
 80019da:	2340      	movs	r3, #64	; 0x40
 80019dc:	4650      	mov	r0, sl
 80019de:	1a1b      	subs	r3, r3, r0
 80019e0:	4099      	lsls	r1, r3
 80019e2:	430a      	orrs	r2, r1
 80019e4:	1e51      	subs	r1, r2, #1
 80019e6:	418a      	sbcs	r2, r1
 80019e8:	464b      	mov	r3, r9
 80019ea:	2100      	movs	r1, #0
 80019ec:	431a      	orrs	r2, r3
 80019ee:	e69f      	b.n	8001730 <__aeabi_dadd+0x1c0>
 80019f0:	2e00      	cmp	r6, #0
 80019f2:	d130      	bne.n	8001a56 <__aeabi_dadd+0x4e6>
 80019f4:	0026      	movs	r6, r4
 80019f6:	433e      	orrs	r6, r7
 80019f8:	d067      	beq.n	8001aca <__aeabi_dadd+0x55a>
 80019fa:	43db      	mvns	r3, r3
 80019fc:	469a      	mov	sl, r3
 80019fe:	2b00      	cmp	r3, #0
 8001a00:	d01c      	beq.n	8001a3c <__aeabi_dadd+0x4cc>
 8001a02:	4e61      	ldr	r6, [pc, #388]	; (8001b88 <__aeabi_dadd+0x618>)
 8001a04:	42b0      	cmp	r0, r6
 8001a06:	d060      	beq.n	8001aca <__aeabi_dadd+0x55a>
 8001a08:	4653      	mov	r3, sl
 8001a0a:	2b38      	cmp	r3, #56	; 0x38
 8001a0c:	dd00      	ble.n	8001a10 <__aeabi_dadd+0x4a0>
 8001a0e:	e096      	b.n	8001b3e <__aeabi_dadd+0x5ce>
 8001a10:	2b1f      	cmp	r3, #31
 8001a12:	dd00      	ble.n	8001a16 <__aeabi_dadd+0x4a6>
 8001a14:	e09f      	b.n	8001b56 <__aeabi_dadd+0x5e6>
 8001a16:	2620      	movs	r6, #32
 8001a18:	1af3      	subs	r3, r6, r3
 8001a1a:	0026      	movs	r6, r4
 8001a1c:	409e      	lsls	r6, r3
 8001a1e:	469c      	mov	ip, r3
 8001a20:	46b3      	mov	fp, r6
 8001a22:	4653      	mov	r3, sl
 8001a24:	003e      	movs	r6, r7
 8001a26:	40de      	lsrs	r6, r3
 8001a28:	0033      	movs	r3, r6
 8001a2a:	465e      	mov	r6, fp
 8001a2c:	431e      	orrs	r6, r3
 8001a2e:	4663      	mov	r3, ip
 8001a30:	409f      	lsls	r7, r3
 8001a32:	1e7b      	subs	r3, r7, #1
 8001a34:	419f      	sbcs	r7, r3
 8001a36:	4653      	mov	r3, sl
 8001a38:	40dc      	lsrs	r4, r3
 8001a3a:	4337      	orrs	r7, r6
 8001a3c:	18bf      	adds	r7, r7, r2
 8001a3e:	4297      	cmp	r7, r2
 8001a40:	4192      	sbcs	r2, r2
 8001a42:	1864      	adds	r4, r4, r1
 8001a44:	4252      	negs	r2, r2
 8001a46:	18a4      	adds	r4, r4, r2
 8001a48:	0006      	movs	r6, r0
 8001a4a:	e678      	b.n	800173e <__aeabi_dadd+0x1ce>
 8001a4c:	4327      	orrs	r7, r4
 8001a4e:	1e7c      	subs	r4, r7, #1
 8001a50:	41a7      	sbcs	r7, r4
 8001a52:	2400      	movs	r4, #0
 8001a54:	e737      	b.n	80018c6 <__aeabi_dadd+0x356>
 8001a56:	4e4c      	ldr	r6, [pc, #304]	; (8001b88 <__aeabi_dadd+0x618>)
 8001a58:	42b0      	cmp	r0, r6
 8001a5a:	d036      	beq.n	8001aca <__aeabi_dadd+0x55a>
 8001a5c:	2680      	movs	r6, #128	; 0x80
 8001a5e:	425b      	negs	r3, r3
 8001a60:	0436      	lsls	r6, r6, #16
 8001a62:	469a      	mov	sl, r3
 8001a64:	4334      	orrs	r4, r6
 8001a66:	e7cf      	b.n	8001a08 <__aeabi_dadd+0x498>
 8001a68:	0018      	movs	r0, r3
 8001a6a:	4310      	orrs	r0, r2
 8001a6c:	d100      	bne.n	8001a70 <__aeabi_dadd+0x500>
 8001a6e:	e603      	b.n	8001678 <__aeabi_dadd+0x108>
 8001a70:	1ab8      	subs	r0, r7, r2
 8001a72:	4684      	mov	ip, r0
 8001a74:	4567      	cmp	r7, ip
 8001a76:	41ad      	sbcs	r5, r5
 8001a78:	1ae0      	subs	r0, r4, r3
 8001a7a:	426d      	negs	r5, r5
 8001a7c:	1b40      	subs	r0, r0, r5
 8001a7e:	0205      	lsls	r5, r0, #8
 8001a80:	d400      	bmi.n	8001a84 <__aeabi_dadd+0x514>
 8001a82:	e62c      	b.n	80016de <__aeabi_dadd+0x16e>
 8001a84:	1bd7      	subs	r7, r2, r7
 8001a86:	42ba      	cmp	r2, r7
 8001a88:	4192      	sbcs	r2, r2
 8001a8a:	1b1c      	subs	r4, r3, r4
 8001a8c:	4252      	negs	r2, r2
 8001a8e:	1aa4      	subs	r4, r4, r2
 8001a90:	46d8      	mov	r8, fp
 8001a92:	e5f1      	b.n	8001678 <__aeabi_dadd+0x108>
 8001a94:	0018      	movs	r0, r3
 8001a96:	4310      	orrs	r0, r2
 8001a98:	d100      	bne.n	8001a9c <__aeabi_dadd+0x52c>
 8001a9a:	e763      	b.n	8001964 <__aeabi_dadd+0x3f4>
 8001a9c:	08f8      	lsrs	r0, r7, #3
 8001a9e:	0767      	lsls	r7, r4, #29
 8001aa0:	4307      	orrs	r7, r0
 8001aa2:	2080      	movs	r0, #128	; 0x80
 8001aa4:	08e4      	lsrs	r4, r4, #3
 8001aa6:	0300      	lsls	r0, r0, #12
 8001aa8:	4204      	tst	r4, r0
 8001aaa:	d008      	beq.n	8001abe <__aeabi_dadd+0x54e>
 8001aac:	08dd      	lsrs	r5, r3, #3
 8001aae:	4205      	tst	r5, r0
 8001ab0:	d105      	bne.n	8001abe <__aeabi_dadd+0x54e>
 8001ab2:	08d2      	lsrs	r2, r2, #3
 8001ab4:	0759      	lsls	r1, r3, #29
 8001ab6:	4311      	orrs	r1, r2
 8001ab8:	000f      	movs	r7, r1
 8001aba:	002c      	movs	r4, r5
 8001abc:	46d8      	mov	r8, fp
 8001abe:	0f7b      	lsrs	r3, r7, #29
 8001ac0:	00e4      	lsls	r4, r4, #3
 8001ac2:	431c      	orrs	r4, r3
 8001ac4:	00ff      	lsls	r7, r7, #3
 8001ac6:	4e30      	ldr	r6, [pc, #192]	; (8001b88 <__aeabi_dadd+0x618>)
 8001ac8:	e5d6      	b.n	8001678 <__aeabi_dadd+0x108>
 8001aca:	000c      	movs	r4, r1
 8001acc:	0017      	movs	r7, r2
 8001ace:	0006      	movs	r6, r0
 8001ad0:	e5d2      	b.n	8001678 <__aeabi_dadd+0x108>
 8001ad2:	2b00      	cmp	r3, #0
 8001ad4:	d038      	beq.n	8001b48 <__aeabi_dadd+0x5d8>
 8001ad6:	000b      	movs	r3, r1
 8001ad8:	4313      	orrs	r3, r2
 8001ada:	d100      	bne.n	8001ade <__aeabi_dadd+0x56e>
 8001adc:	e742      	b.n	8001964 <__aeabi_dadd+0x3f4>
 8001ade:	08f8      	lsrs	r0, r7, #3
 8001ae0:	0767      	lsls	r7, r4, #29
 8001ae2:	4307      	orrs	r7, r0
 8001ae4:	2080      	movs	r0, #128	; 0x80
 8001ae6:	08e4      	lsrs	r4, r4, #3
 8001ae8:	0300      	lsls	r0, r0, #12
 8001aea:	4204      	tst	r4, r0
 8001aec:	d0e7      	beq.n	8001abe <__aeabi_dadd+0x54e>
 8001aee:	08cb      	lsrs	r3, r1, #3
 8001af0:	4203      	tst	r3, r0
 8001af2:	d1e4      	bne.n	8001abe <__aeabi_dadd+0x54e>
 8001af4:	08d2      	lsrs	r2, r2, #3
 8001af6:	0749      	lsls	r1, r1, #29
 8001af8:	4311      	orrs	r1, r2
 8001afa:	000f      	movs	r7, r1
 8001afc:	001c      	movs	r4, r3
 8001afe:	e7de      	b.n	8001abe <__aeabi_dadd+0x54e>
 8001b00:	2700      	movs	r7, #0
 8001b02:	2400      	movs	r4, #0
 8001b04:	e5d5      	b.n	80016b2 <__aeabi_dadd+0x142>
 8001b06:	2100      	movs	r1, #0
 8001b08:	e76b      	b.n	80019e2 <__aeabi_dadd+0x472>
 8001b0a:	2500      	movs	r5, #0
 8001b0c:	2700      	movs	r7, #0
 8001b0e:	e5f3      	b.n	80016f8 <__aeabi_dadd+0x188>
 8001b10:	464e      	mov	r6, r9
 8001b12:	0025      	movs	r5, r4
 8001b14:	3e20      	subs	r6, #32
 8001b16:	40f5      	lsrs	r5, r6
 8001b18:	464b      	mov	r3, r9
 8001b1a:	002e      	movs	r6, r5
 8001b1c:	2b20      	cmp	r3, #32
 8001b1e:	d02d      	beq.n	8001b7c <__aeabi_dadd+0x60c>
 8001b20:	2540      	movs	r5, #64	; 0x40
 8001b22:	1aed      	subs	r5, r5, r3
 8001b24:	40ac      	lsls	r4, r5
 8001b26:	4327      	orrs	r7, r4
 8001b28:	1e7c      	subs	r4, r7, #1
 8001b2a:	41a7      	sbcs	r7, r4
 8001b2c:	2400      	movs	r4, #0
 8001b2e:	4337      	orrs	r7, r6
 8001b30:	e6c9      	b.n	80018c6 <__aeabi_dadd+0x356>
 8001b32:	2480      	movs	r4, #128	; 0x80
 8001b34:	2500      	movs	r5, #0
 8001b36:	0324      	lsls	r4, r4, #12
 8001b38:	4e13      	ldr	r6, [pc, #76]	; (8001b88 <__aeabi_dadd+0x618>)
 8001b3a:	2700      	movs	r7, #0
 8001b3c:	e5dc      	b.n	80016f8 <__aeabi_dadd+0x188>
 8001b3e:	4327      	orrs	r7, r4
 8001b40:	1e7c      	subs	r4, r7, #1
 8001b42:	41a7      	sbcs	r7, r4
 8001b44:	2400      	movs	r4, #0
 8001b46:	e779      	b.n	8001a3c <__aeabi_dadd+0x4cc>
 8001b48:	000c      	movs	r4, r1
 8001b4a:	0017      	movs	r7, r2
 8001b4c:	4e0e      	ldr	r6, [pc, #56]	; (8001b88 <__aeabi_dadd+0x618>)
 8001b4e:	e593      	b.n	8001678 <__aeabi_dadd+0x108>
 8001b50:	000c      	movs	r4, r1
 8001b52:	0017      	movs	r7, r2
 8001b54:	e590      	b.n	8001678 <__aeabi_dadd+0x108>
 8001b56:	4656      	mov	r6, sl
 8001b58:	0023      	movs	r3, r4
 8001b5a:	3e20      	subs	r6, #32
 8001b5c:	40f3      	lsrs	r3, r6
 8001b5e:	4699      	mov	r9, r3
 8001b60:	4653      	mov	r3, sl
 8001b62:	2b20      	cmp	r3, #32
 8001b64:	d00e      	beq.n	8001b84 <__aeabi_dadd+0x614>
 8001b66:	2340      	movs	r3, #64	; 0x40
 8001b68:	4656      	mov	r6, sl
 8001b6a:	1b9b      	subs	r3, r3, r6
 8001b6c:	409c      	lsls	r4, r3
 8001b6e:	4327      	orrs	r7, r4
 8001b70:	1e7c      	subs	r4, r7, #1
 8001b72:	41a7      	sbcs	r7, r4
 8001b74:	464b      	mov	r3, r9
 8001b76:	2400      	movs	r4, #0
 8001b78:	431f      	orrs	r7, r3
 8001b7a:	e75f      	b.n	8001a3c <__aeabi_dadd+0x4cc>
 8001b7c:	2400      	movs	r4, #0
 8001b7e:	e7d2      	b.n	8001b26 <__aeabi_dadd+0x5b6>
 8001b80:	0017      	movs	r7, r2
 8001b82:	e5b2      	b.n	80016ea <__aeabi_dadd+0x17a>
 8001b84:	2400      	movs	r4, #0
 8001b86:	e7f2      	b.n	8001b6e <__aeabi_dadd+0x5fe>
 8001b88:	000007ff 	.word	0x000007ff
 8001b8c:	ff7fffff 	.word	0xff7fffff

08001b90 <__aeabi_ddiv>:
 8001b90:	b5f0      	push	{r4, r5, r6, r7, lr}
 8001b92:	4657      	mov	r7, sl
 8001b94:	4645      	mov	r5, r8
 8001b96:	46de      	mov	lr, fp
 8001b98:	464e      	mov	r6, r9
 8001b9a:	b5e0      	push	{r5, r6, r7, lr}
 8001b9c:	004c      	lsls	r4, r1, #1
 8001b9e:	030e      	lsls	r6, r1, #12
 8001ba0:	b087      	sub	sp, #28
 8001ba2:	4683      	mov	fp, r0
 8001ba4:	4692      	mov	sl, r2
 8001ba6:	001d      	movs	r5, r3
 8001ba8:	4680      	mov	r8, r0
 8001baa:	0b36      	lsrs	r6, r6, #12
 8001bac:	0d64      	lsrs	r4, r4, #21
 8001bae:	0fcf      	lsrs	r7, r1, #31
 8001bb0:	2c00      	cmp	r4, #0
 8001bb2:	d04f      	beq.n	8001c54 <__aeabi_ddiv+0xc4>
 8001bb4:	4b6f      	ldr	r3, [pc, #444]	; (8001d74 <__aeabi_ddiv+0x1e4>)
 8001bb6:	429c      	cmp	r4, r3
 8001bb8:	d035      	beq.n	8001c26 <__aeabi_ddiv+0x96>
 8001bba:	2380      	movs	r3, #128	; 0x80
 8001bbc:	0f42      	lsrs	r2, r0, #29
 8001bbe:	041b      	lsls	r3, r3, #16
 8001bc0:	00f6      	lsls	r6, r6, #3
 8001bc2:	4313      	orrs	r3, r2
 8001bc4:	4333      	orrs	r3, r6
 8001bc6:	4699      	mov	r9, r3
 8001bc8:	00c3      	lsls	r3, r0, #3
 8001bca:	4698      	mov	r8, r3
 8001bcc:	4b6a      	ldr	r3, [pc, #424]	; (8001d78 <__aeabi_ddiv+0x1e8>)
 8001bce:	2600      	movs	r6, #0
 8001bd0:	469c      	mov	ip, r3
 8001bd2:	2300      	movs	r3, #0
 8001bd4:	4464      	add	r4, ip
 8001bd6:	9303      	str	r3, [sp, #12]
 8001bd8:	032b      	lsls	r3, r5, #12
 8001bda:	0b1b      	lsrs	r3, r3, #12
 8001bdc:	469b      	mov	fp, r3
 8001bde:	006b      	lsls	r3, r5, #1
 8001be0:	0fed      	lsrs	r5, r5, #31
 8001be2:	4650      	mov	r0, sl
 8001be4:	0d5b      	lsrs	r3, r3, #21
 8001be6:	9501      	str	r5, [sp, #4]
 8001be8:	d05e      	beq.n	8001ca8 <__aeabi_ddiv+0x118>
 8001bea:	4a62      	ldr	r2, [pc, #392]	; (8001d74 <__aeabi_ddiv+0x1e4>)
 8001bec:	4293      	cmp	r3, r2
 8001bee:	d053      	beq.n	8001c98 <__aeabi_ddiv+0x108>
 8001bf0:	465a      	mov	r2, fp
 8001bf2:	00d1      	lsls	r1, r2, #3
 8001bf4:	2280      	movs	r2, #128	; 0x80
 8001bf6:	0f40      	lsrs	r0, r0, #29
 8001bf8:	0412      	lsls	r2, r2, #16
 8001bfa:	4302      	orrs	r2, r0
 8001bfc:	430a      	orrs	r2, r1
 8001bfe:	4693      	mov	fp, r2
 8001c00:	4652      	mov	r2, sl
 8001c02:	00d1      	lsls	r1, r2, #3
 8001c04:	4a5c      	ldr	r2, [pc, #368]	; (8001d78 <__aeabi_ddiv+0x1e8>)
 8001c06:	4694      	mov	ip, r2
 8001c08:	2200      	movs	r2, #0
 8001c0a:	4463      	add	r3, ip
 8001c0c:	0038      	movs	r0, r7
 8001c0e:	4068      	eors	r0, r5
 8001c10:	4684      	mov	ip, r0
 8001c12:	9002      	str	r0, [sp, #8]
 8001c14:	1ae4      	subs	r4, r4, r3
 8001c16:	4316      	orrs	r6, r2
 8001c18:	2e0f      	cmp	r6, #15
 8001c1a:	d900      	bls.n	8001c1e <__aeabi_ddiv+0x8e>
 8001c1c:	e0b4      	b.n	8001d88 <__aeabi_ddiv+0x1f8>
 8001c1e:	4b57      	ldr	r3, [pc, #348]	; (8001d7c <__aeabi_ddiv+0x1ec>)
 8001c20:	00b6      	lsls	r6, r6, #2
 8001c22:	599b      	ldr	r3, [r3, r6]
 8001c24:	469f      	mov	pc, r3
 8001c26:	0003      	movs	r3, r0
 8001c28:	4333      	orrs	r3, r6
 8001c2a:	4699      	mov	r9, r3
 8001c2c:	d16c      	bne.n	8001d08 <__aeabi_ddiv+0x178>
 8001c2e:	2300      	movs	r3, #0
 8001c30:	4698      	mov	r8, r3
 8001c32:	3302      	adds	r3, #2
 8001c34:	2608      	movs	r6, #8
 8001c36:	9303      	str	r3, [sp, #12]
 8001c38:	e7ce      	b.n	8001bd8 <__aeabi_ddiv+0x48>
 8001c3a:	46cb      	mov	fp, r9
 8001c3c:	4641      	mov	r1, r8
 8001c3e:	9a03      	ldr	r2, [sp, #12]
 8001c40:	9701      	str	r7, [sp, #4]
 8001c42:	2a02      	cmp	r2, #2
 8001c44:	d165      	bne.n	8001d12 <__aeabi_ddiv+0x182>
 8001c46:	9b01      	ldr	r3, [sp, #4]
 8001c48:	4c4a      	ldr	r4, [pc, #296]	; (8001d74 <__aeabi_ddiv+0x1e4>)
 8001c4a:	469c      	mov	ip, r3
 8001c4c:	2300      	movs	r3, #0
 8001c4e:	2200      	movs	r2, #0
 8001c50:	4698      	mov	r8, r3
 8001c52:	e06b      	b.n	8001d2c <__aeabi_ddiv+0x19c>
 8001c54:	0003      	movs	r3, r0
 8001c56:	4333      	orrs	r3, r6
 8001c58:	4699      	mov	r9, r3
 8001c5a:	d04e      	beq.n	8001cfa <__aeabi_ddiv+0x16a>
 8001c5c:	2e00      	cmp	r6, #0
 8001c5e:	d100      	bne.n	8001c62 <__aeabi_ddiv+0xd2>
 8001c60:	e1bc      	b.n	8001fdc <__aeabi_ddiv+0x44c>
 8001c62:	0030      	movs	r0, r6
 8001c64:	f001 fa96 	bl	8003194 <__clzsi2>
 8001c68:	0003      	movs	r3, r0
 8001c6a:	3b0b      	subs	r3, #11
 8001c6c:	2b1c      	cmp	r3, #28
 8001c6e:	dd00      	ble.n	8001c72 <__aeabi_ddiv+0xe2>
 8001c70:	e1ac      	b.n	8001fcc <__aeabi_ddiv+0x43c>
 8001c72:	221d      	movs	r2, #29
 8001c74:	1ad3      	subs	r3, r2, r3
 8001c76:	465a      	mov	r2, fp
 8001c78:	0001      	movs	r1, r0
 8001c7a:	40da      	lsrs	r2, r3
 8001c7c:	3908      	subs	r1, #8
 8001c7e:	408e      	lsls	r6, r1
 8001c80:	0013      	movs	r3, r2
 8001c82:	4333      	orrs	r3, r6
 8001c84:	4699      	mov	r9, r3
 8001c86:	465b      	mov	r3, fp
 8001c88:	408b      	lsls	r3, r1
 8001c8a:	4698      	mov	r8, r3
 8001c8c:	2300      	movs	r3, #0
 8001c8e:	4c3c      	ldr	r4, [pc, #240]	; (8001d80 <__aeabi_ddiv+0x1f0>)
 8001c90:	2600      	movs	r6, #0
 8001c92:	1a24      	subs	r4, r4, r0
 8001c94:	9303      	str	r3, [sp, #12]
 8001c96:	e79f      	b.n	8001bd8 <__aeabi_ddiv+0x48>
 8001c98:	4651      	mov	r1, sl
 8001c9a:	465a      	mov	r2, fp
 8001c9c:	4311      	orrs	r1, r2
 8001c9e:	d129      	bne.n	8001cf4 <__aeabi_ddiv+0x164>
 8001ca0:	2200      	movs	r2, #0
 8001ca2:	4693      	mov	fp, r2
 8001ca4:	3202      	adds	r2, #2
 8001ca6:	e7b1      	b.n	8001c0c <__aeabi_ddiv+0x7c>
 8001ca8:	4659      	mov	r1, fp
 8001caa:	4301      	orrs	r1, r0
 8001cac:	d01e      	beq.n	8001cec <__aeabi_ddiv+0x15c>
 8001cae:	465b      	mov	r3, fp
 8001cb0:	2b00      	cmp	r3, #0
 8001cb2:	d100      	bne.n	8001cb6 <__aeabi_ddiv+0x126>
 8001cb4:	e19e      	b.n	8001ff4 <__aeabi_ddiv+0x464>
 8001cb6:	4658      	mov	r0, fp
 8001cb8:	f001 fa6c 	bl	8003194 <__clzsi2>
 8001cbc:	0003      	movs	r3, r0
 8001cbe:	3b0b      	subs	r3, #11
 8001cc0:	2b1c      	cmp	r3, #28
 8001cc2:	dd00      	ble.n	8001cc6 <__aeabi_ddiv+0x136>
 8001cc4:	e18f      	b.n	8001fe6 <__aeabi_ddiv+0x456>
 8001cc6:	0002      	movs	r2, r0
 8001cc8:	4659      	mov	r1, fp
 8001cca:	3a08      	subs	r2, #8
 8001ccc:	4091      	lsls	r1, r2
 8001cce:	468b      	mov	fp, r1
 8001cd0:	211d      	movs	r1, #29
 8001cd2:	1acb      	subs	r3, r1, r3
 8001cd4:	4651      	mov	r1, sl
 8001cd6:	40d9      	lsrs	r1, r3
 8001cd8:	000b      	movs	r3, r1
 8001cda:	4659      	mov	r1, fp
 8001cdc:	430b      	orrs	r3, r1
 8001cde:	4651      	mov	r1, sl
 8001ce0:	469b      	mov	fp, r3
 8001ce2:	4091      	lsls	r1, r2
 8001ce4:	4b26      	ldr	r3, [pc, #152]	; (8001d80 <__aeabi_ddiv+0x1f0>)
 8001ce6:	2200      	movs	r2, #0
 8001ce8:	1a1b      	subs	r3, r3, r0
 8001cea:	e78f      	b.n	8001c0c <__aeabi_ddiv+0x7c>
 8001cec:	2300      	movs	r3, #0
 8001cee:	2201      	movs	r2, #1
 8001cf0:	469b      	mov	fp, r3
 8001cf2:	e78b      	b.n	8001c0c <__aeabi_ddiv+0x7c>
 8001cf4:	4651      	mov	r1, sl
 8001cf6:	2203      	movs	r2, #3
 8001cf8:	e788      	b.n	8001c0c <__aeabi_ddiv+0x7c>
 8001cfa:	2300      	movs	r3, #0
 8001cfc:	4698      	mov	r8, r3
 8001cfe:	3301      	adds	r3, #1
 8001d00:	2604      	movs	r6, #4
 8001d02:	2400      	movs	r4, #0
 8001d04:	9303      	str	r3, [sp, #12]
 8001d06:	e767      	b.n	8001bd8 <__aeabi_ddiv+0x48>
 8001d08:	2303      	movs	r3, #3
 8001d0a:	46b1      	mov	r9, r6
 8001d0c:	9303      	str	r3, [sp, #12]
 8001d0e:	260c      	movs	r6, #12
 8001d10:	e762      	b.n	8001bd8 <__aeabi_ddiv+0x48>
 8001d12:	2a03      	cmp	r2, #3
 8001d14:	d100      	bne.n	8001d18 <__aeabi_ddiv+0x188>
 8001d16:	e25c      	b.n	80021d2 <__aeabi_ddiv+0x642>
 8001d18:	9b01      	ldr	r3, [sp, #4]
 8001d1a:	2a01      	cmp	r2, #1
 8001d1c:	d000      	beq.n	8001d20 <__aeabi_ddiv+0x190>
 8001d1e:	e1e4      	b.n	80020ea <__aeabi_ddiv+0x55a>
 8001d20:	4013      	ands	r3, r2
 8001d22:	469c      	mov	ip, r3
 8001d24:	2300      	movs	r3, #0
 8001d26:	2400      	movs	r4, #0
 8001d28:	2200      	movs	r2, #0
 8001d2a:	4698      	mov	r8, r3
 8001d2c:	2100      	movs	r1, #0
 8001d2e:	0312      	lsls	r2, r2, #12
 8001d30:	0b13      	lsrs	r3, r2, #12
 8001d32:	0d0a      	lsrs	r2, r1, #20
 8001d34:	0512      	lsls	r2, r2, #20
 8001d36:	431a      	orrs	r2, r3
 8001d38:	0523      	lsls	r3, r4, #20
 8001d3a:	4c12      	ldr	r4, [pc, #72]	; (8001d84 <__aeabi_ddiv+0x1f4>)
 8001d3c:	4640      	mov	r0, r8
 8001d3e:	4022      	ands	r2, r4
 8001d40:	4313      	orrs	r3, r2
 8001d42:	4662      	mov	r2, ip
 8001d44:	005b      	lsls	r3, r3, #1
 8001d46:	07d2      	lsls	r2, r2, #31
 8001d48:	085b      	lsrs	r3, r3, #1
 8001d4a:	4313      	orrs	r3, r2
 8001d4c:	0019      	movs	r1, r3
 8001d4e:	b007      	add	sp, #28
 8001d50:	bc3c      	pop	{r2, r3, r4, r5}
 8001d52:	4690      	mov	r8, r2
 8001d54:	4699      	mov	r9, r3
 8001d56:	46a2      	mov	sl, r4
 8001d58:	46ab      	mov	fp, r5
 8001d5a:	bdf0      	pop	{r4, r5, r6, r7, pc}
 8001d5c:	2300      	movs	r3, #0
 8001d5e:	2280      	movs	r2, #128	; 0x80
 8001d60:	469c      	mov	ip, r3
 8001d62:	0312      	lsls	r2, r2, #12
 8001d64:	4698      	mov	r8, r3
 8001d66:	4c03      	ldr	r4, [pc, #12]	; (8001d74 <__aeabi_ddiv+0x1e4>)
 8001d68:	e7e0      	b.n	8001d2c <__aeabi_ddiv+0x19c>
 8001d6a:	2300      	movs	r3, #0
 8001d6c:	4c01      	ldr	r4, [pc, #4]	; (8001d74 <__aeabi_ddiv+0x1e4>)
 8001d6e:	2200      	movs	r2, #0
 8001d70:	4698      	mov	r8, r3
 8001d72:	e7db      	b.n	8001d2c <__aeabi_ddiv+0x19c>
 8001d74:	000007ff 	.word	0x000007ff
 8001d78:	fffffc01 	.word	0xfffffc01
 8001d7c:	080180c0 	.word	0x080180c0
 8001d80:	fffffc0d 	.word	0xfffffc0d
 8001d84:	800fffff 	.word	0x800fffff
 8001d88:	45d9      	cmp	r9, fp
 8001d8a:	d900      	bls.n	8001d8e <__aeabi_ddiv+0x1fe>
 8001d8c:	e139      	b.n	8002002 <__aeabi_ddiv+0x472>
 8001d8e:	d100      	bne.n	8001d92 <__aeabi_ddiv+0x202>
 8001d90:	e134      	b.n	8001ffc <__aeabi_ddiv+0x46c>
 8001d92:	2300      	movs	r3, #0
 8001d94:	4646      	mov	r6, r8
 8001d96:	464d      	mov	r5, r9
 8001d98:	469a      	mov	sl, r3
 8001d9a:	3c01      	subs	r4, #1
 8001d9c:	465b      	mov	r3, fp
 8001d9e:	0e0a      	lsrs	r2, r1, #24
 8001da0:	021b      	lsls	r3, r3, #8
 8001da2:	431a      	orrs	r2, r3
 8001da4:	020b      	lsls	r3, r1, #8
 8001da6:	0c17      	lsrs	r7, r2, #16
 8001da8:	9303      	str	r3, [sp, #12]
 8001daa:	0413      	lsls	r3, r2, #16
 8001dac:	0c1b      	lsrs	r3, r3, #16
 8001dae:	0039      	movs	r1, r7
 8001db0:	0028      	movs	r0, r5
 8001db2:	4690      	mov	r8, r2
 8001db4:	9301      	str	r3, [sp, #4]
 8001db6:	f7fe f9b9 	bl	800012c <__udivsi3>
 8001dba:	0002      	movs	r2, r0
 8001dbc:	9b01      	ldr	r3, [sp, #4]
 8001dbe:	4683      	mov	fp, r0
 8001dc0:	435a      	muls	r2, r3
 8001dc2:	0028      	movs	r0, r5
 8001dc4:	0039      	movs	r1, r7
 8001dc6:	4691      	mov	r9, r2
 8001dc8:	f7fe fa36 	bl	8000238 <__aeabi_uidivmod>
 8001dcc:	0c35      	lsrs	r5, r6, #16
 8001dce:	0409      	lsls	r1, r1, #16
 8001dd0:	430d      	orrs	r5, r1
 8001dd2:	45a9      	cmp	r9, r5
 8001dd4:	d90d      	bls.n	8001df2 <__aeabi_ddiv+0x262>
 8001dd6:	465b      	mov	r3, fp
 8001dd8:	4445      	add	r5, r8
 8001dda:	3b01      	subs	r3, #1
 8001ddc:	45a8      	cmp	r8, r5
 8001dde:	d900      	bls.n	8001de2 <__aeabi_ddiv+0x252>
 8001de0:	e13a      	b.n	8002058 <__aeabi_ddiv+0x4c8>
 8001de2:	45a9      	cmp	r9, r5
 8001de4:	d800      	bhi.n	8001de8 <__aeabi_ddiv+0x258>
 8001de6:	e137      	b.n	8002058 <__aeabi_ddiv+0x4c8>
 8001de8:	2302      	movs	r3, #2
 8001dea:	425b      	negs	r3, r3
 8001dec:	469c      	mov	ip, r3
 8001dee:	4445      	add	r5, r8
 8001df0:	44e3      	add	fp, ip
 8001df2:	464b      	mov	r3, r9
 8001df4:	1aeb      	subs	r3, r5, r3
 8001df6:	0039      	movs	r1, r7
 8001df8:	0018      	movs	r0, r3
 8001dfa:	9304      	str	r3, [sp, #16]
 8001dfc:	f7fe f996 	bl	800012c <__udivsi3>
 8001e00:	9b01      	ldr	r3, [sp, #4]
 8001e02:	0005      	movs	r5, r0
 8001e04:	4343      	muls	r3, r0
 8001e06:	0039      	movs	r1, r7
 8001e08:	9804      	ldr	r0, [sp, #16]
 8001e0a:	4699      	mov	r9, r3
 8001e0c:	f7fe fa14 	bl	8000238 <__aeabi_uidivmod>
 8001e10:	0433      	lsls	r3, r6, #16
 8001e12:	0409      	lsls	r1, r1, #16
 8001e14:	0c1b      	lsrs	r3, r3, #16
 8001e16:	430b      	orrs	r3, r1
 8001e18:	4599      	cmp	r9, r3
 8001e1a:	d909      	bls.n	8001e30 <__aeabi_ddiv+0x2a0>
 8001e1c:	4443      	add	r3, r8
 8001e1e:	1e6a      	subs	r2, r5, #1
 8001e20:	4598      	cmp	r8, r3
 8001e22:	d900      	bls.n	8001e26 <__aeabi_ddiv+0x296>
 8001e24:	e11a      	b.n	800205c <__aeabi_ddiv+0x4cc>
 8001e26:	4599      	cmp	r9, r3
 8001e28:	d800      	bhi.n	8001e2c <__aeabi_ddiv+0x29c>
 8001e2a:	e117      	b.n	800205c <__aeabi_ddiv+0x4cc>
 8001e2c:	3d02      	subs	r5, #2
 8001e2e:	4443      	add	r3, r8
 8001e30:	464a      	mov	r2, r9
 8001e32:	1a9b      	subs	r3, r3, r2
 8001e34:	465a      	mov	r2, fp
 8001e36:	0412      	lsls	r2, r2, #16
 8001e38:	432a      	orrs	r2, r5
 8001e3a:	9903      	ldr	r1, [sp, #12]
 8001e3c:	4693      	mov	fp, r2
 8001e3e:	0c10      	lsrs	r0, r2, #16
 8001e40:	0c0a      	lsrs	r2, r1, #16
 8001e42:	4691      	mov	r9, r2
 8001e44:	0409      	lsls	r1, r1, #16
 8001e46:	465a      	mov	r2, fp
 8001e48:	0c09      	lsrs	r1, r1, #16
 8001e4a:	464e      	mov	r6, r9
 8001e4c:	000d      	movs	r5, r1
 8001e4e:	0412      	lsls	r2, r2, #16
 8001e50:	0c12      	lsrs	r2, r2, #16
 8001e52:	4345      	muls	r5, r0
 8001e54:	9105      	str	r1, [sp, #20]
 8001e56:	4351      	muls	r1, r2
 8001e58:	4372      	muls	r2, r6
 8001e5a:	4370      	muls	r0, r6
 8001e5c:	1952      	adds	r2, r2, r5
 8001e5e:	0c0e      	lsrs	r6, r1, #16
 8001e60:	18b2      	adds	r2, r6, r2
 8001e62:	4295      	cmp	r5, r2
 8001e64:	d903      	bls.n	8001e6e <__aeabi_ddiv+0x2de>
 8001e66:	2580      	movs	r5, #128	; 0x80
 8001e68:	026d      	lsls	r5, r5, #9
 8001e6a:	46ac      	mov	ip, r5
 8001e6c:	4460      	add	r0, ip
 8001e6e:	0c15      	lsrs	r5, r2, #16
 8001e70:	0409      	lsls	r1, r1, #16
 8001e72:	0412      	lsls	r2, r2, #16
 8001e74:	0c09      	lsrs	r1, r1, #16
 8001e76:	1828      	adds	r0, r5, r0
 8001e78:	1852      	adds	r2, r2, r1
 8001e7a:	4283      	cmp	r3, r0
 8001e7c:	d200      	bcs.n	8001e80 <__aeabi_ddiv+0x2f0>
 8001e7e:	e0ce      	b.n	800201e <__aeabi_ddiv+0x48e>
 8001e80:	d100      	bne.n	8001e84 <__aeabi_ddiv+0x2f4>
 8001e82:	e0c8      	b.n	8002016 <__aeabi_ddiv+0x486>
 8001e84:	1a1d      	subs	r5, r3, r0
 8001e86:	4653      	mov	r3, sl
 8001e88:	1a9e      	subs	r6, r3, r2
 8001e8a:	45b2      	cmp	sl, r6
 8001e8c:	4192      	sbcs	r2, r2
 8001e8e:	4252      	negs	r2, r2
 8001e90:	1aab      	subs	r3, r5, r2
 8001e92:	469a      	mov	sl, r3
 8001e94:	4598      	cmp	r8, r3
 8001e96:	d100      	bne.n	8001e9a <__aeabi_ddiv+0x30a>
 8001e98:	e117      	b.n	80020ca <__aeabi_ddiv+0x53a>
 8001e9a:	0039      	movs	r1, r7
 8001e9c:	0018      	movs	r0, r3
 8001e9e:	f7fe f945 	bl	800012c <__udivsi3>
 8001ea2:	9b01      	ldr	r3, [sp, #4]
 8001ea4:	0005      	movs	r5, r0
 8001ea6:	4343      	muls	r3, r0
 8001ea8:	0039      	movs	r1, r7
 8001eaa:	4650      	mov	r0, sl
 8001eac:	9304      	str	r3, [sp, #16]
 8001eae:	f7fe f9c3 	bl	8000238 <__aeabi_uidivmod>
 8001eb2:	9804      	ldr	r0, [sp, #16]
 8001eb4:	040b      	lsls	r3, r1, #16
 8001eb6:	0c31      	lsrs	r1, r6, #16
 8001eb8:	4319      	orrs	r1, r3
 8001eba:	4288      	cmp	r0, r1
 8001ebc:	d909      	bls.n	8001ed2 <__aeabi_ddiv+0x342>
 8001ebe:	4441      	add	r1, r8
 8001ec0:	1e6b      	subs	r3, r5, #1
 8001ec2:	4588      	cmp	r8, r1
 8001ec4:	d900      	bls.n	8001ec8 <__aeabi_ddiv+0x338>
 8001ec6:	e107      	b.n	80020d8 <__aeabi_ddiv+0x548>
 8001ec8:	4288      	cmp	r0, r1
 8001eca:	d800      	bhi.n	8001ece <__aeabi_ddiv+0x33e>
 8001ecc:	e104      	b.n	80020d8 <__aeabi_ddiv+0x548>
 8001ece:	3d02      	subs	r5, #2
 8001ed0:	4441      	add	r1, r8
 8001ed2:	9b04      	ldr	r3, [sp, #16]
 8001ed4:	1acb      	subs	r3, r1, r3
 8001ed6:	0018      	movs	r0, r3
 8001ed8:	0039      	movs	r1, r7
 8001eda:	9304      	str	r3, [sp, #16]
 8001edc:	f7fe f926 	bl	800012c <__udivsi3>
 8001ee0:	9b01      	ldr	r3, [sp, #4]
 8001ee2:	4682      	mov	sl, r0
 8001ee4:	4343      	muls	r3, r0
 8001ee6:	0039      	movs	r1, r7
 8001ee8:	9804      	ldr	r0, [sp, #16]
 8001eea:	9301      	str	r3, [sp, #4]
 8001eec:	f7fe f9a4 	bl	8000238 <__aeabi_uidivmod>
 8001ef0:	9801      	ldr	r0, [sp, #4]
 8001ef2:	040b      	lsls	r3, r1, #16
 8001ef4:	0431      	lsls	r1, r6, #16
 8001ef6:	0c09      	lsrs	r1, r1, #16
 8001ef8:	4319      	orrs	r1, r3
 8001efa:	4288      	cmp	r0, r1
 8001efc:	d90d      	bls.n	8001f1a <__aeabi_ddiv+0x38a>
 8001efe:	4653      	mov	r3, sl
 8001f00:	4441      	add	r1, r8
 8001f02:	3b01      	subs	r3, #1
 8001f04:	4588      	cmp	r8, r1
 8001f06:	d900      	bls.n	8001f0a <__aeabi_ddiv+0x37a>
 8001f08:	e0e8      	b.n	80020dc <__aeabi_ddiv+0x54c>
 8001f0a:	4288      	cmp	r0, r1
 8001f0c:	d800      	bhi.n	8001f10 <__aeabi_ddiv+0x380>
 8001f0e:	e0e5      	b.n	80020dc <__aeabi_ddiv+0x54c>
 8001f10:	2302      	movs	r3, #2
 8001f12:	425b      	negs	r3, r3
 8001f14:	469c      	mov	ip, r3
 8001f16:	4441      	add	r1, r8
 8001f18:	44e2      	add	sl, ip
 8001f1a:	9b01      	ldr	r3, [sp, #4]
 8001f1c:	042d      	lsls	r5, r5, #16
 8001f1e:	1ace      	subs	r6, r1, r3
 8001f20:	4651      	mov	r1, sl
 8001f22:	4329      	orrs	r1, r5
 8001f24:	9d05      	ldr	r5, [sp, #20]
 8001f26:	464f      	mov	r7, r9
 8001f28:	002a      	movs	r2, r5
 8001f2a:	040b      	lsls	r3, r1, #16
 8001f2c:	0c08      	lsrs	r0, r1, #16
 8001f2e:	0c1b      	lsrs	r3, r3, #16
 8001f30:	435a      	muls	r2, r3
 8001f32:	4345      	muls	r5, r0
 8001f34:	437b      	muls	r3, r7
 8001f36:	4378      	muls	r0, r7
 8001f38:	195b      	adds	r3, r3, r5
 8001f3a:	0c17      	lsrs	r7, r2, #16
 8001f3c:	18fb      	adds	r3, r7, r3
 8001f3e:	429d      	cmp	r5, r3
 8001f40:	d903      	bls.n	8001f4a <__aeabi_ddiv+0x3ba>
 8001f42:	2580      	movs	r5, #128	; 0x80
 8001f44:	026d      	lsls	r5, r5, #9
 8001f46:	46ac      	mov	ip, r5
 8001f48:	4460      	add	r0, ip
 8001f4a:	0c1d      	lsrs	r5, r3, #16
 8001f4c:	0412      	lsls	r2, r2, #16
 8001f4e:	041b      	lsls	r3, r3, #16
 8001f50:	0c12      	lsrs	r2, r2, #16
 8001f52:	1828      	adds	r0, r5, r0
 8001f54:	189b      	adds	r3, r3, r2
 8001f56:	4286      	cmp	r6, r0
 8001f58:	d200      	bcs.n	8001f5c <__aeabi_ddiv+0x3cc>
 8001f5a:	e093      	b.n	8002084 <__aeabi_ddiv+0x4f4>
 8001f5c:	d100      	bne.n	8001f60 <__aeabi_ddiv+0x3d0>
 8001f5e:	e08e      	b.n	800207e <__aeabi_ddiv+0x4ee>
 8001f60:	2301      	movs	r3, #1
 8001f62:	4319      	orrs	r1, r3
 8001f64:	4ba0      	ldr	r3, [pc, #640]	; (80021e8 <__aeabi_ddiv+0x658>)
 8001f66:	18e3      	adds	r3, r4, r3
 8001f68:	2b00      	cmp	r3, #0
 8001f6a:	dc00      	bgt.n	8001f6e <__aeabi_ddiv+0x3de>
 8001f6c:	e099      	b.n	80020a2 <__aeabi_ddiv+0x512>
 8001f6e:	074a      	lsls	r2, r1, #29
 8001f70:	d000      	beq.n	8001f74 <__aeabi_ddiv+0x3e4>
 8001f72:	e09e      	b.n	80020b2 <__aeabi_ddiv+0x522>
 8001f74:	465a      	mov	r2, fp
 8001f76:	01d2      	lsls	r2, r2, #7
 8001f78:	d506      	bpl.n	8001f88 <__aeabi_ddiv+0x3f8>
 8001f7a:	465a      	mov	r2, fp
 8001f7c:	4b9b      	ldr	r3, [pc, #620]	; (80021ec <__aeabi_ddiv+0x65c>)
 8001f7e:	401a      	ands	r2, r3
 8001f80:	2380      	movs	r3, #128	; 0x80
 8001f82:	4693      	mov	fp, r2
 8001f84:	00db      	lsls	r3, r3, #3
 8001f86:	18e3      	adds	r3, r4, r3
 8001f88:	4a99      	ldr	r2, [pc, #612]	; (80021f0 <__aeabi_ddiv+0x660>)
 8001f8a:	4293      	cmp	r3, r2
 8001f8c:	dd68      	ble.n	8002060 <__aeabi_ddiv+0x4d0>
 8001f8e:	2301      	movs	r3, #1
 8001f90:	9a02      	ldr	r2, [sp, #8]
 8001f92:	4c98      	ldr	r4, [pc, #608]	; (80021f4 <__aeabi_ddiv+0x664>)
 8001f94:	401a      	ands	r2, r3
 8001f96:	2300      	movs	r3, #0
 8001f98:	4694      	mov	ip, r2
 8001f9a:	4698      	mov	r8, r3
 8001f9c:	2200      	movs	r2, #0
 8001f9e:	e6c5      	b.n	8001d2c <__aeabi_ddiv+0x19c>
 8001fa0:	2280      	movs	r2, #128	; 0x80
 8001fa2:	464b      	mov	r3, r9
 8001fa4:	0312      	lsls	r2, r2, #12
 8001fa6:	4213      	tst	r3, r2
 8001fa8:	d00a      	beq.n	8001fc0 <__aeabi_ddiv+0x430>
 8001faa:	465b      	mov	r3, fp
 8001fac:	4213      	tst	r3, r2
 8001fae:	d106      	bne.n	8001fbe <__aeabi_ddiv+0x42e>
 8001fb0:	431a      	orrs	r2, r3
 8001fb2:	0312      	lsls	r2, r2, #12
 8001fb4:	0b12      	lsrs	r2, r2, #12
 8001fb6:	46ac      	mov	ip, r5
 8001fb8:	4688      	mov	r8, r1
 8001fba:	4c8e      	ldr	r4, [pc, #568]	; (80021f4 <__aeabi_ddiv+0x664>)
 8001fbc:	e6b6      	b.n	8001d2c <__aeabi_ddiv+0x19c>
 8001fbe:	464b      	mov	r3, r9
 8001fc0:	431a      	orrs	r2, r3
 8001fc2:	0312      	lsls	r2, r2, #12
 8001fc4:	0b12      	lsrs	r2, r2, #12
 8001fc6:	46bc      	mov	ip, r7
 8001fc8:	4c8a      	ldr	r4, [pc, #552]	; (80021f4 <__aeabi_ddiv+0x664>)
 8001fca:	e6af      	b.n	8001d2c <__aeabi_ddiv+0x19c>
 8001fcc:	0003      	movs	r3, r0
 8001fce:	465a      	mov	r2, fp
 8001fd0:	3b28      	subs	r3, #40	; 0x28
 8001fd2:	409a      	lsls	r2, r3
 8001fd4:	2300      	movs	r3, #0
 8001fd6:	4691      	mov	r9, r2
 8001fd8:	4698      	mov	r8, r3
 8001fda:	e657      	b.n	8001c8c <__aeabi_ddiv+0xfc>
 8001fdc:	4658      	mov	r0, fp
 8001fde:	f001 f8d9 	bl	8003194 <__clzsi2>
 8001fe2:	3020      	adds	r0, #32
 8001fe4:	e640      	b.n	8001c68 <__aeabi_ddiv+0xd8>
 8001fe6:	0003      	movs	r3, r0
 8001fe8:	4652      	mov	r2, sl
 8001fea:	3b28      	subs	r3, #40	; 0x28
 8001fec:	409a      	lsls	r2, r3
 8001fee:	2100      	movs	r1, #0
 8001ff0:	4693      	mov	fp, r2
 8001ff2:	e677      	b.n	8001ce4 <__aeabi_ddiv+0x154>
 8001ff4:	f001 f8ce 	bl	8003194 <__clzsi2>
 8001ff8:	3020      	adds	r0, #32
 8001ffa:	e65f      	b.n	8001cbc <__aeabi_ddiv+0x12c>
 8001ffc:	4588      	cmp	r8, r1
 8001ffe:	d200      	bcs.n	8002002 <__aeabi_ddiv+0x472>
 8002000:	e6c7      	b.n	8001d92 <__aeabi_ddiv+0x202>
 8002002:	464b      	mov	r3, r9
 8002004:	07de      	lsls	r6, r3, #31
 8002006:	085d      	lsrs	r5, r3, #1
 8002008:	4643      	mov	r3, r8
 800200a:	085b      	lsrs	r3, r3, #1
 800200c:	431e      	orrs	r6, r3
 800200e:	4643      	mov	r3, r8
 8002010:	07db      	lsls	r3, r3, #31
 8002012:	469a      	mov	sl, r3
 8002014:	e6c2      	b.n	8001d9c <__aeabi_ddiv+0x20c>
 8002016:	2500      	movs	r5, #0
 8002018:	4592      	cmp	sl, r2
 800201a:	d300      	bcc.n	800201e <__aeabi_ddiv+0x48e>
 800201c:	e733      	b.n	8001e86 <__aeabi_ddiv+0x2f6>
 800201e:	9e03      	ldr	r6, [sp, #12]
 8002020:	4659      	mov	r1, fp
 8002022:	46b4      	mov	ip, r6
 8002024:	44e2      	add	sl, ip
 8002026:	45b2      	cmp	sl, r6
 8002028:	41ad      	sbcs	r5, r5
 800202a:	426d      	negs	r5, r5
 800202c:	4445      	add	r5, r8
 800202e:	18eb      	adds	r3, r5, r3
 8002030:	3901      	subs	r1, #1
 8002032:	4598      	cmp	r8, r3
 8002034:	d207      	bcs.n	8002046 <__aeabi_ddiv+0x4b6>
 8002036:	4298      	cmp	r0, r3
 8002038:	d900      	bls.n	800203c <__aeabi_ddiv+0x4ac>
 800203a:	e07f      	b.n	800213c <__aeabi_ddiv+0x5ac>
 800203c:	d100      	bne.n	8002040 <__aeabi_ddiv+0x4b0>
 800203e:	e0bc      	b.n	80021ba <__aeabi_ddiv+0x62a>
 8002040:	1a1d      	subs	r5, r3, r0
 8002042:	468b      	mov	fp, r1
 8002044:	e71f      	b.n	8001e86 <__aeabi_ddiv+0x2f6>
 8002046:	4598      	cmp	r8, r3
 8002048:	d1fa      	bne.n	8002040 <__aeabi_ddiv+0x4b0>
 800204a:	9d03      	ldr	r5, [sp, #12]
 800204c:	4555      	cmp	r5, sl
 800204e:	d9f2      	bls.n	8002036 <__aeabi_ddiv+0x4a6>
 8002050:	4643      	mov	r3, r8
 8002052:	468b      	mov	fp, r1
 8002054:	1a1d      	subs	r5, r3, r0
 8002056:	e716      	b.n	8001e86 <__aeabi_ddiv+0x2f6>
 8002058:	469b      	mov	fp, r3
 800205a:	e6ca      	b.n	8001df2 <__aeabi_ddiv+0x262>
 800205c:	0015      	movs	r5, r2
 800205e:	e6e7      	b.n	8001e30 <__aeabi_ddiv+0x2a0>
 8002060:	465a      	mov	r2, fp
 8002062:	08c9      	lsrs	r1, r1, #3
 8002064:	0752      	lsls	r2, r2, #29
 8002066:	430a      	orrs	r2, r1
 8002068:	055b      	lsls	r3, r3, #21
 800206a:	4690      	mov	r8, r2
 800206c:	0d5c      	lsrs	r4, r3, #21
 800206e:	465a      	mov	r2, fp
 8002070:	2301      	movs	r3, #1
 8002072:	9902      	ldr	r1, [sp, #8]
 8002074:	0252      	lsls	r2, r2, #9
 8002076:	4019      	ands	r1, r3
 8002078:	0b12      	lsrs	r2, r2, #12
 800207a:	468c      	mov	ip, r1
 800207c:	e656      	b.n	8001d2c <__aeabi_ddiv+0x19c>
 800207e:	2b00      	cmp	r3, #0
 8002080:	d100      	bne.n	8002084 <__aeabi_ddiv+0x4f4>
 8002082:	e76f      	b.n	8001f64 <__aeabi_ddiv+0x3d4>
 8002084:	4446      	add	r6, r8
 8002086:	1e4a      	subs	r2, r1, #1
 8002088:	45b0      	cmp	r8, r6
 800208a:	d929      	bls.n	80020e0 <__aeabi_ddiv+0x550>
 800208c:	0011      	movs	r1, r2
 800208e:	4286      	cmp	r6, r0
 8002090:	d000      	beq.n	8002094 <__aeabi_ddiv+0x504>
 8002092:	e765      	b.n	8001f60 <__aeabi_ddiv+0x3d0>
 8002094:	9a03      	ldr	r2, [sp, #12]
 8002096:	4293      	cmp	r3, r2
 8002098:	d000      	beq.n	800209c <__aeabi_ddiv+0x50c>
 800209a:	e761      	b.n	8001f60 <__aeabi_ddiv+0x3d0>
 800209c:	e762      	b.n	8001f64 <__aeabi_ddiv+0x3d4>
 800209e:	2101      	movs	r1, #1
 80020a0:	4249      	negs	r1, r1
 80020a2:	2001      	movs	r0, #1
 80020a4:	1ac2      	subs	r2, r0, r3
 80020a6:	2a38      	cmp	r2, #56	; 0x38
 80020a8:	dd21      	ble.n	80020ee <__aeabi_ddiv+0x55e>
 80020aa:	9b02      	ldr	r3, [sp, #8]
 80020ac:	4003      	ands	r3, r0
 80020ae:	469c      	mov	ip, r3
 80020b0:	e638      	b.n	8001d24 <__aeabi_ddiv+0x194>
 80020b2:	220f      	movs	r2, #15
 80020b4:	400a      	ands	r2, r1
 80020b6:	2a04      	cmp	r2, #4
 80020b8:	d100      	bne.n	80020bc <__aeabi_ddiv+0x52c>
 80020ba:	e75b      	b.n	8001f74 <__aeabi_ddiv+0x3e4>
 80020bc:	000a      	movs	r2, r1
 80020be:	1d11      	adds	r1, r2, #4
 80020c0:	4291      	cmp	r1, r2
 80020c2:	4192      	sbcs	r2, r2
 80020c4:	4252      	negs	r2, r2
 80020c6:	4493      	add	fp, r2
 80020c8:	e754      	b.n	8001f74 <__aeabi_ddiv+0x3e4>
 80020ca:	4b47      	ldr	r3, [pc, #284]	; (80021e8 <__aeabi_ddiv+0x658>)
 80020cc:	18e3      	adds	r3, r4, r3
 80020ce:	2b00      	cmp	r3, #0
 80020d0:	dde5      	ble.n	800209e <__aeabi_ddiv+0x50e>
 80020d2:	2201      	movs	r2, #1
 80020d4:	4252      	negs	r2, r2
 80020d6:	e7f2      	b.n	80020be <__aeabi_ddiv+0x52e>
 80020d8:	001d      	movs	r5, r3
 80020da:	e6fa      	b.n	8001ed2 <__aeabi_ddiv+0x342>
 80020dc:	469a      	mov	sl, r3
 80020de:	e71c      	b.n	8001f1a <__aeabi_ddiv+0x38a>
 80020e0:	42b0      	cmp	r0, r6
 80020e2:	d839      	bhi.n	8002158 <__aeabi_ddiv+0x5c8>
 80020e4:	d06e      	beq.n	80021c4 <__aeabi_ddiv+0x634>
 80020e6:	0011      	movs	r1, r2
 80020e8:	e73a      	b.n	8001f60 <__aeabi_ddiv+0x3d0>
 80020ea:	9302      	str	r3, [sp, #8]
 80020ec:	e73a      	b.n	8001f64 <__aeabi_ddiv+0x3d4>
 80020ee:	2a1f      	cmp	r2, #31
 80020f0:	dc3c      	bgt.n	800216c <__aeabi_ddiv+0x5dc>
 80020f2:	2320      	movs	r3, #32
 80020f4:	1a9b      	subs	r3, r3, r2
 80020f6:	000c      	movs	r4, r1
 80020f8:	4658      	mov	r0, fp
 80020fa:	4099      	lsls	r1, r3
 80020fc:	4098      	lsls	r0, r3
 80020fe:	1e4b      	subs	r3, r1, #1
 8002100:	4199      	sbcs	r1, r3
 8002102:	465b      	mov	r3, fp
 8002104:	40d4      	lsrs	r4, r2
 8002106:	40d3      	lsrs	r3, r2
 8002108:	4320      	orrs	r0, r4
 800210a:	4308      	orrs	r0, r1
 800210c:	001a      	movs	r2, r3
 800210e:	0743      	lsls	r3, r0, #29
 8002110:	d009      	beq.n	8002126 <__aeabi_ddiv+0x596>
 8002112:	230f      	movs	r3, #15
 8002114:	4003      	ands	r3, r0
 8002116:	2b04      	cmp	r3, #4
 8002118:	d005      	beq.n	8002126 <__aeabi_ddiv+0x596>
 800211a:	0001      	movs	r1, r0
 800211c:	1d08      	adds	r0, r1, #4
 800211e:	4288      	cmp	r0, r1
 8002120:	419b      	sbcs	r3, r3
 8002122:	425b      	negs	r3, r3
 8002124:	18d2      	adds	r2, r2, r3
 8002126:	0213      	lsls	r3, r2, #8
 8002128:	d53a      	bpl.n	80021a0 <__aeabi_ddiv+0x610>
 800212a:	2301      	movs	r3, #1
 800212c:	9a02      	ldr	r2, [sp, #8]
 800212e:	2401      	movs	r4, #1
 8002130:	401a      	ands	r2, r3
 8002132:	2300      	movs	r3, #0
 8002134:	4694      	mov	ip, r2
 8002136:	4698      	mov	r8, r3
 8002138:	2200      	movs	r2, #0
 800213a:	e5f7      	b.n	8001d2c <__aeabi_ddiv+0x19c>
 800213c:	2102      	movs	r1, #2
 800213e:	4249      	negs	r1, r1
 8002140:	468c      	mov	ip, r1
 8002142:	9d03      	ldr	r5, [sp, #12]
 8002144:	44e3      	add	fp, ip
 8002146:	46ac      	mov	ip, r5
 8002148:	44e2      	add	sl, ip
 800214a:	45aa      	cmp	sl, r5
 800214c:	41ad      	sbcs	r5, r5
 800214e:	426d      	negs	r5, r5
 8002150:	4445      	add	r5, r8
 8002152:	18ed      	adds	r5, r5, r3
 8002154:	1a2d      	subs	r5, r5, r0
 8002156:	e696      	b.n	8001e86 <__aeabi_ddiv+0x2f6>
 8002158:	1e8a      	subs	r2, r1, #2
 800215a:	9903      	ldr	r1, [sp, #12]
 800215c:	004d      	lsls	r5, r1, #1
 800215e:	428d      	cmp	r5, r1
 8002160:	4189      	sbcs	r1, r1
 8002162:	4249      	negs	r1, r1
 8002164:	4441      	add	r1, r8
 8002166:	1876      	adds	r6, r6, r1
 8002168:	9503      	str	r5, [sp, #12]
 800216a:	e78f      	b.n	800208c <__aeabi_ddiv+0x4fc>
 800216c:	201f      	movs	r0, #31
 800216e:	4240      	negs	r0, r0
 8002170:	1ac3      	subs	r3, r0, r3
 8002172:	4658      	mov	r0, fp
 8002174:	40d8      	lsrs	r0, r3
 8002176:	0003      	movs	r3, r0
 8002178:	2a20      	cmp	r2, #32
 800217a:	d028      	beq.n	80021ce <__aeabi_ddiv+0x63e>
 800217c:	2040      	movs	r0, #64	; 0x40
 800217e:	465d      	mov	r5, fp
 8002180:	1a82      	subs	r2, r0, r2
 8002182:	4095      	lsls	r5, r2
 8002184:	4329      	orrs	r1, r5
 8002186:	1e4a      	subs	r2, r1, #1
 8002188:	4191      	sbcs	r1, r2
 800218a:	4319      	orrs	r1, r3
 800218c:	2307      	movs	r3, #7
 800218e:	2200      	movs	r2, #0
 8002190:	400b      	ands	r3, r1
 8002192:	d009      	beq.n	80021a8 <__aeabi_ddiv+0x618>
 8002194:	230f      	movs	r3, #15
 8002196:	2200      	movs	r2, #0
 8002198:	400b      	ands	r3, r1
 800219a:	0008      	movs	r0, r1
 800219c:	2b04      	cmp	r3, #4
 800219e:	d1bd      	bne.n	800211c <__aeabi_ddiv+0x58c>
 80021a0:	0001      	movs	r1, r0
 80021a2:	0753      	lsls	r3, r2, #29
 80021a4:	0252      	lsls	r2, r2, #9
 80021a6:	0b12      	lsrs	r2, r2, #12
 80021a8:	08c9      	lsrs	r1, r1, #3
 80021aa:	4319      	orrs	r1, r3
 80021ac:	2301      	movs	r3, #1
 80021ae:	4688      	mov	r8, r1
 80021b0:	9902      	ldr	r1, [sp, #8]
 80021b2:	2400      	movs	r4, #0
 80021b4:	4019      	ands	r1, r3
 80021b6:	468c      	mov	ip, r1
 80021b8:	e5b8      	b.n	8001d2c <__aeabi_ddiv+0x19c>
 80021ba:	4552      	cmp	r2, sl
 80021bc:	d8be      	bhi.n	800213c <__aeabi_ddiv+0x5ac>
 80021be:	468b      	mov	fp, r1
 80021c0:	2500      	movs	r5, #0
 80021c2:	e660      	b.n	8001e86 <__aeabi_ddiv+0x2f6>
 80021c4:	9d03      	ldr	r5, [sp, #12]
 80021c6:	429d      	cmp	r5, r3
 80021c8:	d3c6      	bcc.n	8002158 <__aeabi_ddiv+0x5c8>
 80021ca:	0011      	movs	r1, r2
 80021cc:	e762      	b.n	8002094 <__aeabi_ddiv+0x504>
 80021ce:	2500      	movs	r5, #0
 80021d0:	e7d8      	b.n	8002184 <__aeabi_ddiv+0x5f4>
 80021d2:	2280      	movs	r2, #128	; 0x80
 80021d4:	465b      	mov	r3, fp
 80021d6:	0312      	lsls	r2, r2, #12
 80021d8:	431a      	orrs	r2, r3
 80021da:	9b01      	ldr	r3, [sp, #4]
 80021dc:	0312      	lsls	r2, r2, #12
 80021de:	0b12      	lsrs	r2, r2, #12
 80021e0:	469c      	mov	ip, r3
 80021e2:	4688      	mov	r8, r1
 80021e4:	4c03      	ldr	r4, [pc, #12]	; (80021f4 <__aeabi_ddiv+0x664>)
 80021e6:	e5a1      	b.n	8001d2c <__aeabi_ddiv+0x19c>
 80021e8:	000003ff 	.word	0x000003ff
 80021ec:	feffffff 	.word	0xfeffffff
 80021f0:	000007fe 	.word	0x000007fe
 80021f4:	000007ff 	.word	0x000007ff

080021f8 <__eqdf2>:
 80021f8:	b5f0      	push	{r4, r5, r6, r7, lr}
 80021fa:	464f      	mov	r7, r9
 80021fc:	4646      	mov	r6, r8
 80021fe:	46d6      	mov	lr, sl
 8002200:	005c      	lsls	r4, r3, #1
 8002202:	b5c0      	push	{r6, r7, lr}
 8002204:	031f      	lsls	r7, r3, #12
 8002206:	0fdb      	lsrs	r3, r3, #31
 8002208:	469a      	mov	sl, r3
 800220a:	4b17      	ldr	r3, [pc, #92]	; (8002268 <__eqdf2+0x70>)
 800220c:	030e      	lsls	r6, r1, #12
 800220e:	004d      	lsls	r5, r1, #1
 8002210:	4684      	mov	ip, r0
 8002212:	4680      	mov	r8, r0
 8002214:	0b36      	lsrs	r6, r6, #12
 8002216:	0d6d      	lsrs	r5, r5, #21
 8002218:	0fc9      	lsrs	r1, r1, #31
 800221a:	4691      	mov	r9, r2
 800221c:	0b3f      	lsrs	r7, r7, #12
 800221e:	0d64      	lsrs	r4, r4, #21
 8002220:	2001      	movs	r0, #1
 8002222:	429d      	cmp	r5, r3
 8002224:	d008      	beq.n	8002238 <__eqdf2+0x40>
 8002226:	429c      	cmp	r4, r3
 8002228:	d001      	beq.n	800222e <__eqdf2+0x36>
 800222a:	42a5      	cmp	r5, r4
 800222c:	d00b      	beq.n	8002246 <__eqdf2+0x4e>
 800222e:	bc1c      	pop	{r2, r3, r4}
 8002230:	4690      	mov	r8, r2
 8002232:	4699      	mov	r9, r3
 8002234:	46a2      	mov	sl, r4
 8002236:	bdf0      	pop	{r4, r5, r6, r7, pc}
 8002238:	4663      	mov	r3, ip
 800223a:	4333      	orrs	r3, r6
 800223c:	d1f7      	bne.n	800222e <__eqdf2+0x36>
 800223e:	42ac      	cmp	r4, r5
 8002240:	d1f5      	bne.n	800222e <__eqdf2+0x36>
 8002242:	433a      	orrs	r2, r7
 8002244:	d1f3      	bne.n	800222e <__eqdf2+0x36>
 8002246:	2001      	movs	r0, #1
 8002248:	42be      	cmp	r6, r7
 800224a:	d1f0      	bne.n	800222e <__eqdf2+0x36>
 800224c:	45c8      	cmp	r8, r9
 800224e:	d1ee      	bne.n	800222e <__eqdf2+0x36>
 8002250:	4551      	cmp	r1, sl
 8002252:	d007      	beq.n	8002264 <__eqdf2+0x6c>
 8002254:	2d00      	cmp	r5, #0
 8002256:	d1ea      	bne.n	800222e <__eqdf2+0x36>
 8002258:	4663      	mov	r3, ip
 800225a:	431e      	orrs	r6, r3
 800225c:	0030      	movs	r0, r6
 800225e:	1e46      	subs	r6, r0, #1
 8002260:	41b0      	sbcs	r0, r6
 8002262:	e7e4      	b.n	800222e <__eqdf2+0x36>
 8002264:	2000      	movs	r0, #0
 8002266:	e7e2      	b.n	800222e <__eqdf2+0x36>
 8002268:	000007ff 	.word	0x000007ff

0800226c <__gedf2>:
 800226c:	b5f0      	push	{r4, r5, r6, r7, lr}
 800226e:	4645      	mov	r5, r8
 8002270:	46de      	mov	lr, fp
 8002272:	4657      	mov	r7, sl
 8002274:	464e      	mov	r6, r9
 8002276:	b5e0      	push	{r5, r6, r7, lr}
 8002278:	031f      	lsls	r7, r3, #12
 800227a:	0b3d      	lsrs	r5, r7, #12
 800227c:	4f2c      	ldr	r7, [pc, #176]	; (8002330 <__gedf2+0xc4>)
 800227e:	030e      	lsls	r6, r1, #12
 8002280:	004c      	lsls	r4, r1, #1
 8002282:	46ab      	mov	fp, r5
 8002284:	005d      	lsls	r5, r3, #1
 8002286:	4684      	mov	ip, r0
 8002288:	0b36      	lsrs	r6, r6, #12
 800228a:	0d64      	lsrs	r4, r4, #21
 800228c:	0fc9      	lsrs	r1, r1, #31
 800228e:	4690      	mov	r8, r2
 8002290:	0d6d      	lsrs	r5, r5, #21
 8002292:	0fdb      	lsrs	r3, r3, #31
 8002294:	42bc      	cmp	r4, r7
 8002296:	d02a      	beq.n	80022ee <__gedf2+0x82>
 8002298:	4f25      	ldr	r7, [pc, #148]	; (8002330 <__gedf2+0xc4>)
 800229a:	42bd      	cmp	r5, r7
 800229c:	d02d      	beq.n	80022fa <__gedf2+0x8e>
 800229e:	2c00      	cmp	r4, #0
 80022a0:	d10f      	bne.n	80022c2 <__gedf2+0x56>
 80022a2:	4330      	orrs	r0, r6
 80022a4:	0007      	movs	r7, r0
 80022a6:	4681      	mov	r9, r0
 80022a8:	4278      	negs	r0, r7
 80022aa:	4178      	adcs	r0, r7
 80022ac:	b2c0      	uxtb	r0, r0
 80022ae:	2d00      	cmp	r5, #0
 80022b0:	d117      	bne.n	80022e2 <__gedf2+0x76>
 80022b2:	465f      	mov	r7, fp
 80022b4:	433a      	orrs	r2, r7
 80022b6:	d114      	bne.n	80022e2 <__gedf2+0x76>
 80022b8:	464b      	mov	r3, r9
 80022ba:	2000      	movs	r0, #0
 80022bc:	2b00      	cmp	r3, #0
 80022be:	d00a      	beq.n	80022d6 <__gedf2+0x6a>
 80022c0:	e006      	b.n	80022d0 <__gedf2+0x64>
 80022c2:	2d00      	cmp	r5, #0
 80022c4:	d102      	bne.n	80022cc <__gedf2+0x60>
 80022c6:	4658      	mov	r0, fp
 80022c8:	4302      	orrs	r2, r0
 80022ca:	d001      	beq.n	80022d0 <__gedf2+0x64>
 80022cc:	4299      	cmp	r1, r3
 80022ce:	d018      	beq.n	8002302 <__gedf2+0x96>
 80022d0:	4248      	negs	r0, r1
 80022d2:	2101      	movs	r1, #1
 80022d4:	4308      	orrs	r0, r1
 80022d6:	bc3c      	pop	{r2, r3, r4, r5}
 80022d8:	4690      	mov	r8, r2
 80022da:	4699      	mov	r9, r3
 80022dc:	46a2      	mov	sl, r4
 80022de:	46ab      	mov	fp, r5
 80022e0:	bdf0      	pop	{r4, r5, r6, r7, pc}
 80022e2:	2800      	cmp	r0, #0
 80022e4:	d0f2      	beq.n	80022cc <__gedf2+0x60>
 80022e6:	2001      	movs	r0, #1
 80022e8:	3b01      	subs	r3, #1
 80022ea:	4318      	orrs	r0, r3
 80022ec:	e7f3      	b.n	80022d6 <__gedf2+0x6a>
 80022ee:	0037      	movs	r7, r6
 80022f0:	4307      	orrs	r7, r0
 80022f2:	d0d1      	beq.n	8002298 <__gedf2+0x2c>
 80022f4:	2002      	movs	r0, #2
 80022f6:	4240      	negs	r0, r0
 80022f8:	e7ed      	b.n	80022d6 <__gedf2+0x6a>
 80022fa:	465f      	mov	r7, fp
 80022fc:	4317      	orrs	r7, r2
 80022fe:	d0ce      	beq.n	800229e <__gedf2+0x32>
 8002300:	e7f8      	b.n	80022f4 <__gedf2+0x88>
 8002302:	42ac      	cmp	r4, r5
 8002304:	dce4      	bgt.n	80022d0 <__gedf2+0x64>
 8002306:	da03      	bge.n	8002310 <__gedf2+0xa4>
 8002308:	1e48      	subs	r0, r1, #1
 800230a:	2101      	movs	r1, #1
 800230c:	4308      	orrs	r0, r1
 800230e:	e7e2      	b.n	80022d6 <__gedf2+0x6a>
 8002310:	455e      	cmp	r6, fp
 8002312:	d8dd      	bhi.n	80022d0 <__gedf2+0x64>
 8002314:	d006      	beq.n	8002324 <__gedf2+0xb8>
 8002316:	2000      	movs	r0, #0
 8002318:	455e      	cmp	r6, fp
 800231a:	d2dc      	bcs.n	80022d6 <__gedf2+0x6a>
 800231c:	2301      	movs	r3, #1
 800231e:	1e48      	subs	r0, r1, #1
 8002320:	4318      	orrs	r0, r3
 8002322:	e7d8      	b.n	80022d6 <__gedf2+0x6a>
 8002324:	45c4      	cmp	ip, r8
 8002326:	d8d3      	bhi.n	80022d0 <__gedf2+0x64>
 8002328:	2000      	movs	r0, #0
 800232a:	45c4      	cmp	ip, r8
 800232c:	d3f6      	bcc.n	800231c <__gedf2+0xb0>
 800232e:	e7d2      	b.n	80022d6 <__gedf2+0x6a>
 8002330:	000007ff 	.word	0x000007ff

08002334 <__ledf2>:
 8002334:	b5f0      	push	{r4, r5, r6, r7, lr}
 8002336:	464e      	mov	r6, r9
 8002338:	4645      	mov	r5, r8
 800233a:	46de      	mov	lr, fp
 800233c:	4657      	mov	r7, sl
 800233e:	005c      	lsls	r4, r3, #1
 8002340:	b5e0      	push	{r5, r6, r7, lr}
 8002342:	031f      	lsls	r7, r3, #12
 8002344:	0fdb      	lsrs	r3, r3, #31
 8002346:	4699      	mov	r9, r3
 8002348:	4b2a      	ldr	r3, [pc, #168]	; (80023f4 <__ledf2+0xc0>)
 800234a:	030e      	lsls	r6, r1, #12
 800234c:	004d      	lsls	r5, r1, #1
 800234e:	0fc9      	lsrs	r1, r1, #31
 8002350:	4684      	mov	ip, r0
 8002352:	0b36      	lsrs	r6, r6, #12
 8002354:	0d6d      	lsrs	r5, r5, #21
 8002356:	468b      	mov	fp, r1
 8002358:	4690      	mov	r8, r2
 800235a:	0b3f      	lsrs	r7, r7, #12
 800235c:	0d64      	lsrs	r4, r4, #21
 800235e:	429d      	cmp	r5, r3
 8002360:	d020      	beq.n	80023a4 <__ledf2+0x70>
 8002362:	4b24      	ldr	r3, [pc, #144]	; (80023f4 <__ledf2+0xc0>)
 8002364:	429c      	cmp	r4, r3
 8002366:	d022      	beq.n	80023ae <__ledf2+0x7a>
 8002368:	2d00      	cmp	r5, #0
 800236a:	d112      	bne.n	8002392 <__ledf2+0x5e>
 800236c:	4330      	orrs	r0, r6
 800236e:	4243      	negs	r3, r0
 8002370:	4143      	adcs	r3, r0
 8002372:	b2db      	uxtb	r3, r3
 8002374:	2c00      	cmp	r4, #0
 8002376:	d01f      	beq.n	80023b8 <__ledf2+0x84>
 8002378:	2b00      	cmp	r3, #0
 800237a:	d00c      	beq.n	8002396 <__ledf2+0x62>
 800237c:	464b      	mov	r3, r9
 800237e:	2001      	movs	r0, #1
 8002380:	3b01      	subs	r3, #1
 8002382:	4303      	orrs	r3, r0
 8002384:	0018      	movs	r0, r3
 8002386:	bc3c      	pop	{r2, r3, r4, r5}
 8002388:	4690      	mov	r8, r2
 800238a:	4699      	mov	r9, r3
 800238c:	46a2      	mov	sl, r4
 800238e:	46ab      	mov	fp, r5
 8002390:	bdf0      	pop	{r4, r5, r6, r7, pc}
 8002392:	2c00      	cmp	r4, #0
 8002394:	d016      	beq.n	80023c4 <__ledf2+0x90>
 8002396:	45cb      	cmp	fp, r9
 8002398:	d017      	beq.n	80023ca <__ledf2+0x96>
 800239a:	465b      	mov	r3, fp
 800239c:	4259      	negs	r1, r3
 800239e:	2301      	movs	r3, #1
 80023a0:	430b      	orrs	r3, r1
 80023a2:	e7ef      	b.n	8002384 <__ledf2+0x50>
 80023a4:	0031      	movs	r1, r6
 80023a6:	2302      	movs	r3, #2
 80023a8:	4301      	orrs	r1, r0
 80023aa:	d1eb      	bne.n	8002384 <__ledf2+0x50>
 80023ac:	e7d9      	b.n	8002362 <__ledf2+0x2e>
 80023ae:	0039      	movs	r1, r7
 80023b0:	2302      	movs	r3, #2
 80023b2:	4311      	orrs	r1, r2
 80023b4:	d1e6      	bne.n	8002384 <__ledf2+0x50>
 80023b6:	e7d7      	b.n	8002368 <__ledf2+0x34>
 80023b8:	433a      	orrs	r2, r7
 80023ba:	d1dd      	bne.n	8002378 <__ledf2+0x44>
 80023bc:	2300      	movs	r3, #0
 80023be:	2800      	cmp	r0, #0
 80023c0:	d0e0      	beq.n	8002384 <__ledf2+0x50>
 80023c2:	e7ea      	b.n	800239a <__ledf2+0x66>
 80023c4:	433a      	orrs	r2, r7
 80023c6:	d1e6      	bne.n	8002396 <__ledf2+0x62>
 80023c8:	e7e7      	b.n	800239a <__ledf2+0x66>
 80023ca:	42a5      	cmp	r5, r4
 80023cc:	dce5      	bgt.n	800239a <__ledf2+0x66>
 80023ce:	db05      	blt.n	80023dc <__ledf2+0xa8>
 80023d0:	42be      	cmp	r6, r7
 80023d2:	d8e2      	bhi.n	800239a <__ledf2+0x66>
 80023d4:	d007      	beq.n	80023e6 <__ledf2+0xb2>
 80023d6:	2300      	movs	r3, #0
 80023d8:	42be      	cmp	r6, r7
 80023da:	d2d3      	bcs.n	8002384 <__ledf2+0x50>
 80023dc:	4659      	mov	r1, fp
 80023de:	2301      	movs	r3, #1
 80023e0:	3901      	subs	r1, #1
 80023e2:	430b      	orrs	r3, r1
 80023e4:	e7ce      	b.n	8002384 <__ledf2+0x50>
 80023e6:	45c4      	cmp	ip, r8
 80023e8:	d8d7      	bhi.n	800239a <__ledf2+0x66>
 80023ea:	2300      	movs	r3, #0
 80023ec:	45c4      	cmp	ip, r8
 80023ee:	d3f5      	bcc.n	80023dc <__ledf2+0xa8>
 80023f0:	e7c8      	b.n	8002384 <__ledf2+0x50>
 80023f2:	46c0      	nop			; (mov r8, r8)
 80023f4:	000007ff 	.word	0x000007ff

080023f8 <__aeabi_dmul>:
 80023f8:	b5f0      	push	{r4, r5, r6, r7, lr}
 80023fa:	4657      	mov	r7, sl
 80023fc:	4645      	mov	r5, r8
 80023fe:	46de      	mov	lr, fp
 8002400:	464e      	mov	r6, r9
 8002402:	b5e0      	push	{r5, r6, r7, lr}
 8002404:	030c      	lsls	r4, r1, #12
 8002406:	4698      	mov	r8, r3
 8002408:	004e      	lsls	r6, r1, #1
 800240a:	0b23      	lsrs	r3, r4, #12
 800240c:	b087      	sub	sp, #28
 800240e:	0007      	movs	r7, r0
 8002410:	4692      	mov	sl, r2
 8002412:	469b      	mov	fp, r3
 8002414:	0d76      	lsrs	r6, r6, #21
 8002416:	0fcd      	lsrs	r5, r1, #31
 8002418:	2e00      	cmp	r6, #0
 800241a:	d06b      	beq.n	80024f4 <__aeabi_dmul+0xfc>
 800241c:	4b6d      	ldr	r3, [pc, #436]	; (80025d4 <__aeabi_dmul+0x1dc>)
 800241e:	429e      	cmp	r6, r3
 8002420:	d035      	beq.n	800248e <__aeabi_dmul+0x96>
 8002422:	2480      	movs	r4, #128	; 0x80
 8002424:	465b      	mov	r3, fp
 8002426:	0f42      	lsrs	r2, r0, #29
 8002428:	0424      	lsls	r4, r4, #16
 800242a:	00db      	lsls	r3, r3, #3
 800242c:	4314      	orrs	r4, r2
 800242e:	431c      	orrs	r4, r3
 8002430:	00c3      	lsls	r3, r0, #3
 8002432:	4699      	mov	r9, r3
 8002434:	4b68      	ldr	r3, [pc, #416]	; (80025d8 <__aeabi_dmul+0x1e0>)
 8002436:	46a3      	mov	fp, r4
 8002438:	469c      	mov	ip, r3
 800243a:	2300      	movs	r3, #0
 800243c:	2700      	movs	r7, #0
 800243e:	4466      	add	r6, ip
 8002440:	9302      	str	r3, [sp, #8]
 8002442:	4643      	mov	r3, r8
 8002444:	031c      	lsls	r4, r3, #12
 8002446:	005a      	lsls	r2, r3, #1
 8002448:	0fdb      	lsrs	r3, r3, #31
 800244a:	4650      	mov	r0, sl
 800244c:	0b24      	lsrs	r4, r4, #12
 800244e:	0d52      	lsrs	r2, r2, #21
 8002450:	4698      	mov	r8, r3
 8002452:	d100      	bne.n	8002456 <__aeabi_dmul+0x5e>
 8002454:	e076      	b.n	8002544 <__aeabi_dmul+0x14c>
 8002456:	4b5f      	ldr	r3, [pc, #380]	; (80025d4 <__aeabi_dmul+0x1dc>)
 8002458:	429a      	cmp	r2, r3
 800245a:	d06d      	beq.n	8002538 <__aeabi_dmul+0x140>
 800245c:	2380      	movs	r3, #128	; 0x80
 800245e:	0f41      	lsrs	r1, r0, #29
 8002460:	041b      	lsls	r3, r3, #16
 8002462:	430b      	orrs	r3, r1
 8002464:	495c      	ldr	r1, [pc, #368]	; (80025d8 <__aeabi_dmul+0x1e0>)
 8002466:	00e4      	lsls	r4, r4, #3
 8002468:	468c      	mov	ip, r1
 800246a:	431c      	orrs	r4, r3
 800246c:	00c3      	lsls	r3, r0, #3
 800246e:	2000      	movs	r0, #0
 8002470:	4462      	add	r2, ip
 8002472:	4641      	mov	r1, r8
 8002474:	18b6      	adds	r6, r6, r2
 8002476:	4069      	eors	r1, r5
 8002478:	1c72      	adds	r2, r6, #1
 800247a:	9101      	str	r1, [sp, #4]
 800247c:	4694      	mov	ip, r2
 800247e:	4307      	orrs	r7, r0
 8002480:	2f0f      	cmp	r7, #15
 8002482:	d900      	bls.n	8002486 <__aeabi_dmul+0x8e>
 8002484:	e0b0      	b.n	80025e8 <__aeabi_dmul+0x1f0>
 8002486:	4a55      	ldr	r2, [pc, #340]	; (80025dc <__aeabi_dmul+0x1e4>)
 8002488:	00bf      	lsls	r7, r7, #2
 800248a:	59d2      	ldr	r2, [r2, r7]
 800248c:	4697      	mov	pc, r2
 800248e:	465b      	mov	r3, fp
 8002490:	4303      	orrs	r3, r0
 8002492:	4699      	mov	r9, r3
 8002494:	d000      	beq.n	8002498 <__aeabi_dmul+0xa0>
 8002496:	e087      	b.n	80025a8 <__aeabi_dmul+0x1b0>
 8002498:	2300      	movs	r3, #0
 800249a:	469b      	mov	fp, r3
 800249c:	3302      	adds	r3, #2
 800249e:	2708      	movs	r7, #8
 80024a0:	9302      	str	r3, [sp, #8]
 80024a2:	e7ce      	b.n	8002442 <__aeabi_dmul+0x4a>
 80024a4:	4642      	mov	r2, r8
 80024a6:	9201      	str	r2, [sp, #4]
 80024a8:	2802      	cmp	r0, #2
 80024aa:	d067      	beq.n	800257c <__aeabi_dmul+0x184>
 80024ac:	2803      	cmp	r0, #3
 80024ae:	d100      	bne.n	80024b2 <__aeabi_dmul+0xba>
 80024b0:	e20e      	b.n	80028d0 <__aeabi_dmul+0x4d8>
 80024b2:	2801      	cmp	r0, #1
 80024b4:	d000      	beq.n	80024b8 <__aeabi_dmul+0xc0>
 80024b6:	e162      	b.n	800277e <__aeabi_dmul+0x386>
 80024b8:	2300      	movs	r3, #0
 80024ba:	2400      	movs	r4, #0
 80024bc:	2200      	movs	r2, #0
 80024be:	4699      	mov	r9, r3
 80024c0:	9901      	ldr	r1, [sp, #4]
 80024c2:	4001      	ands	r1, r0
 80024c4:	b2cd      	uxtb	r5, r1
 80024c6:	2100      	movs	r1, #0
 80024c8:	0312      	lsls	r2, r2, #12
 80024ca:	0d0b      	lsrs	r3, r1, #20
 80024cc:	0b12      	lsrs	r2, r2, #12
 80024ce:	051b      	lsls	r3, r3, #20
 80024d0:	4313      	orrs	r3, r2
 80024d2:	4a43      	ldr	r2, [pc, #268]	; (80025e0 <__aeabi_dmul+0x1e8>)
 80024d4:	0524      	lsls	r4, r4, #20
 80024d6:	4013      	ands	r3, r2
 80024d8:	431c      	orrs	r4, r3
 80024da:	0064      	lsls	r4, r4, #1
 80024dc:	07ed      	lsls	r5, r5, #31
 80024de:	0864      	lsrs	r4, r4, #1
 80024e0:	432c      	orrs	r4, r5
 80024e2:	4648      	mov	r0, r9
 80024e4:	0021      	movs	r1, r4
 80024e6:	b007      	add	sp, #28
 80024e8:	bc3c      	pop	{r2, r3, r4, r5}
 80024ea:	4690      	mov	r8, r2
 80024ec:	4699      	mov	r9, r3
 80024ee:	46a2      	mov	sl, r4
 80024f0:	46ab      	mov	fp, r5
 80024f2:	bdf0      	pop	{r4, r5, r6, r7, pc}
 80024f4:	4303      	orrs	r3, r0
 80024f6:	4699      	mov	r9, r3
 80024f8:	d04f      	beq.n	800259a <__aeabi_dmul+0x1a2>
 80024fa:	465b      	mov	r3, fp
 80024fc:	2b00      	cmp	r3, #0
 80024fe:	d100      	bne.n	8002502 <__aeabi_dmul+0x10a>
 8002500:	e189      	b.n	8002816 <__aeabi_dmul+0x41e>
 8002502:	4658      	mov	r0, fp
 8002504:	f000 fe46 	bl	8003194 <__clzsi2>
 8002508:	0003      	movs	r3, r0
 800250a:	3b0b      	subs	r3, #11
 800250c:	2b1c      	cmp	r3, #28
 800250e:	dd00      	ble.n	8002512 <__aeabi_dmul+0x11a>
 8002510:	e17a      	b.n	8002808 <__aeabi_dmul+0x410>
 8002512:	221d      	movs	r2, #29
 8002514:	1ad3      	subs	r3, r2, r3
 8002516:	003a      	movs	r2, r7
 8002518:	0001      	movs	r1, r0
 800251a:	465c      	mov	r4, fp
 800251c:	40da      	lsrs	r2, r3
 800251e:	3908      	subs	r1, #8
 8002520:	408c      	lsls	r4, r1
 8002522:	0013      	movs	r3, r2
 8002524:	408f      	lsls	r7, r1
 8002526:	4323      	orrs	r3, r4
 8002528:	469b      	mov	fp, r3
 800252a:	46b9      	mov	r9, r7
 800252c:	2300      	movs	r3, #0
 800252e:	4e2d      	ldr	r6, [pc, #180]	; (80025e4 <__aeabi_dmul+0x1ec>)
 8002530:	2700      	movs	r7, #0
 8002532:	1a36      	subs	r6, r6, r0
 8002534:	9302      	str	r3, [sp, #8]
 8002536:	e784      	b.n	8002442 <__aeabi_dmul+0x4a>
 8002538:	4653      	mov	r3, sl
 800253a:	4323      	orrs	r3, r4
 800253c:	d12a      	bne.n	8002594 <__aeabi_dmul+0x19c>
 800253e:	2400      	movs	r4, #0
 8002540:	2002      	movs	r0, #2
 8002542:	e796      	b.n	8002472 <__aeabi_dmul+0x7a>
 8002544:	4653      	mov	r3, sl
 8002546:	4323      	orrs	r3, r4
 8002548:	d020      	beq.n	800258c <__aeabi_dmul+0x194>
 800254a:	2c00      	cmp	r4, #0
 800254c:	d100      	bne.n	8002550 <__aeabi_dmul+0x158>
 800254e:	e157      	b.n	8002800 <__aeabi_dmul+0x408>
 8002550:	0020      	movs	r0, r4
 8002552:	f000 fe1f 	bl	8003194 <__clzsi2>
 8002556:	0003      	movs	r3, r0
 8002558:	3b0b      	subs	r3, #11
 800255a:	2b1c      	cmp	r3, #28
 800255c:	dd00      	ble.n	8002560 <__aeabi_dmul+0x168>
 800255e:	e149      	b.n	80027f4 <__aeabi_dmul+0x3fc>
 8002560:	211d      	movs	r1, #29
 8002562:	1acb      	subs	r3, r1, r3
 8002564:	4651      	mov	r1, sl
 8002566:	0002      	movs	r2, r0
 8002568:	40d9      	lsrs	r1, r3
 800256a:	4653      	mov	r3, sl
 800256c:	3a08      	subs	r2, #8
 800256e:	4094      	lsls	r4, r2
 8002570:	4093      	lsls	r3, r2
 8002572:	430c      	orrs	r4, r1
 8002574:	4a1b      	ldr	r2, [pc, #108]	; (80025e4 <__aeabi_dmul+0x1ec>)
 8002576:	1a12      	subs	r2, r2, r0
 8002578:	2000      	movs	r0, #0
 800257a:	e77a      	b.n	8002472 <__aeabi_dmul+0x7a>
 800257c:	2501      	movs	r5, #1
 800257e:	9b01      	ldr	r3, [sp, #4]
 8002580:	4c14      	ldr	r4, [pc, #80]	; (80025d4 <__aeabi_dmul+0x1dc>)
 8002582:	401d      	ands	r5, r3
 8002584:	2300      	movs	r3, #0
 8002586:	2200      	movs	r2, #0
 8002588:	4699      	mov	r9, r3
 800258a:	e79c      	b.n	80024c6 <__aeabi_dmul+0xce>
 800258c:	2400      	movs	r4, #0
 800258e:	2200      	movs	r2, #0
 8002590:	2001      	movs	r0, #1
 8002592:	e76e      	b.n	8002472 <__aeabi_dmul+0x7a>
 8002594:	4653      	mov	r3, sl
 8002596:	2003      	movs	r0, #3
 8002598:	e76b      	b.n	8002472 <__aeabi_dmul+0x7a>
 800259a:	2300      	movs	r3, #0
 800259c:	469b      	mov	fp, r3
 800259e:	3301      	adds	r3, #1
 80025a0:	2704      	movs	r7, #4
 80025a2:	2600      	movs	r6, #0
 80025a4:	9302      	str	r3, [sp, #8]
 80025a6:	e74c      	b.n	8002442 <__aeabi_dmul+0x4a>
 80025a8:	2303      	movs	r3, #3
 80025aa:	4681      	mov	r9, r0
 80025ac:	270c      	movs	r7, #12
 80025ae:	9302      	str	r3, [sp, #8]
 80025b0:	e747      	b.n	8002442 <__aeabi_dmul+0x4a>
 80025b2:	2280      	movs	r2, #128	; 0x80
 80025b4:	2300      	movs	r3, #0
 80025b6:	2500      	movs	r5, #0
 80025b8:	0312      	lsls	r2, r2, #12
 80025ba:	4699      	mov	r9, r3
 80025bc:	4c05      	ldr	r4, [pc, #20]	; (80025d4 <__aeabi_dmul+0x1dc>)
 80025be:	e782      	b.n	80024c6 <__aeabi_dmul+0xce>
 80025c0:	465c      	mov	r4, fp
 80025c2:	464b      	mov	r3, r9
 80025c4:	9802      	ldr	r0, [sp, #8]
 80025c6:	e76f      	b.n	80024a8 <__aeabi_dmul+0xb0>
 80025c8:	465c      	mov	r4, fp
 80025ca:	464b      	mov	r3, r9
 80025cc:	9501      	str	r5, [sp, #4]
 80025ce:	9802      	ldr	r0, [sp, #8]
 80025d0:	e76a      	b.n	80024a8 <__aeabi_dmul+0xb0>
 80025d2:	46c0      	nop			; (mov r8, r8)
 80025d4:	000007ff 	.word	0x000007ff
 80025d8:	fffffc01 	.word	0xfffffc01
 80025dc:	08018100 	.word	0x08018100
 80025e0:	800fffff 	.word	0x800fffff
 80025e4:	fffffc0d 	.word	0xfffffc0d
 80025e8:	464a      	mov	r2, r9
 80025ea:	4649      	mov	r1, r9
 80025ec:	0c17      	lsrs	r7, r2, #16
 80025ee:	0c1a      	lsrs	r2, r3, #16
 80025f0:	041b      	lsls	r3, r3, #16
 80025f2:	0c1b      	lsrs	r3, r3, #16
 80025f4:	0408      	lsls	r0, r1, #16
 80025f6:	0019      	movs	r1, r3
 80025f8:	0c00      	lsrs	r0, r0, #16
 80025fa:	4341      	muls	r1, r0
 80025fc:	0015      	movs	r5, r2
 80025fe:	4688      	mov	r8, r1
 8002600:	0019      	movs	r1, r3
 8002602:	437d      	muls	r5, r7
 8002604:	4379      	muls	r1, r7
 8002606:	9503      	str	r5, [sp, #12]
 8002608:	4689      	mov	r9, r1
 800260a:	0029      	movs	r1, r5
 800260c:	0015      	movs	r5, r2
 800260e:	4345      	muls	r5, r0
 8002610:	444d      	add	r5, r9
 8002612:	9502      	str	r5, [sp, #8]
 8002614:	4645      	mov	r5, r8
 8002616:	0c2d      	lsrs	r5, r5, #16
 8002618:	46aa      	mov	sl, r5
 800261a:	9d02      	ldr	r5, [sp, #8]
 800261c:	4455      	add	r5, sl
 800261e:	45a9      	cmp	r9, r5
 8002620:	d906      	bls.n	8002630 <__aeabi_dmul+0x238>
 8002622:	468a      	mov	sl, r1
 8002624:	2180      	movs	r1, #128	; 0x80
 8002626:	0249      	lsls	r1, r1, #9
 8002628:	4689      	mov	r9, r1
 800262a:	44ca      	add	sl, r9
 800262c:	4651      	mov	r1, sl
 800262e:	9103      	str	r1, [sp, #12]
 8002630:	0c29      	lsrs	r1, r5, #16
 8002632:	9104      	str	r1, [sp, #16]
 8002634:	4641      	mov	r1, r8
 8002636:	0409      	lsls	r1, r1, #16
 8002638:	042d      	lsls	r5, r5, #16
 800263a:	0c09      	lsrs	r1, r1, #16
 800263c:	4688      	mov	r8, r1
 800263e:	0029      	movs	r1, r5
 8002640:	0c25      	lsrs	r5, r4, #16
 8002642:	0424      	lsls	r4, r4, #16
 8002644:	4441      	add	r1, r8
 8002646:	0c24      	lsrs	r4, r4, #16
 8002648:	9105      	str	r1, [sp, #20]
 800264a:	0021      	movs	r1, r4
 800264c:	4341      	muls	r1, r0
 800264e:	4688      	mov	r8, r1
 8002650:	0021      	movs	r1, r4
 8002652:	4379      	muls	r1, r7
 8002654:	468a      	mov	sl, r1
 8002656:	4368      	muls	r0, r5
 8002658:	4641      	mov	r1, r8
 800265a:	4450      	add	r0, sl
 800265c:	4681      	mov	r9, r0
 800265e:	0c08      	lsrs	r0, r1, #16
 8002660:	4448      	add	r0, r9
 8002662:	436f      	muls	r7, r5
 8002664:	4582      	cmp	sl, r0
 8002666:	d903      	bls.n	8002670 <__aeabi_dmul+0x278>
 8002668:	2180      	movs	r1, #128	; 0x80
 800266a:	0249      	lsls	r1, r1, #9
 800266c:	4689      	mov	r9, r1
 800266e:	444f      	add	r7, r9
 8002670:	0c01      	lsrs	r1, r0, #16
 8002672:	4689      	mov	r9, r1
 8002674:	0039      	movs	r1, r7
 8002676:	4449      	add	r1, r9
 8002678:	9102      	str	r1, [sp, #8]
 800267a:	4641      	mov	r1, r8
 800267c:	040f      	lsls	r7, r1, #16
 800267e:	9904      	ldr	r1, [sp, #16]
 8002680:	0c3f      	lsrs	r7, r7, #16
 8002682:	4688      	mov	r8, r1
 8002684:	0400      	lsls	r0, r0, #16
 8002686:	19c0      	adds	r0, r0, r7
 8002688:	4480      	add	r8, r0
 800268a:	4641      	mov	r1, r8
 800268c:	9104      	str	r1, [sp, #16]
 800268e:	4659      	mov	r1, fp
 8002690:	0c0f      	lsrs	r7, r1, #16
 8002692:	0409      	lsls	r1, r1, #16
 8002694:	0c09      	lsrs	r1, r1, #16
 8002696:	4688      	mov	r8, r1
 8002698:	4359      	muls	r1, r3
 800269a:	468a      	mov	sl, r1
 800269c:	0039      	movs	r1, r7
 800269e:	4351      	muls	r1, r2
 80026a0:	4689      	mov	r9, r1
 80026a2:	4641      	mov	r1, r8
 80026a4:	434a      	muls	r2, r1
 80026a6:	4651      	mov	r1, sl
 80026a8:	0c09      	lsrs	r1, r1, #16
 80026aa:	468b      	mov	fp, r1
 80026ac:	437b      	muls	r3, r7
 80026ae:	18d2      	adds	r2, r2, r3
 80026b0:	445a      	add	r2, fp
 80026b2:	4293      	cmp	r3, r2
 80026b4:	d903      	bls.n	80026be <__aeabi_dmul+0x2c6>
 80026b6:	2380      	movs	r3, #128	; 0x80
 80026b8:	025b      	lsls	r3, r3, #9
 80026ba:	469b      	mov	fp, r3
 80026bc:	44d9      	add	r9, fp
 80026be:	4651      	mov	r1, sl
 80026c0:	0409      	lsls	r1, r1, #16
 80026c2:	0c09      	lsrs	r1, r1, #16
 80026c4:	468a      	mov	sl, r1
 80026c6:	4641      	mov	r1, r8
 80026c8:	4361      	muls	r1, r4
 80026ca:	437c      	muls	r4, r7
 80026cc:	0c13      	lsrs	r3, r2, #16
 80026ce:	0412      	lsls	r2, r2, #16
 80026d0:	444b      	add	r3, r9
 80026d2:	4452      	add	r2, sl
 80026d4:	46a1      	mov	r9, r4
 80026d6:	468a      	mov	sl, r1
 80026d8:	003c      	movs	r4, r7
 80026da:	4641      	mov	r1, r8
 80026dc:	436c      	muls	r4, r5
 80026de:	434d      	muls	r5, r1
 80026e0:	4651      	mov	r1, sl
 80026e2:	444d      	add	r5, r9
 80026e4:	0c0f      	lsrs	r7, r1, #16
 80026e6:	197d      	adds	r5, r7, r5
 80026e8:	45a9      	cmp	r9, r5
 80026ea:	d903      	bls.n	80026f4 <__aeabi_dmul+0x2fc>
 80026ec:	2180      	movs	r1, #128	; 0x80
 80026ee:	0249      	lsls	r1, r1, #9
 80026f0:	4688      	mov	r8, r1
 80026f2:	4444      	add	r4, r8
 80026f4:	9f04      	ldr	r7, [sp, #16]
 80026f6:	9903      	ldr	r1, [sp, #12]
 80026f8:	46b8      	mov	r8, r7
 80026fa:	4441      	add	r1, r8
 80026fc:	468b      	mov	fp, r1
 80026fe:	4583      	cmp	fp, r0
 8002700:	4180      	sbcs	r0, r0
 8002702:	4241      	negs	r1, r0
 8002704:	4688      	mov	r8, r1
 8002706:	4651      	mov	r1, sl
 8002708:	0408      	lsls	r0, r1, #16
 800270a:	042f      	lsls	r7, r5, #16
 800270c:	0c00      	lsrs	r0, r0, #16
 800270e:	183f      	adds	r7, r7, r0
 8002710:	4658      	mov	r0, fp
 8002712:	9902      	ldr	r1, [sp, #8]
 8002714:	1810      	adds	r0, r2, r0
 8002716:	4689      	mov	r9, r1
 8002718:	4290      	cmp	r0, r2
 800271a:	4192      	sbcs	r2, r2
 800271c:	444f      	add	r7, r9
 800271e:	46ba      	mov	sl, r7
 8002720:	4252      	negs	r2, r2
 8002722:	4699      	mov	r9, r3
 8002724:	4693      	mov	fp, r2
 8002726:	44c2      	add	sl, r8
 8002728:	44d1      	add	r9, sl
 800272a:	44cb      	add	fp, r9
 800272c:	428f      	cmp	r7, r1
 800272e:	41bf      	sbcs	r7, r7
 8002730:	45c2      	cmp	sl, r8
 8002732:	4189      	sbcs	r1, r1
 8002734:	4599      	cmp	r9, r3
 8002736:	419b      	sbcs	r3, r3
 8002738:	4593      	cmp	fp, r2
 800273a:	4192      	sbcs	r2, r2
 800273c:	427f      	negs	r7, r7
 800273e:	4249      	negs	r1, r1
 8002740:	0c2d      	lsrs	r5, r5, #16
 8002742:	4252      	negs	r2, r2
 8002744:	430f      	orrs	r7, r1
 8002746:	425b      	negs	r3, r3
 8002748:	4313      	orrs	r3, r2
 800274a:	197f      	adds	r7, r7, r5
 800274c:	18ff      	adds	r7, r7, r3
 800274e:	465b      	mov	r3, fp
 8002750:	193c      	adds	r4, r7, r4
 8002752:	0ddb      	lsrs	r3, r3, #23
 8002754:	9a05      	ldr	r2, [sp, #20]
 8002756:	0264      	lsls	r4, r4, #9
 8002758:	431c      	orrs	r4, r3
 800275a:	0243      	lsls	r3, r0, #9
 800275c:	4313      	orrs	r3, r2
 800275e:	1e5d      	subs	r5, r3, #1
 8002760:	41ab      	sbcs	r3, r5
 8002762:	465a      	mov	r2, fp
 8002764:	0dc0      	lsrs	r0, r0, #23
 8002766:	4303      	orrs	r3, r0
 8002768:	0252      	lsls	r2, r2, #9
 800276a:	4313      	orrs	r3, r2
 800276c:	01e2      	lsls	r2, r4, #7
 800276e:	d556      	bpl.n	800281e <__aeabi_dmul+0x426>
 8002770:	2001      	movs	r0, #1
 8002772:	085a      	lsrs	r2, r3, #1
 8002774:	4003      	ands	r3, r0
 8002776:	4313      	orrs	r3, r2
 8002778:	07e2      	lsls	r2, r4, #31
 800277a:	4313      	orrs	r3, r2
 800277c:	0864      	lsrs	r4, r4, #1
 800277e:	485a      	ldr	r0, [pc, #360]	; (80028e8 <__aeabi_dmul+0x4f0>)
 8002780:	4460      	add	r0, ip
 8002782:	2800      	cmp	r0, #0
 8002784:	dd4d      	ble.n	8002822 <__aeabi_dmul+0x42a>
 8002786:	075a      	lsls	r2, r3, #29
 8002788:	d009      	beq.n	800279e <__aeabi_dmul+0x3a6>
 800278a:	220f      	movs	r2, #15
 800278c:	401a      	ands	r2, r3
 800278e:	2a04      	cmp	r2, #4
 8002790:	d005      	beq.n	800279e <__aeabi_dmul+0x3a6>
 8002792:	1d1a      	adds	r2, r3, #4
 8002794:	429a      	cmp	r2, r3
 8002796:	419b      	sbcs	r3, r3
 8002798:	425b      	negs	r3, r3
 800279a:	18e4      	adds	r4, r4, r3
 800279c:	0013      	movs	r3, r2
 800279e:	01e2      	lsls	r2, r4, #7
 80027a0:	d504      	bpl.n	80027ac <__aeabi_dmul+0x3b4>
 80027a2:	2080      	movs	r0, #128	; 0x80
 80027a4:	4a51      	ldr	r2, [pc, #324]	; (80028ec <__aeabi_dmul+0x4f4>)
 80027a6:	00c0      	lsls	r0, r0, #3
 80027a8:	4014      	ands	r4, r2
 80027aa:	4460      	add	r0, ip
 80027ac:	4a50      	ldr	r2, [pc, #320]	; (80028f0 <__aeabi_dmul+0x4f8>)
 80027ae:	4290      	cmp	r0, r2
 80027b0:	dd00      	ble.n	80027b4 <__aeabi_dmul+0x3bc>
 80027b2:	e6e3      	b.n	800257c <__aeabi_dmul+0x184>
 80027b4:	2501      	movs	r5, #1
 80027b6:	08db      	lsrs	r3, r3, #3
 80027b8:	0762      	lsls	r2, r4, #29
 80027ba:	431a      	orrs	r2, r3
 80027bc:	0264      	lsls	r4, r4, #9
 80027be:	9b01      	ldr	r3, [sp, #4]
 80027c0:	4691      	mov	r9, r2
 80027c2:	0b22      	lsrs	r2, r4, #12
 80027c4:	0544      	lsls	r4, r0, #21
 80027c6:	0d64      	lsrs	r4, r4, #21
 80027c8:	401d      	ands	r5, r3
 80027ca:	e67c      	b.n	80024c6 <__aeabi_dmul+0xce>
 80027cc:	2280      	movs	r2, #128	; 0x80
 80027ce:	4659      	mov	r1, fp
 80027d0:	0312      	lsls	r2, r2, #12
 80027d2:	4211      	tst	r1, r2
 80027d4:	d008      	beq.n	80027e8 <__aeabi_dmul+0x3f0>
 80027d6:	4214      	tst	r4, r2
 80027d8:	d106      	bne.n	80027e8 <__aeabi_dmul+0x3f0>
 80027da:	4322      	orrs	r2, r4
 80027dc:	0312      	lsls	r2, r2, #12
 80027de:	0b12      	lsrs	r2, r2, #12
 80027e0:	4645      	mov	r5, r8
 80027e2:	4699      	mov	r9, r3
 80027e4:	4c43      	ldr	r4, [pc, #268]	; (80028f4 <__aeabi_dmul+0x4fc>)
 80027e6:	e66e      	b.n	80024c6 <__aeabi_dmul+0xce>
 80027e8:	465b      	mov	r3, fp
 80027ea:	431a      	orrs	r2, r3
 80027ec:	0312      	lsls	r2, r2, #12
 80027ee:	0b12      	lsrs	r2, r2, #12
 80027f0:	4c40      	ldr	r4, [pc, #256]	; (80028f4 <__aeabi_dmul+0x4fc>)
 80027f2:	e668      	b.n	80024c6 <__aeabi_dmul+0xce>
 80027f4:	0003      	movs	r3, r0
 80027f6:	4654      	mov	r4, sl
 80027f8:	3b28      	subs	r3, #40	; 0x28
 80027fa:	409c      	lsls	r4, r3
 80027fc:	2300      	movs	r3, #0
 80027fe:	e6b9      	b.n	8002574 <__aeabi_dmul+0x17c>
 8002800:	f000 fcc8 	bl	8003194 <__clzsi2>
 8002804:	3020      	adds	r0, #32
 8002806:	e6a6      	b.n	8002556 <__aeabi_dmul+0x15e>
 8002808:	0003      	movs	r3, r0
 800280a:	3b28      	subs	r3, #40	; 0x28
 800280c:	409f      	lsls	r7, r3
 800280e:	2300      	movs	r3, #0
 8002810:	46bb      	mov	fp, r7
 8002812:	4699      	mov	r9, r3
 8002814:	e68a      	b.n	800252c <__aeabi_dmul+0x134>
 8002816:	f000 fcbd 	bl	8003194 <__clzsi2>
 800281a:	3020      	adds	r0, #32
 800281c:	e674      	b.n	8002508 <__aeabi_dmul+0x110>
 800281e:	46b4      	mov	ip, r6
 8002820:	e7ad      	b.n	800277e <__aeabi_dmul+0x386>
 8002822:	2501      	movs	r5, #1
 8002824:	1a2a      	subs	r2, r5, r0
 8002826:	2a38      	cmp	r2, #56	; 0x38
 8002828:	dd06      	ble.n	8002838 <__aeabi_dmul+0x440>
 800282a:	9b01      	ldr	r3, [sp, #4]
 800282c:	2400      	movs	r4, #0
 800282e:	401d      	ands	r5, r3
 8002830:	2300      	movs	r3, #0
 8002832:	2200      	movs	r2, #0
 8002834:	4699      	mov	r9, r3
 8002836:	e646      	b.n	80024c6 <__aeabi_dmul+0xce>
 8002838:	2a1f      	cmp	r2, #31
 800283a:	dc21      	bgt.n	8002880 <__aeabi_dmul+0x488>
 800283c:	2520      	movs	r5, #32
 800283e:	0020      	movs	r0, r4
 8002840:	1aad      	subs	r5, r5, r2
 8002842:	001e      	movs	r6, r3
 8002844:	40ab      	lsls	r3, r5
 8002846:	40a8      	lsls	r0, r5
 8002848:	40d6      	lsrs	r6, r2
 800284a:	1e5d      	subs	r5, r3, #1
 800284c:	41ab      	sbcs	r3, r5
 800284e:	4330      	orrs	r0, r6
 8002850:	4318      	orrs	r0, r3
 8002852:	40d4      	lsrs	r4, r2
 8002854:	0743      	lsls	r3, r0, #29
 8002856:	d009      	beq.n	800286c <__aeabi_dmul+0x474>
 8002858:	230f      	movs	r3, #15
 800285a:	4003      	ands	r3, r0
 800285c:	2b04      	cmp	r3, #4
 800285e:	d005      	beq.n	800286c <__aeabi_dmul+0x474>
 8002860:	0003      	movs	r3, r0
 8002862:	1d18      	adds	r0, r3, #4
 8002864:	4298      	cmp	r0, r3
 8002866:	419b      	sbcs	r3, r3
 8002868:	425b      	negs	r3, r3
 800286a:	18e4      	adds	r4, r4, r3
 800286c:	0223      	lsls	r3, r4, #8
 800286e:	d521      	bpl.n	80028b4 <__aeabi_dmul+0x4bc>
 8002870:	2501      	movs	r5, #1
 8002872:	9b01      	ldr	r3, [sp, #4]
 8002874:	2401      	movs	r4, #1
 8002876:	401d      	ands	r5, r3
 8002878:	2300      	movs	r3, #0
 800287a:	2200      	movs	r2, #0
 800287c:	4699      	mov	r9, r3
 800287e:	e622      	b.n	80024c6 <__aeabi_dmul+0xce>
 8002880:	251f      	movs	r5, #31
 8002882:	0021      	movs	r1, r4
 8002884:	426d      	negs	r5, r5
 8002886:	1a28      	subs	r0, r5, r0
 8002888:	40c1      	lsrs	r1, r0
 800288a:	0008      	movs	r0, r1
 800288c:	2a20      	cmp	r2, #32
 800288e:	d01d      	beq.n	80028cc <__aeabi_dmul+0x4d4>
 8002890:	355f      	adds	r5, #95	; 0x5f
 8002892:	1aaa      	subs	r2, r5, r2
 8002894:	4094      	lsls	r4, r2
 8002896:	4323      	orrs	r3, r4
 8002898:	1e5c      	subs	r4, r3, #1
 800289a:	41a3      	sbcs	r3, r4
 800289c:	2507      	movs	r5, #7
